{
  "_format": "hh-sol-artifact-1",
  "contractName": "CatNFT",
  "sourceName": "contracts/CatNFT.sol",
  "abi": [
    {
      "inputs": [
        {
          "internalType": "address",
          "name": "initialOwner",
          "type": "address"
        },
        {
          "internalType": "address",
          "name": "trustedForwarder",
          "type": "address"
        },
        {
          "internalType": "address",
          "name": "catCoinAddress",
          "type": "address"
        }
      ],
      "stateMutability": "nonpayable",
      "type": "constructor"
    },
    {
      "inputs": [
        {
          "internalType": "address",
          "name": "sender",
          "type": "address"
        },
        {
          "internalType": "uint256",
          "name": "tokenId",
          "type": "uint256"
        },
        {
          "internalType": "address",
          "name": "owner",
          "type": "address"
        }
      ],
      "name": "ERC721IncorrectOwner",
      "type": "error"
    },
    {
      "inputs": [
        {
          "internalType": "address",
          "name": "operator",
          "type": "address"
        },
        {
          "internalType": "uint256",
          "name": "tokenId",
          "type": "uint256"
        }
      ],
      "name": "ERC721InsufficientApproval",
      "type": "error"
    },
    {
      "inputs": [
        {
          "internalType": "address",
          "name": "approver",
          "type": "address"
        }
      ],
      "name": "ERC721InvalidApprover",
      "type": "error"
    },
    {
      "inputs": [
        {
          "internalType": "address",
          "name": "operator",
          "type": "address"
        }
      ],
      "name": "ERC721InvalidOperator",
      "type": "error"
    },
    {
      "inputs": [
        {
          "internalType": "address",
          "name": "owner",
          "type": "address"
        }
      ],
      "name": "ERC721InvalidOwner",
      "type": "error"
    },
    {
      "inputs": [
        {
          "internalType": "address",
          "name": "receiver",
          "type": "address"
        }
      ],
      "name": "ERC721InvalidReceiver",
      "type": "error"
    },
    {
      "inputs": [
        {
          "internalType": "address",
          "name": "sender",
          "type": "address"
        }
      ],
      "name": "ERC721InvalidSender",
      "type": "error"
    },
    {
      "inputs": [
        {
          "internalType": "uint256",
          "name": "tokenId",
          "type": "uint256"
        }
      ],
      "name": "ERC721NonexistentToken",
      "type": "error"
    },
    {
      "inputs": [
        {
          "internalType": "address",
          "name": "owner",
          "type": "address"
        }
      ],
      "name": "OwnableInvalidOwner",
      "type": "error"
    },
    {
      "inputs": [
        {
          "internalType": "address",
          "name": "account",
          "type": "address"
        }
      ],
      "name": "OwnableUnauthorizedAccount",
      "type": "error"
    },
    {
      "anonymous": false,
      "inputs": [
        {
          "indexed": true,
          "internalType": "address",
          "name": "owner",
          "type": "address"
        },
        {
          "indexed": true,
          "internalType": "address",
          "name": "approved",
          "type": "address"
        },
        {
          "indexed": true,
          "internalType": "uint256",
          "name": "tokenId",
          "type": "uint256"
        }
      ],
      "name": "Approval",
      "type": "event"
    },
    {
      "anonymous": false,
      "inputs": [
        {
          "indexed": true,
          "internalType": "address",
          "name": "owner",
          "type": "address"
        },
        {
          "indexed": true,
          "internalType": "address",
          "name": "operator",
          "type": "address"
        },
        {
          "indexed": false,
          "internalType": "bool",
          "name": "approved",
          "type": "bool"
        }
      ],
      "name": "ApprovalForAll",
      "type": "event"
    },
    {
      "anonymous": false,
      "inputs": [
        {
          "indexed": false,
          "internalType": "uint256",
          "name": "_fromTokenId",
          "type": "uint256"
        },
        {
          "indexed": false,
          "internalType": "uint256",
          "name": "_toTokenId",
          "type": "uint256"
        }
      ],
      "name": "BatchMetadataUpdate",
      "type": "event"
    },
    {
      "anonymous": false,
      "inputs": [
        {
          "indexed": false,
          "internalType": "uint256",
          "name": "_tokenId",
          "type": "uint256"
        }
      ],
      "name": "MetadataUpdate",
      "type": "event"
    },
    {
      "anonymous": false,
      "inputs": [
        {
          "indexed": true,
          "internalType": "address",
          "name": "previousOwner",
          "type": "address"
        },
        {
          "indexed": true,
          "internalType": "address",
          "name": "newOwner",
          "type": "address"
        }
      ],
      "name": "OwnershipTransferred",
      "type": "event"
    },
    {
      "anonymous": false,
      "inputs": [
        {
          "indexed": true,
          "internalType": "address",
          "name": "recipient",
          "type": "address"
        },
        {
          "indexed": false,
          "internalType": "uint256",
          "name": "amount",
          "type": "uint256"
        }
      ],
      "name": "TokensTrasfered",
      "type": "event"
    },
    {
      "anonymous": false,
      "inputs": [
        {
          "indexed": true,
          "internalType": "address",
          "name": "from",
          "type": "address"
        },
        {
          "indexed": true,
          "internalType": "address",
          "name": "to",
          "type": "address"
        },
        {
          "indexed": true,
          "internalType": "uint256",
          "name": "tokenId",
          "type": "uint256"
        }
      ],
      "name": "Transfer",
      "type": "event"
    },
    {
      "inputs": [
        {
          "internalType": "address",
          "name": "to",
          "type": "address"
        },
        {
          "internalType": "uint256",
          "name": "tokenId",
          "type": "uint256"
        }
      ],
      "name": "approve",
      "outputs": [],
      "stateMutability": "nonpayable",
      "type": "function"
    },
    {
      "inputs": [
        {
          "internalType": "address",
          "name": "owner",
          "type": "address"
        }
      ],
      "name": "balanceOf",
      "outputs": [
        {
          "internalType": "uint256",
          "name": "",
          "type": "uint256"
        }
      ],
      "stateMutability": "view",
      "type": "function"
    },
    {
      "inputs": [],
      "name": "count",
      "outputs": [
        {
          "internalType": "uint256",
          "name": "",
          "type": "uint256"
        }
      ],
      "stateMutability": "view",
      "type": "function"
    },
    {
      "inputs": [
        {
          "internalType": "uint256",
          "name": "tokenId",
          "type": "uint256"
        }
      ],
      "name": "getApproved",
      "outputs": [
        {
          "internalType": "address",
          "name": "",
          "type": "address"
        }
      ],
      "stateMutability": "view",
      "type": "function"
    },
    {
      "inputs": [
        {
          "internalType": "address",
          "name": "owner",
          "type": "address"
        },
        {
          "internalType": "address",
          "name": "operator",
          "type": "address"
        }
      ],
      "name": "isApprovedForAll",
      "outputs": [
        {
          "internalType": "bool",
          "name": "",
          "type": "bool"
        }
      ],
      "stateMutability": "view",
      "type": "function"
    },
    {
      "inputs": [
        {
          "internalType": "string",
          "name": "uri",
          "type": "string"
        }
      ],
      "name": "isContentOwned",
      "outputs": [
        {
          "internalType": "bool",
          "name": "",
          "type": "bool"
        }
      ],
      "stateMutability": "view",
      "type": "function"
    },
    {
      "inputs": [
        {
          "internalType": "address",
          "name": "forwarder",
          "type": "address"
        }
      ],
      "name": "isTrustedForwarder",
      "outputs": [
        {
          "internalType": "bool",
          "name": "",
          "type": "bool"
        }
      ],
      "stateMutability": "view",
      "type": "function"
    },
    {
      "inputs": [],
      "name": "name",
      "outputs": [
        {
          "internalType": "string",
          "name": "",
          "type": "string"
        }
      ],
      "stateMutability": "view",
      "type": "function"
    },
    {
      "inputs": [],
      "name": "owner",
      "outputs": [
        {
          "internalType": "address",
          "name": "",
          "type": "address"
        }
      ],
      "stateMutability": "view",
      "type": "function"
    },
    {
      "inputs": [
        {
          "internalType": "uint256",
          "name": "tokenId",
          "type": "uint256"
        }
      ],
      "name": "ownerOf",
      "outputs": [
        {
          "internalType": "address",
          "name": "",
          "type": "address"
        }
      ],
      "stateMutability": "view",
      "type": "function"
    },
    {
      "inputs": [
        {
          "internalType": "address",
          "name": "recipient",
          "type": "address"
        },
        {
          "internalType": "string",
          "name": "metadataURI",
          "type": "string"
        }
      ],
      "name": "payToMint",
      "outputs": [
        {
          "internalType": "uint256",
          "name": "",
          "type": "uint256"
        }
      ],
      "stateMutability": "payable",
      "type": "function"
    },
    {
      "inputs": [
        {
          "internalType": "address",
          "name": "recipient",
          "type": "address"
        },
        {
          "internalType": "string",
          "name": "metadataURI",
          "type": "string"
        }
      ],
      "name": "payToMintWithCatCoins",
      "outputs": [
        {
          "internalType": "uint256",
          "name": "",
          "type": "uint256"
        }
      ],
      "stateMutability": "nonpayable",
      "type": "function"
    },
    {
      "inputs": [],
      "name": "renounceOwnership",
      "outputs": [],
      "stateMutability": "nonpayable",
      "type": "function"
    },
    {
      "inputs": [
        {
          "internalType": "address",
          "name": "to",
          "type": "address"
        },
        {
          "internalType": "string",
          "name": "uri",
          "type": "string"
        }
      ],
      "name": "safeMint",
      "outputs": [],
      "stateMutability": "nonpayable",
      "type": "function"
    },
    {
      "inputs": [
        {
          "internalType": "address",
          "name": "from",
          "type": "address"
        },
        {
          "internalType": "address",
          "name": "to",
          "type": "address"
        },
        {
          "internalType": "uint256",
          "name": "tokenId",
          "type": "uint256"
        }
      ],
      "name": "safeTransferFrom",
      "outputs": [],
      "stateMutability": "nonpayable",
      "type": "function"
    },
    {
      "inputs": [
        {
          "internalType": "address",
          "name": "from",
          "type": "address"
        },
        {
          "internalType": "address",
          "name": "to",
          "type": "address"
        },
        {
          "internalType": "uint256",
          "name": "tokenId",
          "type": "uint256"
        },
        {
          "internalType": "bytes",
          "name": "data",
          "type": "bytes"
        }
      ],
      "name": "safeTransferFrom",
      "outputs": [],
      "stateMutability": "nonpayable",
      "type": "function"
    },
    {
      "inputs": [
        {
          "internalType": "address",
          "name": "operator",
          "type": "address"
        },
        {
          "internalType": "bool",
          "name": "approved",
          "type": "bool"
        }
      ],
      "name": "setApprovalForAll",
      "outputs": [],
      "stateMutability": "nonpayable",
      "type": "function"
    },
    {
      "inputs": [
        {
          "internalType": "bytes4",
          "name": "interfaceId",
          "type": "bytes4"
        }
      ],
      "name": "supportsInterface",
      "outputs": [
        {
          "internalType": "bool",
          "name": "",
          "type": "bool"
        }
      ],
      "stateMutability": "view",
      "type": "function"
    },
    {
      "inputs": [],
      "name": "symbol",
      "outputs": [
        {
          "internalType": "string",
          "name": "",
          "type": "string"
        }
      ],
      "stateMutability": "view",
      "type": "function"
    },
    {
      "inputs": [
        {
          "internalType": "uint256",
          "name": "tokenId",
          "type": "uint256"
        }
      ],
      "name": "tokenURI",
      "outputs": [
        {
          "internalType": "string",
          "name": "",
          "type": "string"
        }
      ],
      "stateMutability": "view",
      "type": "function"
    },
    {
      "inputs": [
        {
          "internalType": "address",
          "name": "from",
          "type": "address"
        },
        {
          "internalType": "address",
          "name": "to",
          "type": "address"
        },
        {
          "internalType": "uint256",
          "name": "tokenId",
          "type": "uint256"
        }
      ],
      "name": "transferFrom",
      "outputs": [],
      "stateMutability": "nonpayable",
      "type": "function"
    },
    {
      "inputs": [
        {
          "internalType": "address",
          "name": "newOwner",
          "type": "address"
        }
      ],
      "name": "transferOwnership",
      "outputs": [],
      "stateMutability": "nonpayable",
      "type": "function"
    },
    {
      "inputs": [
        {
          "internalType": "uint256",
          "name": "amount",
          "type": "uint256"
        }
      ],
      "name": "withdramCat",
      "outputs": [],
      "stateMutability": "nonpayable",
      "type": "function"
    }
  ],
  "bytecode": "0x60a06040523480156200001157600080fd5b50604051620035fd380380620035fd8339818101604052810190620000379190620002c0565b81836040518060400160405280600c81526020017f4361747374726f6e6175747300000000000000000000000000000000000000008152506040518060400160405280600481526020017f43555445000000000000000000000000000000000000000000000000000000008152508160009081620000b6919062000596565b508060019081620000c8919062000596565b505050600073ffffffffffffffffffffffffffffffffffffffff168173ffffffffffffffffffffffffffffffffffffffff1603620001405760006040517f1e4fbdf70000000000000000000000000000000000000000000000000000000081526004016200013791906200068e565b60405180910390fd5b62000151816200019060201b60201c565b508073ffffffffffffffffffffffffffffffffffffffff1660808173ffffffffffffffffffffffffffffffffffffffff168152505050505050620006ab565b6000600760009054906101000a900473ffffffffffffffffffffffffffffffffffffffff16905081600760006101000a81548173ffffffffffffffffffffffffffffffffffffffff021916908373ffffffffffffffffffffffffffffffffffffffff1602179055508173ffffffffffffffffffffffffffffffffffffffff168173ffffffffffffffffffffffffffffffffffffffff167f8be0079c531659141344cd1fd0a4f28419497f9722a3daafe3b4186f6b6457e060405160405180910390a35050565b600080fd5b600073ffffffffffffffffffffffffffffffffffffffff82169050919050565b600062000288826200025b565b9050919050565b6200029a816200027b565b8114620002a657600080fd5b50565b600081519050620002ba816200028f565b92915050565b600080600060608486031215620002dc57620002db62000256565b5b6000620002ec86828701620002a9565b9350506020620002ff86828701620002a9565b92505060406200031286828701620002a9565b9150509250925092565b600081519050919050565b7f4e487b7100000000000000000000000000000000000000000000000000000000600052604160045260246000fd5b7f4e487b7100000000000000000000000000000000000000000000000000000000600052602260045260246000fd5b600060028204905060018216806200039e57607f821691505b602082108103620003b457620003b362000356565b5b50919050565b60008190508160005260206000209050919050565b60006020601f8301049050919050565b600082821b905092915050565b6000600883026200041e7fffffffffffffffffffffffffffffffffffffffffffffffffffffffffffffffff82620003df565b6200042a8683620003df565b95508019841693508086168417925050509392505050565b6000819050919050565b6000819050919050565b600062000477620004716200046b8462000442565b6200044c565b62000442565b9050919050565b6000819050919050565b620004938362000456565b620004ab620004a2826200047e565b848454620003ec565b825550505050565b600090565b620004c2620004b3565b620004cf81848462000488565b505050565b5b81811015620004f757620004eb600082620004b8565b600181019050620004d5565b5050565b601f82111562000546576200051081620003ba565b6200051b84620003cf565b810160208510156200052b578190505b620005436200053a85620003cf565b830182620004d4565b50505b505050565b600082821c905092915050565b60006200056b600019846008026200054b565b1980831691505092915050565b600062000586838362000558565b9150826002028217905092915050565b620005a1826200031c565b67ffffffffffffffff811115620005bd57620005bc62000327565b5b620005c9825462000385565b620005d6828285620004fb565b600060209050601f8311600181146200060e5760008415620005f9578287015190505b62000605858262000578565b86555062000675565b601f1984166200061e86620003ba565b60005b82811015620006485784890151825560018201915060208501945060208101905062000621565b8683101562000668578489015162000664601f89168262000558565b8355505b6001600288020188555050505b505050505050565b62000688816200027b565b82525050565b6000602082019050620006a560008301846200067d565b92915050565b608051612f36620006c760003960006107ab0152612f366000f3fe6080604052600436106101405760003560e01c806370a08231116100b6578063a2f11a9e1161006f578063a2f11a9e14610487578063b88d4fde146104b0578063c87b56dd146104d9578063d204c45e14610516578063e985e9c51461053f578063f2fde38b1461057c57610140565b806370a0823114610377578063715018a6146103b45780638da5cb5b146103cb57806395d89b41146103f65780639f1cabc614610421578063a22cb4651461045e57610140565b806323b872dd1161010857806323b872dd1461023e57806342842e0e14610267578063572b6c05146102905780635b2ea390146102cd578063615fd9e21461030a5780636352211e1461033a57610140565b806301ffc9a71461014557806306661abd1461018257806306fdde03146101ad578063081812fc146101d8578063095ea7b314610215575b600080fd5b34801561015157600080fd5b5061016c60048036038101906101679190612256565b6105a5565b604051610179919061229e565b60405180910390f35b34801561018e57600080fd5b506101976105b7565b6040516101a491906122d2565b60405180910390f35b3480156101b957600080fd5b506101c26105c1565b6040516101cf919061237d565b60405180910390f35b3480156101e457600080fd5b506101ff60048036038101906101fa91906123cb565b610653565b60405161020c9190612439565b60405180910390f35b34801561022157600080fd5b5061023c60048036038101906102379190612480565b61066f565b005b34801561024a57600080fd5b50610265600480360381019061026091906124c0565b610685565b005b34801561027357600080fd5b5061028e600480360381019061028991906124c0565b610787565b005b34801561029c57600080fd5b506102b760048036038101906102b29190612513565b6107a7565b6040516102c4919061229e565b60405180910390f35b3480156102d957600080fd5b506102f460048036038101906102ef9190612675565b6107ff565b60405161030191906122d2565b60405180910390f35b610324600480360381019061031f9190612675565b6108e3565b60405161033191906122d2565b60405180910390f35b34801561034657600080fd5b50610361600480360381019061035c91906123cb565b610a11565b60405161036e9190612439565b60405180910390f35b34801561038357600080fd5b5061039e60048036038101906103999190612513565b610a23565b6040516103ab91906122d2565b60405180910390f35b3480156103c057600080fd5b506103c9610add565b005b3480156103d757600080fd5b506103e0610af1565b6040516103ed9190612439565b60405180910390f35b34801561040257600080fd5b5061040b610b1b565b604051610418919061237d565b60405180910390f35b34801561042d57600080fd5b50610448600480360381019061044391906126d1565b610bad565b604051610455919061229e565b60405180910390f35b34801561046a57600080fd5b5061048560048036038101906104809190612746565b610be8565b005b34801561049357600080fd5b506104ae60048036038101906104a991906123cb565b610bfe565b005b3480156104bc57600080fd5b506104d760048036038101906104d29190612827565b610c14565b005b3480156104e557600080fd5b5061050060048036038101906104fb91906123cb565b610c31565b60405161050d919061237d565b60405180910390f35b34801561052257600080fd5b5061053d60048036038101906105389190612675565b610c43565b005b34801561054b57600080fd5b50610566600480360381019061056191906128aa565b610d28565b604051610573919061229e565b60405180910390f35b34801561058857600080fd5b506105a3600480360381019061059e9190612513565b610dbc565b005b60006105b082610e42565b9050919050565b6000600854905090565b6060600080546105d090612919565b80601f01602080910402602001604051908101604052809291908181526020018280546105fc90612919565b80156106495780601f1061061e57610100808354040283529160200191610649565b820191906000526020600020905b81548152906001019060200180831161062c57829003601f168201915b5050505050905090565b600061065e82610ea3565b5061066882610f2b565b9050919050565b610681828261067c610f68565b610f77565b5050565b600073ffffffffffffffffffffffffffffffffffffffff168273ffffffffffffffffffffffffffffffffffffffff16036106f75760006040517f64a0ae920000000000000000000000000000000000000000000000000000000081526004016106ee9190612439565b60405180910390fd5b600061070b8383610706610f68565b610f89565b90508373ffffffffffffffffffffffffffffffffffffffff168173ffffffffffffffffffffffffffffffffffffffff1614610781578382826040517f64283d7b0000000000000000000000000000000000000000000000000000000081526004016107789392919061294a565b60405180910390fd5b50505050565b6107a283838360405180602001604052806000815250610c14565b505050565b60007f000000000000000000000000000000000000000000000000000000000000000073ffffffffffffffffffffffffffffffffffffffff168273ffffffffffffffffffffffffffffffffffffffff16149050919050565b6000600160098360405161081391906129bd565b908152602001604051809103902060009054906101000a900460ff1660ff1603610872576040517f08c379a000000000000000000000000000000000000000000000000000000000815260040161086990612a20565b60405180910390fd5b60006008600081548092919061088790612a6f565b919050559050600160098460405161089f91906129bd565b908152602001604051809103902060006101000a81548160ff021916908360ff1602179055506108cf84826111a3565b6108d981846111c1565b8091505092915050565b600060016009836040516108f791906129bd565b908152602001604051809103902060009054906101000a900460ff1660ff1603610956576040517f08c379a000000000000000000000000000000000000000000000000000000000815260040161094d90612a20565b60405180910390fd5b66b1a2bc2ec500003410156109a0576040517f08c379a000000000000000000000000000000000000000000000000000000000815260040161099790612b03565b60405180910390fd5b6000600860008154809291906109b590612a6f565b91905055905060016009846040516109cd91906129bd565b908152602001604051809103902060006101000a81548160ff021916908360ff1602179055506109fd84826111a3565b610a0781846111c1565b8091505092915050565b6000610a1c82610ea3565b9050919050565b60008073ffffffffffffffffffffffffffffffffffffffff168273ffffffffffffffffffffffffffffffffffffffff1603610a965760006040517f89c62b64000000000000000000000000000000000000000000000000000000008152600401610a8d9190612439565b60405180910390fd5b600360008373ffffffffffffffffffffffffffffffffffffffff1673ffffffffffffffffffffffffffffffffffffffff168152602001908152602001600020549050919050565b610ae561121d565b610aef60006112a4565b565b6000600760009054906101000a900473ffffffffffffffffffffffffffffffffffffffff16905090565b606060018054610b2a90612919565b80601f0160208091040260200160405190810160405280929190818152602001828054610b5690612919565b8015610ba35780601f10610b7857610100808354040283529160200191610ba3565b820191906000526020600020905b815481529060010190602001808311610b8657829003601f168201915b5050505050905090565b60006001600983604051610bc191906129bd565b908152602001604051809103902060009054906101000a900460ff1660ff16149050919050565b610bfa610bf3610f68565b838361136a565b5050565b610c0661121d565b610c113033836114d9565b50565b610c1f848484610685565b610c2b84848484611646565b50505050565b6060610c3c826117fd565b9050919050565b610c4b61121d565b6001600982604051610c5d91906129bd565b908152602001604051809103902060009054906101000a900460ff1660ff1603610cbc576040517f08c379a0000000000000000000000000000000000000000000000000000000008152600401610cb390612a20565b60405180910390fd5b600060086000815480929190610cd190612a6f565b919050559050610ce183826111a3565b610ceb81836111c1565b6001600983604051610cfd91906129bd565b908152602001604051809103902060006101000a81548160ff021916908360ff160217905550505050565b6000600560008473ffffffffffffffffffffffffffffffffffffffff1673ffffffffffffffffffffffffffffffffffffffff16815260200190815260200160002060008373ffffffffffffffffffffffffffffffffffffffff1673ffffffffffffffffffffffffffffffffffffffff16815260200190815260200160002060009054906101000a900460ff16905092915050565b610dc461121d565b600073ffffffffffffffffffffffffffffffffffffffff168173ffffffffffffffffffffffffffffffffffffffff1603610e365760006040517f1e4fbdf7000000000000000000000000000000000000000000000000000000008152600401610e2d9190612439565b60405180910390fd5b610e3f816112a4565b50565b6000634906490660e01b7bffffffffffffffffffffffffffffffffffffffffffffffffffffffff1916827bffffffffffffffffffffffffffffffffffffffffffffffffffffffff19161480610e9c5750610e9b82611910565b5b9050919050565b600080610eaf836119f2565b9050600073ffffffffffffffffffffffffffffffffffffffff168173ffffffffffffffffffffffffffffffffffffffff1603610f2257826040517f7e273289000000000000000000000000000000000000000000000000000000008152600401610f1991906122d2565b60405180910390fd5b80915050919050565b60006004600083815260200190815260200160002060009054906101000a900473ffffffffffffffffffffffffffffffffffffffff169050919050565b6000610f72611a2f565b905090565b610f848383836001611a5a565b505050565b600080610f95846119f2565b9050600073ffffffffffffffffffffffffffffffffffffffff168373ffffffffffffffffffffffffffffffffffffffff1614610fd757610fd6818486611c1f565b5b600073ffffffffffffffffffffffffffffffffffffffff168173ffffffffffffffffffffffffffffffffffffffff161461106857611019600085600080611a5a565b6001600360008373ffffffffffffffffffffffffffffffffffffffff1673ffffffffffffffffffffffffffffffffffffffff168152602001908152602001600020600082825403925050819055505b600073ffffffffffffffffffffffffffffffffffffffff168573ffffffffffffffffffffffffffffffffffffffff16146110eb576001600360008773ffffffffffffffffffffffffffffffffffffffff1673ffffffffffffffffffffffffffffffffffffffff168152602001908152602001600020600082825401925050819055505b846002600086815260200190815260200160002060006101000a81548173ffffffffffffffffffffffffffffffffffffffff021916908373ffffffffffffffffffffffffffffffffffffffff160217905550838573ffffffffffffffffffffffffffffffffffffffff168273ffffffffffffffffffffffffffffffffffffffff167fddf252ad1be2c89b69c2b068fc378daa952ba7f163c4a11628f55a4df523b3ef60405160405180910390a4809150509392505050565b6111bd828260405180602001604052806000815250611ce3565b5050565b806006600084815260200190815260200160002090816111e19190612ccf565b507ff8e1a15aba9398e019f0b49df1a4fde98ee17ae345cb5f6b5e2c27f5033e8ce78260405161121191906122d2565b60405180910390a15050565b611225610f68565b73ffffffffffffffffffffffffffffffffffffffff16611243610af1565b73ffffffffffffffffffffffffffffffffffffffff16146112a257611266610f68565b6040517f118cdaa70000000000000000000000000000000000000000000000000000000081526004016112999190612439565b60405180910390fd5b565b6000600760009054906101000a900473ffffffffffffffffffffffffffffffffffffffff16905081600760006101000a81548173ffffffffffffffffffffffffffffffffffffffff021916908373ffffffffffffffffffffffffffffffffffffffff1602179055508173ffffffffffffffffffffffffffffffffffffffff168173ffffffffffffffffffffffffffffffffffffffff167f8be0079c531659141344cd1fd0a4f28419497f9722a3daafe3b4186f6b6457e060405160405180910390a35050565b600073ffffffffffffffffffffffffffffffffffffffff168273ffffffffffffffffffffffffffffffffffffffff16036113db57816040517f5b08ba180000000000000000000000000000000000000000000000000000000081526004016113d29190612439565b60405180910390fd5b80600560008573ffffffffffffffffffffffffffffffffffffffff1673ffffffffffffffffffffffffffffffffffffffff16815260200190815260200160002060008473ffffffffffffffffffffffffffffffffffffffff1673ffffffffffffffffffffffffffffffffffffffff16815260200190815260200160002060006101000a81548160ff0219169083151502179055508173ffffffffffffffffffffffffffffffffffffffff168373ffffffffffffffffffffffffffffffffffffffff167f17307eab39ab6107e8899845ad3d59bd9653f200f220920489ca2b5937696c31836040516114cc919061229e565b60405180910390a3505050565b600073ffffffffffffffffffffffffffffffffffffffff168273ffffffffffffffffffffffffffffffffffffffff160361154b5760006040517f64a0ae920000000000000000000000000000000000000000000000000000000081526004016115429190612439565b60405180910390fd5b600061155983836000610f89565b9050600073ffffffffffffffffffffffffffffffffffffffff168173ffffffffffffffffffffffffffffffffffffffff16036115cc57816040517f7e2732890000000000000000000000000000000000000000000000000000000081526004016115c391906122d2565b60405180910390fd5b8373ffffffffffffffffffffffffffffffffffffffff168173ffffffffffffffffffffffffffffffffffffffff1614611640578382826040517f64283d7b0000000000000000000000000000000000000000000000000000000081526004016116379392919061294a565b60405180910390fd5b50505050565b60008373ffffffffffffffffffffffffffffffffffffffff163b11156117f7578273ffffffffffffffffffffffffffffffffffffffff1663150b7a0261168a610f68565b8685856040518563ffffffff1660e01b81526004016116ac9493929190612df6565b6020604051808303816000875af19250505080156116e857506040513d601f19601f820116820180604052508101906116e59190612e57565b60015b61176c573d8060008114611718576040519150601f19603f3d011682016040523d82523d6000602084013e61171d565b606091505b50600081510361176457836040517f64a0ae9200000000000000000000000000000000000000000000000000000000815260040161175b9190612439565b60405180910390fd5b805181602001fd5b63150b7a0260e01b7bffffffffffffffffffffffffffffffffffffffffffffffffffffffff1916817bffffffffffffffffffffffffffffffffffffffffffffffffffffffff1916146117f557836040517f64a0ae920000000000000000000000000000000000000000000000000000000081526004016117ec9190612439565b60405180910390fd5b505b50505050565b606061180882610ea3565b50600060066000848152602001908152602001600020805461182990612919565b80601f016020809104026020016040519081016040528092919081815260200182805461185590612919565b80156118a25780601f10611877576101008083540402835291602001916118a2565b820191906000526020600020905b81548152906001019060200180831161188557829003601f168201915b5050505050905060006118b3611cff565b905060008151036118c857819250505061190b565b6000825111156118fd5780826040516020016118e5929190612e84565b6040516020818303038152906040529250505061190b565b61190684611d3c565b925050505b919050565b60007f80ac58cd000000000000000000000000000000000000000000000000000000007bffffffffffffffffffffffffffffffffffffffffffffffffffffffff1916827bffffffffffffffffffffffffffffffffffffffffffffffffffffffff191614806119db57507f5b5e139f000000000000000000000000000000000000000000000000000000007bffffffffffffffffffffffffffffffffffffffffffffffffffffffff1916827bffffffffffffffffffffffffffffffffffffffffffffffffffffffff1916145b806119eb57506119ea82611da5565b5b9050919050565b60006002600083815260200190815260200160002060009054906101000a900473ffffffffffffffffffffffffffffffffffffffff169050919050565b6000611a3a336107a7565b15611a4e57601436033560601c9050611a56565b339050611a57565b5b90565b8080611a935750600073ffffffffffffffffffffffffffffffffffffffff168273ffffffffffffffffffffffffffffffffffffffff1614155b15611bc7576000611aa384610ea3565b9050600073ffffffffffffffffffffffffffffffffffffffff168373ffffffffffffffffffffffffffffffffffffffff1614158015611b0e57508273ffffffffffffffffffffffffffffffffffffffff168173ffffffffffffffffffffffffffffffffffffffff1614155b8015611b215750611b1f8184610d28565b155b15611b6357826040517fa9fbf51f000000000000000000000000000000000000000000000000000000008152600401611b5a9190612439565b60405180910390fd5b8115611bc557838573ffffffffffffffffffffffffffffffffffffffff168273ffffffffffffffffffffffffffffffffffffffff167f8c5be1e5ebec7d5bd14f71427d1e84f3dd0314c0f7b2291e5b200ac8c7c3b92560405160405180910390a45b505b836004600085815260200190815260200160002060006101000a81548173ffffffffffffffffffffffffffffffffffffffff021916908373ffffffffffffffffffffffffffffffffffffffff16021790555050505050565b611c2a838383611e0f565b611cde57600073ffffffffffffffffffffffffffffffffffffffff168373ffffffffffffffffffffffffffffffffffffffff1603611c9f57806040517f7e273289000000000000000000000000000000000000000000000000000000008152600401611c9691906122d2565b60405180910390fd5b81816040517f177e802f000000000000000000000000000000000000000000000000000000008152600401611cd5929190612ea8565b60405180910390fd5b505050565b611ced8383611ed0565b611cfa6000848484611646565b505050565b60606040518060400160405280600781526020017f697066733a2f2f00000000000000000000000000000000000000000000000000815250905090565b6060611d4782610ea3565b506000611d52611cff565b90506000815111611d725760405180602001604052806000815250611d9d565b80611d7c84611fc9565b604051602001611d8d929190612e84565b6040516020818303038152906040525b915050919050565b60007f01ffc9a7000000000000000000000000000000000000000000000000000000007bffffffffffffffffffffffffffffffffffffffffffffffffffffffff1916827bffffffffffffffffffffffffffffffffffffffffffffffffffffffff1916149050919050565b60008073ffffffffffffffffffffffffffffffffffffffff168373ffffffffffffffffffffffffffffffffffffffff1614158015611ec757508273ffffffffffffffffffffffffffffffffffffffff168473ffffffffffffffffffffffffffffffffffffffff161480611e885750611e878484610d28565b5b80611ec657508273ffffffffffffffffffffffffffffffffffffffff16611eae83610f2b565b73ffffffffffffffffffffffffffffffffffffffff16145b5b90509392505050565b600073ffffffffffffffffffffffffffffffffffffffff168273ffffffffffffffffffffffffffffffffffffffff1603611f425760006040517f64a0ae92000000000000000000000000000000000000000000000000000000008152600401611f399190612439565b60405180910390fd5b6000611f5083836000610f89565b9050600073ffffffffffffffffffffffffffffffffffffffff168173ffffffffffffffffffffffffffffffffffffffff1614611fc45760006040517f73c6ac6e000000000000000000000000000000000000000000000000000000008152600401611fbb9190612439565b60405180910390fd5b505050565b606060006001611fd884612097565b01905060008167ffffffffffffffff811115611ff757611ff661254a565b5b6040519080825280601f01601f1916602001820160405280156120295781602001600182028036833780820191505090505b509050600082602001820190505b60011561208c578080600190039150507f3031323334353637383961626364656600000000000000000000000000000000600a86061a8153600a85816120805761207f612ed1565b5b04945060008503612037575b819350505050919050565b600080600090507a184f03e93ff9f4daa797ed6e38ed64bf6a1f01000000000000000083106120f5577a184f03e93ff9f4daa797ed6e38ed64bf6a1f01000000000000000083816120eb576120ea612ed1565b5b0492506040810190505b6d04ee2d6d415b85acef81000000008310612132576d04ee2d6d415b85acef8100000000838161212857612127612ed1565b5b0492506020810190505b662386f26fc10000831061216157662386f26fc10000838161215757612156612ed1565b5b0492506010810190505b6305f5e100831061218a576305f5e10083816121805761217f612ed1565b5b0492506008810190505b61271083106121af5761271083816121a5576121a4612ed1565b5b0492506004810190505b606483106121d257606483816121c8576121c7612ed1565b5b0492506002810190505b600a83106121e1576001810190505b80915050919050565b6000604051905090565b600080fd5b600080fd5b60007fffffffff0000000000000000000000000000000000000000000000000000000082169050919050565b612233816121fe565b811461223e57600080fd5b50565b6000813590506122508161222a565b92915050565b60006020828403121561226c5761226b6121f4565b5b600061227a84828501612241565b91505092915050565b60008115159050919050565b61229881612283565b82525050565b60006020820190506122b3600083018461228f565b92915050565b6000819050919050565b6122cc816122b9565b82525050565b60006020820190506122e760008301846122c3565b92915050565b600081519050919050565b600082825260208201905092915050565b60005b8381101561232757808201518184015260208101905061230c565b60008484015250505050565b6000601f19601f8301169050919050565b600061234f826122ed565b61235981856122f8565b9350612369818560208601612309565b61237281612333565b840191505092915050565b600060208201905081810360008301526123978184612344565b905092915050565b6123a8816122b9565b81146123b357600080fd5b50565b6000813590506123c58161239f565b92915050565b6000602082840312156123e1576123e06121f4565b5b60006123ef848285016123b6565b91505092915050565b600073ffffffffffffffffffffffffffffffffffffffff82169050919050565b6000612423826123f8565b9050919050565b61243381612418565b82525050565b600060208201905061244e600083018461242a565b92915050565b61245d81612418565b811461246857600080fd5b50565b60008135905061247a81612454565b92915050565b60008060408385031215612497576124966121f4565b5b60006124a58582860161246b565b92505060206124b6858286016123b6565b9150509250929050565b6000806000606084860312156124d9576124d86121f4565b5b60006124e78682870161246b565b93505060206124f88682870161246b565b9250506040612509868287016123b6565b9150509250925092565b600060208284031215612529576125286121f4565b5b60006125378482850161246b565b91505092915050565b600080fd5b600080fd5b7f4e487b7100000000000000000000000000000000000000000000000000000000600052604160045260246000fd5b61258282612333565b810181811067ffffffffffffffff821117156125a1576125a061254a565b5b80604052505050565b60006125b46121ea565b90506125c08282612579565b919050565b600067ffffffffffffffff8211156125e0576125df61254a565b5b6125e982612333565b9050602081019050919050565b82818337600083830152505050565b6000612618612613846125c5565b6125aa565b90508281526020810184848401111561263457612633612545565b5b61263f8482856125f6565b509392505050565b600082601f83011261265c5761265b612540565b5b813561266c848260208601612605565b91505092915050565b6000806040838503121561268c5761268b6121f4565b5b600061269a8582860161246b565b925050602083013567ffffffffffffffff8111156126bb576126ba6121f9565b5b6126c785828601612647565b9150509250929050565b6000602082840312156126e7576126e66121f4565b5b600082013567ffffffffffffffff811115612705576127046121f9565b5b61271184828501612647565b91505092915050565b61272381612283565b811461272e57600080fd5b50565b6000813590506127408161271a565b92915050565b6000806040838503121561275d5761275c6121f4565b5b600061276b8582860161246b565b925050602061277c85828601612731565b9150509250929050565b600067ffffffffffffffff8211156127a1576127a061254a565b5b6127aa82612333565b9050602081019050919050565b60006127ca6127c584612786565b6125aa565b9050828152602081018484840111156127e6576127e5612545565b5b6127f18482856125f6565b509392505050565b600082601f83011261280e5761280d612540565b5b813561281e8482602086016127b7565b91505092915050565b60008060008060808587031215612841576128406121f4565b5b600061284f8782880161246b565b94505060206128608782880161246b565b9350506040612871878288016123b6565b925050606085013567ffffffffffffffff811115612892576128916121f9565b5b61289e878288016127f9565b91505092959194509250565b600080604083850312156128c1576128c06121f4565b5b60006128cf8582860161246b565b92505060206128e08582860161246b565b9150509250929050565b7f4e487b7100000000000000000000000000000000000000000000000000000000600052602260045260246000fd5b6000600282049050600182168061293157607f821691505b602082108103612944576129436128ea565b5b50919050565b600060608201905061295f600083018661242a565b61296c60208301856122c3565b612979604083018461242a565b949350505050565b600081905092915050565b6000612997826122ed565b6129a18185612981565b93506129b1818560208601612309565b80840191505092915050565b60006129c9828461298c565b915081905092915050565b7f4e465420616c7265616479206d696e7465642100000000000000000000000000600082015250565b6000612a0a6013836122f8565b9150612a15826129d4565b602082019050919050565b60006020820190508181036000830152612a39816129fd565b9050919050565b7f4e487b7100000000000000000000000000000000000000000000000000000000600052601160045260246000fd5b6000612a7a826122b9565b91507fffffffffffffffffffffffffffffffffffffffffffffffffffffffffffffffff8203612aac57612aab612a40565b5b600182019050919050565b7f4e65656420746f20706179207570210000000000000000000000000000000000600082015250565b6000612aed600f836122f8565b9150612af882612ab7565b602082019050919050565b60006020820190508181036000830152612b1c81612ae0565b9050919050565b60008190508160005260206000209050919050565b60006020601f8301049050919050565b600082821b905092915050565b600060088302612b857fffffffffffffffffffffffffffffffffffffffffffffffffffffffffffffffff82612b48565b612b8f8683612b48565b95508019841693508086168417925050509392505050565b6000819050919050565b6000612bcc612bc7612bc2846122b9565b612ba7565b6122b9565b9050919050565b6000819050919050565b612be683612bb1565b612bfa612bf282612bd3565b848454612b55565b825550505050565b600090565b612c0f612c02565b612c1a818484612bdd565b505050565b5b81811015612c3e57612c33600082612c07565b600181019050612c20565b5050565b601f821115612c8357612c5481612b23565b612c5d84612b38565b81016020851015612c6c578190505b612c80612c7885612b38565b830182612c1f565b50505b505050565b600082821c905092915050565b6000612ca660001984600802612c88565b1980831691505092915050565b6000612cbf8383612c95565b9150826002028217905092915050565b612cd8826122ed565b67ffffffffffffffff811115612cf157612cf061254a565b5b612cfb8254612919565b612d06828285612c42565b600060209050601f831160018114612d395760008415612d27578287015190505b612d318582612cb3565b865550612d99565b601f198416612d4786612b23565b60005b82811015612d6f57848901518255600182019150602085019450602081019050612d4a565b86831015612d8c5784890151612d88601f891682612c95565b8355505b6001600288020188555050505b505050505050565b600081519050919050565b600082825260208201905092915050565b6000612dc882612da1565b612dd28185612dac565b9350612de2818560208601612309565b612deb81612333565b840191505092915050565b6000608082019050612e0b600083018761242a565b612e18602083018661242a565b612e2560408301856122c3565b8181036060830152612e378184612dbd565b905095945050505050565b600081519050612e518161222a565b92915050565b600060208284031215612e6d57612e6c6121f4565b5b6000612e7b84828501612e42565b91505092915050565b6000612e90828561298c565b9150612e9c828461298c565b91508190509392505050565b6000604082019050612ebd600083018561242a565b612eca60208301846122c3565b9392505050565b7f4e487b7100000000000000000000000000000000000000000000000000000000600052601260045260246000fdfea264697066735822122075ffe832868b2b29791bbae4cb7fdf4042ceee22d452e5defd7116378412afe464736f6c63430008180033",
  "linkReferences": {},
  "deployedLinkReferences": {}
}