{
  "_format": "hh-sol-artifact-1",
  "contractName": "CatNFT",
  "sourceName": "contracts/CatNFT.sol",
  "abi": [
    {
      "inputs": [
        {
          "internalType": "address",
          "name": "initialOwner",
          "type": "address"
        }
      ],
      "stateMutability": "nonpayable",
      "type": "constructor"
    },
    {
      "inputs": [
        {
          "internalType": "address",
          "name": "sender",
          "type": "address"
        },
        {
          "internalType": "uint256",
          "name": "tokenId",
          "type": "uint256"
        },
        {
          "internalType": "address",
          "name": "owner",
          "type": "address"
        }
      ],
      "name": "ERC721IncorrectOwner",
      "type": "error"
    },
    {
      "inputs": [
        {
          "internalType": "address",
          "name": "operator",
          "type": "address"
        },
        {
          "internalType": "uint256",
          "name": "tokenId",
          "type": "uint256"
        }
      ],
      "name": "ERC721InsufficientApproval",
      "type": "error"
    },
    {
      "inputs": [
        {
          "internalType": "address",
          "name": "approver",
          "type": "address"
        }
      ],
      "name": "ERC721InvalidApprover",
      "type": "error"
    },
    {
      "inputs": [
        {
          "internalType": "address",
          "name": "operator",
          "type": "address"
        }
      ],
      "name": "ERC721InvalidOperator",
      "type": "error"
    },
    {
      "inputs": [
        {
          "internalType": "address",
          "name": "owner",
          "type": "address"
        }
      ],
      "name": "ERC721InvalidOwner",
      "type": "error"
    },
    {
      "inputs": [
        {
          "internalType": "address",
          "name": "receiver",
          "type": "address"
        }
      ],
      "name": "ERC721InvalidReceiver",
      "type": "error"
    },
    {
      "inputs": [
        {
          "internalType": "address",
          "name": "sender",
          "type": "address"
        }
      ],
      "name": "ERC721InvalidSender",
      "type": "error"
    },
    {
      "inputs": [
        {
          "internalType": "uint256",
          "name": "tokenId",
          "type": "uint256"
        }
      ],
      "name": "ERC721NonexistentToken",
      "type": "error"
    },
    {
      "inputs": [
        {
          "internalType": "address",
          "name": "owner",
          "type": "address"
        }
      ],
      "name": "OwnableInvalidOwner",
      "type": "error"
    },
    {
      "inputs": [
        {
          "internalType": "address",
          "name": "account",
          "type": "address"
        }
      ],
      "name": "OwnableUnauthorizedAccount",
      "type": "error"
    },
    {
      "anonymous": false,
      "inputs": [
        {
          "indexed": true,
          "internalType": "address",
          "name": "owner",
          "type": "address"
        },
        {
          "indexed": true,
          "internalType": "address",
          "name": "approved",
          "type": "address"
        },
        {
          "indexed": true,
          "internalType": "uint256",
          "name": "tokenId",
          "type": "uint256"
        }
      ],
      "name": "Approval",
      "type": "event"
    },
    {
      "anonymous": false,
      "inputs": [
        {
          "indexed": true,
          "internalType": "address",
          "name": "owner",
          "type": "address"
        },
        {
          "indexed": true,
          "internalType": "address",
          "name": "operator",
          "type": "address"
        },
        {
          "indexed": false,
          "internalType": "bool",
          "name": "approved",
          "type": "bool"
        }
      ],
      "name": "ApprovalForAll",
      "type": "event"
    },
    {
      "anonymous": false,
      "inputs": [
        {
          "indexed": false,
          "internalType": "uint256",
          "name": "_fromTokenId",
          "type": "uint256"
        },
        {
          "indexed": false,
          "internalType": "uint256",
          "name": "_toTokenId",
          "type": "uint256"
        }
      ],
      "name": "BatchMetadataUpdate",
      "type": "event"
    },
    {
      "anonymous": false,
      "inputs": [
        {
          "indexed": false,
          "internalType": "uint256",
          "name": "_tokenId",
          "type": "uint256"
        }
      ],
      "name": "MetadataUpdate",
      "type": "event"
    },
    {
      "anonymous": false,
      "inputs": [
        {
          "indexed": true,
          "internalType": "address",
          "name": "previousOwner",
          "type": "address"
        },
        {
          "indexed": true,
          "internalType": "address",
          "name": "newOwner",
          "type": "address"
        }
      ],
      "name": "OwnershipTransferred",
      "type": "event"
    },
    {
      "anonymous": false,
      "inputs": [
        {
          "indexed": true,
          "internalType": "address",
          "name": "from",
          "type": "address"
        },
        {
          "indexed": true,
          "internalType": "address",
          "name": "to",
          "type": "address"
        },
        {
          "indexed": true,
          "internalType": "uint256",
          "name": "tokenId",
          "type": "uint256"
        }
      ],
      "name": "Transfer",
      "type": "event"
    },
    {
      "inputs": [
        {
          "internalType": "address",
          "name": "to",
          "type": "address"
        },
        {
          "internalType": "uint256",
          "name": "tokenId",
          "type": "uint256"
        }
      ],
      "name": "approve",
      "outputs": [],
      "stateMutability": "nonpayable",
      "type": "function"
    },
    {
      "inputs": [
        {
          "internalType": "address",
          "name": "owner",
          "type": "address"
        }
      ],
      "name": "balanceOf",
      "outputs": [
        {
          "internalType": "uint256",
          "name": "",
          "type": "uint256"
        }
      ],
      "stateMutability": "view",
      "type": "function"
    },
    {
      "inputs": [],
      "name": "count",
      "outputs": [
        {
          "internalType": "uint256",
          "name": "",
          "type": "uint256"
        }
      ],
      "stateMutability": "view",
      "type": "function"
    },
    {
      "inputs": [
        {
          "internalType": "uint256",
          "name": "tokenId",
          "type": "uint256"
        }
      ],
      "name": "getApproved",
      "outputs": [
        {
          "internalType": "address",
          "name": "",
          "type": "address"
        }
      ],
      "stateMutability": "view",
      "type": "function"
    },
    {
      "inputs": [
        {
          "internalType": "address",
          "name": "owner",
          "type": "address"
        },
        {
          "internalType": "address",
          "name": "operator",
          "type": "address"
        }
      ],
      "name": "isApprovedForAll",
      "outputs": [
        {
          "internalType": "bool",
          "name": "",
          "type": "bool"
        }
      ],
      "stateMutability": "view",
      "type": "function"
    },
    {
      "inputs": [
        {
          "internalType": "string",
          "name": "uri",
          "type": "string"
        }
      ],
      "name": "isContentOwned",
      "outputs": [
        {
          "internalType": "bool",
          "name": "",
          "type": "bool"
        }
      ],
      "stateMutability": "view",
      "type": "function"
    },
    {
      "inputs": [],
      "name": "name",
      "outputs": [
        {
          "internalType": "string",
          "name": "",
          "type": "string"
        }
      ],
      "stateMutability": "view",
      "type": "function"
    },
    {
      "inputs": [],
      "name": "owner",
      "outputs": [
        {
          "internalType": "address",
          "name": "",
          "type": "address"
        }
      ],
      "stateMutability": "view",
      "type": "function"
    },
    {
      "inputs": [
        {
          "internalType": "uint256",
          "name": "tokenId",
          "type": "uint256"
        }
      ],
      "name": "ownerOf",
      "outputs": [
        {
          "internalType": "address",
          "name": "",
          "type": "address"
        }
      ],
      "stateMutability": "view",
      "type": "function"
    },
    {
      "inputs": [
        {
          "internalType": "address",
          "name": "recipient",
          "type": "address"
        },
        {
          "internalType": "string",
          "name": "metadataURI",
          "type": "string"
        }
      ],
      "name": "payToMint",
      "outputs": [
        {
          "internalType": "uint256",
          "name": "",
          "type": "uint256"
        }
      ],
      "stateMutability": "payable",
      "type": "function"
    },
    {
      "inputs": [
        {
          "internalType": "address",
          "name": "recipient",
          "type": "address"
        },
        {
          "internalType": "string",
          "name": "metadataURI",
          "type": "string"
        }
      ],
      "name": "payToMintWithCatCoins",
      "outputs": [
        {
          "internalType": "uint256",
          "name": "",
          "type": "uint256"
        }
      ],
      "stateMutability": "nonpayable",
      "type": "function"
    },
    {
      "inputs": [],
      "name": "renounceOwnership",
      "outputs": [],
      "stateMutability": "nonpayable",
      "type": "function"
    },
    {
      "inputs": [
        {
          "internalType": "address",
          "name": "to",
          "type": "address"
        },
        {
          "internalType": "string",
          "name": "uri",
          "type": "string"
        }
      ],
      "name": "safeMint",
      "outputs": [],
      "stateMutability": "nonpayable",
      "type": "function"
    },
    {
      "inputs": [
        {
          "internalType": "address",
          "name": "from",
          "type": "address"
        },
        {
          "internalType": "address",
          "name": "to",
          "type": "address"
        },
        {
          "internalType": "uint256",
          "name": "tokenId",
          "type": "uint256"
        }
      ],
      "name": "safeTransferFrom",
      "outputs": [],
      "stateMutability": "nonpayable",
      "type": "function"
    },
    {
      "inputs": [
        {
          "internalType": "address",
          "name": "from",
          "type": "address"
        },
        {
          "internalType": "address",
          "name": "to",
          "type": "address"
        },
        {
          "internalType": "uint256",
          "name": "tokenId",
          "type": "uint256"
        },
        {
          "internalType": "bytes",
          "name": "data",
          "type": "bytes"
        }
      ],
      "name": "safeTransferFrom",
      "outputs": [],
      "stateMutability": "nonpayable",
      "type": "function"
    },
    {
      "inputs": [
        {
          "internalType": "address",
          "name": "operator",
          "type": "address"
        },
        {
          "internalType": "bool",
          "name": "approved",
          "type": "bool"
        }
      ],
      "name": "setApprovalForAll",
      "outputs": [],
      "stateMutability": "nonpayable",
      "type": "function"
    },
    {
      "inputs": [
        {
          "internalType": "bytes4",
          "name": "interfaceId",
          "type": "bytes4"
        }
      ],
      "name": "supportsInterface",
      "outputs": [
        {
          "internalType": "bool",
          "name": "",
          "type": "bool"
        }
      ],
      "stateMutability": "view",
      "type": "function"
    },
    {
      "inputs": [],
      "name": "symbol",
      "outputs": [
        {
          "internalType": "string",
          "name": "",
          "type": "string"
        }
      ],
      "stateMutability": "view",
      "type": "function"
    },
    {
      "inputs": [
        {
          "internalType": "uint256",
          "name": "tokenId",
          "type": "uint256"
        }
      ],
      "name": "tokenURI",
      "outputs": [
        {
          "internalType": "string",
          "name": "",
          "type": "string"
        }
      ],
      "stateMutability": "view",
      "type": "function"
    },
    {
      "inputs": [
        {
          "internalType": "address",
          "name": "from",
          "type": "address"
        },
        {
          "internalType": "address",
          "name": "to",
          "type": "address"
        },
        {
          "internalType": "uint256",
          "name": "tokenId",
          "type": "uint256"
        }
      ],
      "name": "transferFrom",
      "outputs": [],
      "stateMutability": "nonpayable",
      "type": "function"
    },
    {
      "inputs": [
        {
          "internalType": "address",
          "name": "newOwner",
          "type": "address"
        }
      ],
      "name": "transferOwnership",
      "outputs": [],
      "stateMutability": "nonpayable",
      "type": "function"
    }
  ],
  "bytecode": "0x60806040523480156200001157600080fd5b506040516200330638038062003306833981810160405281019062000037919062000288565b806040518060400160405280600c81526020017f4361747374726f6e6175747300000000000000000000000000000000000000008152506040518060400160405280600481526020017f43555445000000000000000000000000000000000000000000000000000000008152508160009081620000b5919062000534565b508060019081620000c7919062000534565b505050600073ffffffffffffffffffffffffffffffffffffffff168173ffffffffffffffffffffffffffffffffffffffff16036200013f5760006040517f1e4fbdf70000000000000000000000000000000000000000000000000000000081526004016200013691906200062c565b60405180910390fd5b62000150816200015860201b60201c565b505062000649565b6000600760009054906101000a900473ffffffffffffffffffffffffffffffffffffffff16905081600760006101000a81548173ffffffffffffffffffffffffffffffffffffffff021916908373ffffffffffffffffffffffffffffffffffffffff1602179055508173ffffffffffffffffffffffffffffffffffffffff168173ffffffffffffffffffffffffffffffffffffffff167f8be0079c531659141344cd1fd0a4f28419497f9722a3daafe3b4186f6b6457e060405160405180910390a35050565b600080fd5b600073ffffffffffffffffffffffffffffffffffffffff82169050919050565b6000620002508262000223565b9050919050565b620002628162000243565b81146200026e57600080fd5b50565b600081519050620002828162000257565b92915050565b600060208284031215620002a157620002a06200021e565b5b6000620002b18482850162000271565b91505092915050565b600081519050919050565b7f4e487b7100000000000000000000000000000000000000000000000000000000600052604160045260246000fd5b7f4e487b7100000000000000000000000000000000000000000000000000000000600052602260045260246000fd5b600060028204905060018216806200033c57607f821691505b602082108103620003525762000351620002f4565b5b50919050565b60008190508160005260206000209050919050565b60006020601f8301049050919050565b600082821b905092915050565b600060088302620003bc7fffffffffffffffffffffffffffffffffffffffffffffffffffffffffffffffff826200037d565b620003c886836200037d565b95508019841693508086168417925050509392505050565b6000819050919050565b6000819050919050565b6000620004156200040f6200040984620003e0565b620003ea565b620003e0565b9050919050565b6000819050919050565b6200043183620003f4565b6200044962000440826200041c565b8484546200038a565b825550505050565b600090565b6200046062000451565b6200046d81848462000426565b505050565b5b8181101562000495576200048960008262000456565b60018101905062000473565b5050565b601f821115620004e457620004ae8162000358565b620004b9846200036d565b81016020851015620004c9578190505b620004e1620004d8856200036d565b83018262000472565b50505b505050565b600082821c905092915050565b60006200050960001984600802620004e9565b1980831691505092915050565b6000620005248383620004f6565b9150826002028217905092915050565b6200053f82620002ba565b67ffffffffffffffff8111156200055b576200055a620002c5565b5b62000567825462000323565b6200057482828562000499565b600060209050601f831160018114620005ac576000841562000597578287015190505b620005a3858262000516565b86555062000613565b601f198416620005bc8662000358565b60005b82811015620005e657848901518255600182019150602085019450602081019050620005bf565b8683101562000606578489015162000602601f891682620004f6565b8355505b6001600288020188555050505b505050505050565b620006268162000243565b82525050565b60006020820190506200064360008301846200061b565b92915050565b612cad80620006596000396000f3fe60806040526004361061012a5760003560e01c806370a08231116100ab578063a22cb4651161006f578063a22cb4651461040b578063b88d4fde14610434578063c87b56dd1461045d578063d204c45e1461049a578063e985e9c5146104c3578063f2fde38b146105005761012a565b806370a0823114610324578063715018a6146103615780638da5cb5b1461037857806395d89b41146103a35780639f1cabc6146103ce5761012a565b806323b872dd116100f257806323b872dd1461022857806342842e0e146102515780635b2ea3901461027a578063615fd9e2146102b75780636352211e146102e75761012a565b806301ffc9a71461012f57806306661abd1461016c57806306fdde0314610197578063081812fc146101c2578063095ea7b3146101ff575b600080fd5b34801561013b57600080fd5b5061015660048036038101906101519190611fcd565b610529565b6040516101639190612015565b60405180910390f35b34801561017857600080fd5b5061018161053b565b60405161018e9190612049565b60405180910390f35b3480156101a357600080fd5b506101ac610545565b6040516101b991906120f4565b60405180910390f35b3480156101ce57600080fd5b506101e960048036038101906101e49190612142565b6105d7565b6040516101f691906121b0565b60405180910390f35b34801561020b57600080fd5b50610226600480360381019061022191906121f7565b6105f3565b005b34801561023457600080fd5b5061024f600480360381019061024a9190612237565b610609565b005b34801561025d57600080fd5b5061027860048036038101906102739190612237565b61070b565b005b34801561028657600080fd5b506102a1600480360381019061029c91906123bf565b61072b565b6040516102ae9190612049565b60405180910390f35b6102d160048036038101906102cc91906123bf565b61080f565b6040516102de9190612049565b60405180910390f35b3480156102f357600080fd5b5061030e60048036038101906103099190612142565b61093d565b60405161031b91906121b0565b60405180910390f35b34801561033057600080fd5b5061034b6004803603810190610346919061241b565b61094f565b6040516103589190612049565b60405180910390f35b34801561036d57600080fd5b50610376610a09565b005b34801561038457600080fd5b5061038d610a1d565b60405161039a91906121b0565b60405180910390f35b3480156103af57600080fd5b506103b8610a47565b6040516103c591906120f4565b60405180910390f35b3480156103da57600080fd5b506103f560048036038101906103f09190612448565b610ad9565b6040516104029190612015565b60405180910390f35b34801561041757600080fd5b50610432600480360381019061042d91906124bd565b610b14565b005b34801561044057600080fd5b5061045b6004803603810190610456919061259e565b610b2a565b005b34801561046957600080fd5b50610484600480360381019061047f9190612142565b610b47565b60405161049191906120f4565b60405180910390f35b3480156104a657600080fd5b506104c160048036038101906104bc91906123bf565b610b59565b005b3480156104cf57600080fd5b506104ea60048036038101906104e59190612621565b610c3e565b6040516104f79190612015565b60405180910390f35b34801561050c57600080fd5b506105276004803603810190610522919061241b565b610cd2565b005b600061053482610d58565b9050919050565b6000600854905090565b60606000805461055490612690565b80601f016020809104026020016040519081016040528092919081815260200182805461058090612690565b80156105cd5780601f106105a2576101008083540402835291602001916105cd565b820191906000526020600020905b8154815290600101906020018083116105b057829003601f168201915b5050505050905090565b60006105e282610db9565b506105ec82610e41565b9050919050565b6106058282610600610e7e565b610e86565b5050565b600073ffffffffffffffffffffffffffffffffffffffff168273ffffffffffffffffffffffffffffffffffffffff160361067b5760006040517f64a0ae9200000000000000000000000000000000000000000000000000000000815260040161067291906121b0565b60405180910390fd5b600061068f838361068a610e7e565b610e98565b90508373ffffffffffffffffffffffffffffffffffffffff168173ffffffffffffffffffffffffffffffffffffffff1614610705578382826040517f64283d7b0000000000000000000000000000000000000000000000000000000081526004016106fc939291906126c1565b60405180910390fd5b50505050565b61072683838360405180602001604052806000815250610b2a565b505050565b6000600160098360405161073f9190612734565b908152602001604051809103902060009054906101000a900460ff1660ff160361079e576040517f08c379a000000000000000000000000000000000000000000000000000000000815260040161079590612797565b60405180910390fd5b6000600860008154809291906107b3906127e6565b91905055905060016009846040516107cb9190612734565b908152602001604051809103902060006101000a81548160ff021916908360ff1602179055506107fb84826110b2565b61080581846110d0565b8091505092915050565b600060016009836040516108239190612734565b908152602001604051809103902060009054906101000a900460ff1660ff1603610882576040517f08c379a000000000000000000000000000000000000000000000000000000000815260040161087990612797565b60405180910390fd5b66b1a2bc2ec500003410156108cc576040517f08c379a00000000000000000000000000000000000000000000000000000000081526004016108c39061287a565b60405180910390fd5b6000600860008154809291906108e1906127e6565b91905055905060016009846040516108f99190612734565b908152602001604051809103902060006101000a81548160ff021916908360ff16021790555061092984826110b2565b61093381846110d0565b8091505092915050565b600061094882610db9565b9050919050565b60008073ffffffffffffffffffffffffffffffffffffffff168273ffffffffffffffffffffffffffffffffffffffff16036109c25760006040517f89c62b640000000000000000000000000000000000000000000000000000000081526004016109b991906121b0565b60405180910390fd5b600360008373ffffffffffffffffffffffffffffffffffffffff1673ffffffffffffffffffffffffffffffffffffffff168152602001908152602001600020549050919050565b610a1161112c565b610a1b60006111b3565b565b6000600760009054906101000a900473ffffffffffffffffffffffffffffffffffffffff16905090565b606060018054610a5690612690565b80601f0160208091040260200160405190810160405280929190818152602001828054610a8290612690565b8015610acf5780601f10610aa457610100808354040283529160200191610acf565b820191906000526020600020905b815481529060010190602001808311610ab257829003601f168201915b5050505050905090565b60006001600983604051610aed9190612734565b908152602001604051809103902060009054906101000a900460ff1660ff16149050919050565b610b26610b1f610e7e565b8383611279565b5050565b610b35848484610609565b610b41848484846113e8565b50505050565b6060610b528261159f565b9050919050565b610b6161112c565b6001600982604051610b739190612734565b908152602001604051809103902060009054906101000a900460ff1660ff1603610bd2576040517f08c379a0000000000000000000000000000000000000000000000000000000008152600401610bc990612797565b60405180910390fd5b600060086000815480929190610be7906127e6565b919050559050610bf783826110b2565b610c0181836110d0565b6001600983604051610c139190612734565b908152602001604051809103902060006101000a81548160ff021916908360ff160217905550505050565b6000600560008473ffffffffffffffffffffffffffffffffffffffff1673ffffffffffffffffffffffffffffffffffffffff16815260200190815260200160002060008373ffffffffffffffffffffffffffffffffffffffff1673ffffffffffffffffffffffffffffffffffffffff16815260200190815260200160002060009054906101000a900460ff16905092915050565b610cda61112c565b600073ffffffffffffffffffffffffffffffffffffffff168173ffffffffffffffffffffffffffffffffffffffff1603610d4c5760006040517f1e4fbdf7000000000000000000000000000000000000000000000000000000008152600401610d4391906121b0565b60405180910390fd5b610d55816111b3565b50565b6000634906490660e01b7bffffffffffffffffffffffffffffffffffffffffffffffffffffffff1916827bffffffffffffffffffffffffffffffffffffffffffffffffffffffff19161480610db25750610db1826116b2565b5b9050919050565b600080610dc583611794565b9050600073ffffffffffffffffffffffffffffffffffffffff168173ffffffffffffffffffffffffffffffffffffffff1603610e3857826040517f7e273289000000000000000000000000000000000000000000000000000000008152600401610e2f9190612049565b60405180910390fd5b80915050919050565b60006004600083815260200190815260200160002060009054906101000a900473ffffffffffffffffffffffffffffffffffffffff169050919050565b600033905090565b610e9383838360016117d1565b505050565b600080610ea484611794565b9050600073ffffffffffffffffffffffffffffffffffffffff168373ffffffffffffffffffffffffffffffffffffffff1614610ee657610ee5818486611996565b5b600073ffffffffffffffffffffffffffffffffffffffff168173ffffffffffffffffffffffffffffffffffffffff1614610f7757610f286000856000806117d1565b6001600360008373ffffffffffffffffffffffffffffffffffffffff1673ffffffffffffffffffffffffffffffffffffffff168152602001908152602001600020600082825403925050819055505b600073ffffffffffffffffffffffffffffffffffffffff168573ffffffffffffffffffffffffffffffffffffffff1614610ffa576001600360008773ffffffffffffffffffffffffffffffffffffffff1673ffffffffffffffffffffffffffffffffffffffff168152602001908152602001600020600082825401925050819055505b846002600086815260200190815260200160002060006101000a81548173ffffffffffffffffffffffffffffffffffffffff021916908373ffffffffffffffffffffffffffffffffffffffff160217905550838573ffffffffffffffffffffffffffffffffffffffff168273ffffffffffffffffffffffffffffffffffffffff167fddf252ad1be2c89b69c2b068fc378daa952ba7f163c4a11628f55a4df523b3ef60405160405180910390a4809150509392505050565b6110cc828260405180602001604052806000815250611a5a565b5050565b806006600084815260200190815260200160002090816110f09190612a46565b507ff8e1a15aba9398e019f0b49df1a4fde98ee17ae345cb5f6b5e2c27f5033e8ce7826040516111209190612049565b60405180910390a15050565b611134610e7e565b73ffffffffffffffffffffffffffffffffffffffff16611152610a1d565b73ffffffffffffffffffffffffffffffffffffffff16146111b157611175610e7e565b6040517f118cdaa70000000000000000000000000000000000000000000000000000000081526004016111a891906121b0565b60405180910390fd5b565b6000600760009054906101000a900473ffffffffffffffffffffffffffffffffffffffff16905081600760006101000a81548173ffffffffffffffffffffffffffffffffffffffff021916908373ffffffffffffffffffffffffffffffffffffffff1602179055508173ffffffffffffffffffffffffffffffffffffffff168173ffffffffffffffffffffffffffffffffffffffff167f8be0079c531659141344cd1fd0a4f28419497f9722a3daafe3b4186f6b6457e060405160405180910390a35050565b600073ffffffffffffffffffffffffffffffffffffffff168273ffffffffffffffffffffffffffffffffffffffff16036112ea57816040517f5b08ba180000000000000000000000000000000000000000000000000000000081526004016112e191906121b0565b60405180910390fd5b80600560008573ffffffffffffffffffffffffffffffffffffffff1673ffffffffffffffffffffffffffffffffffffffff16815260200190815260200160002060008473ffffffffffffffffffffffffffffffffffffffff1673ffffffffffffffffffffffffffffffffffffffff16815260200190815260200160002060006101000a81548160ff0219169083151502179055508173ffffffffffffffffffffffffffffffffffffffff168373ffffffffffffffffffffffffffffffffffffffff167f17307eab39ab6107e8899845ad3d59bd9653f200f220920489ca2b5937696c31836040516113db9190612015565b60405180910390a3505050565b60008373ffffffffffffffffffffffffffffffffffffffff163b1115611599578273ffffffffffffffffffffffffffffffffffffffff1663150b7a0261142c610e7e565b8685856040518563ffffffff1660e01b815260040161144e9493929190612b6d565b6020604051808303816000875af192505050801561148a57506040513d601f19601f820116820180604052508101906114879190612bce565b60015b61150e573d80600081146114ba576040519150601f19603f3d011682016040523d82523d6000602084013e6114bf565b606091505b50600081510361150657836040517f64a0ae920000000000000000000000000000000000000000000000000000000081526004016114fd91906121b0565b60405180910390fd5b805181602001fd5b63150b7a0260e01b7bffffffffffffffffffffffffffffffffffffffffffffffffffffffff1916817bffffffffffffffffffffffffffffffffffffffffffffffffffffffff19161461159757836040517f64a0ae9200000000000000000000000000000000000000000000000000000000815260040161158e91906121b0565b60405180910390fd5b505b50505050565b60606115aa82610db9565b5060006006600084815260200190815260200160002080546115cb90612690565b80601f01602080910402602001604051908101604052809291908181526020018280546115f790612690565b80156116445780601f1061161957610100808354040283529160200191611644565b820191906000526020600020905b81548152906001019060200180831161162757829003601f168201915b505050505090506000611655611a76565b9050600081510361166a5781925050506116ad565b60008251111561169f578082604051602001611687929190612bfb565b604051602081830303815290604052925050506116ad565b6116a884611ab3565b925050505b919050565b60007f80ac58cd000000000000000000000000000000000000000000000000000000007bffffffffffffffffffffffffffffffffffffffffffffffffffffffff1916827bffffffffffffffffffffffffffffffffffffffffffffffffffffffff1916148061177d57507f5b5e139f000000000000000000000000000000000000000000000000000000007bffffffffffffffffffffffffffffffffffffffffffffffffffffffff1916827bffffffffffffffffffffffffffffffffffffffffffffffffffffffff1916145b8061178d575061178c82611b1c565b5b9050919050565b60006002600083815260200190815260200160002060009054906101000a900473ffffffffffffffffffffffffffffffffffffffff169050919050565b808061180a5750600073ffffffffffffffffffffffffffffffffffffffff168273ffffffffffffffffffffffffffffffffffffffff1614155b1561193e57600061181a84610db9565b9050600073ffffffffffffffffffffffffffffffffffffffff168373ffffffffffffffffffffffffffffffffffffffff161415801561188557508273ffffffffffffffffffffffffffffffffffffffff168173ffffffffffffffffffffffffffffffffffffffff1614155b801561189857506118968184610c3e565b155b156118da57826040517fa9fbf51f0000000000000000000000000000000000000000000000000000000081526004016118d191906121b0565b60405180910390fd5b811561193c57838573ffffffffffffffffffffffffffffffffffffffff168273ffffffffffffffffffffffffffffffffffffffff167f8c5be1e5ebec7d5bd14f71427d1e84f3dd0314c0f7b2291e5b200ac8c7c3b92560405160405180910390a45b505b836004600085815260200190815260200160002060006101000a81548173ffffffffffffffffffffffffffffffffffffffff021916908373ffffffffffffffffffffffffffffffffffffffff16021790555050505050565b6119a1838383611b86565b611a5557600073ffffffffffffffffffffffffffffffffffffffff168373ffffffffffffffffffffffffffffffffffffffff1603611a1657806040517f7e273289000000000000000000000000000000000000000000000000000000008152600401611a0d9190612049565b60405180910390fd5b81816040517f177e802f000000000000000000000000000000000000000000000000000000008152600401611a4c929190612c1f565b60405180910390fd5b505050565b611a648383611c47565b611a7160008484846113e8565b505050565b60606040518060400160405280600781526020017f697066733a2f2f00000000000000000000000000000000000000000000000000815250905090565b6060611abe82610db9565b506000611ac9611a76565b90506000815111611ae95760405180602001604052806000815250611b14565b80611af384611d40565b604051602001611b04929190612bfb565b6040516020818303038152906040525b915050919050565b60007f01ffc9a7000000000000000000000000000000000000000000000000000000007bffffffffffffffffffffffffffffffffffffffffffffffffffffffff1916827bffffffffffffffffffffffffffffffffffffffffffffffffffffffff1916149050919050565b60008073ffffffffffffffffffffffffffffffffffffffff168373ffffffffffffffffffffffffffffffffffffffff1614158015611c3e57508273ffffffffffffffffffffffffffffffffffffffff168473ffffffffffffffffffffffffffffffffffffffff161480611bff5750611bfe8484610c3e565b5b80611c3d57508273ffffffffffffffffffffffffffffffffffffffff16611c2583610e41565b73ffffffffffffffffffffffffffffffffffffffff16145b5b90509392505050565b600073ffffffffffffffffffffffffffffffffffffffff168273ffffffffffffffffffffffffffffffffffffffff1603611cb95760006040517f64a0ae92000000000000000000000000000000000000000000000000000000008152600401611cb091906121b0565b60405180910390fd5b6000611cc783836000610e98565b9050600073ffffffffffffffffffffffffffffffffffffffff168173ffffffffffffffffffffffffffffffffffffffff1614611d3b5760006040517f73c6ac6e000000000000000000000000000000000000000000000000000000008152600401611d3291906121b0565b60405180910390fd5b505050565b606060006001611d4f84611e0e565b01905060008167ffffffffffffffff811115611d6e57611d6d612294565b5b6040519080825280601f01601f191660200182016040528015611da05781602001600182028036833780820191505090505b509050600082602001820190505b600115611e03578080600190039150507f3031323334353637383961626364656600000000000000000000000000000000600a86061a8153600a8581611df757611df6612c48565b5b04945060008503611dae575b819350505050919050565b600080600090507a184f03e93ff9f4daa797ed6e38ed64bf6a1f0100000000000000008310611e6c577a184f03e93ff9f4daa797ed6e38ed64bf6a1f0100000000000000008381611e6257611e61612c48565b5b0492506040810190505b6d04ee2d6d415b85acef81000000008310611ea9576d04ee2d6d415b85acef81000000008381611e9f57611e9e612c48565b5b0492506020810190505b662386f26fc100008310611ed857662386f26fc100008381611ece57611ecd612c48565b5b0492506010810190505b6305f5e1008310611f01576305f5e1008381611ef757611ef6612c48565b5b0492506008810190505b6127108310611f26576127108381611f1c57611f1b612c48565b5b0492506004810190505b60648310611f495760648381611f3f57611f3e612c48565b5b0492506002810190505b600a8310611f58576001810190505b80915050919050565b6000604051905090565b600080fd5b600080fd5b60007fffffffff0000000000000000000000000000000000000000000000000000000082169050919050565b611faa81611f75565b8114611fb557600080fd5b50565b600081359050611fc781611fa1565b92915050565b600060208284031215611fe357611fe2611f6b565b5b6000611ff184828501611fb8565b91505092915050565b60008115159050919050565b61200f81611ffa565b82525050565b600060208201905061202a6000830184612006565b92915050565b6000819050919050565b61204381612030565b82525050565b600060208201905061205e600083018461203a565b92915050565b600081519050919050565b600082825260208201905092915050565b60005b8381101561209e578082015181840152602081019050612083565b60008484015250505050565b6000601f19601f8301169050919050565b60006120c682612064565b6120d0818561206f565b93506120e0818560208601612080565b6120e9816120aa565b840191505092915050565b6000602082019050818103600083015261210e81846120bb565b905092915050565b61211f81612030565b811461212a57600080fd5b50565b60008135905061213c81612116565b92915050565b60006020828403121561215857612157611f6b565b5b60006121668482850161212d565b91505092915050565b600073ffffffffffffffffffffffffffffffffffffffff82169050919050565b600061219a8261216f565b9050919050565b6121aa8161218f565b82525050565b60006020820190506121c560008301846121a1565b92915050565b6121d48161218f565b81146121df57600080fd5b50565b6000813590506121f1816121cb565b92915050565b6000806040838503121561220e5761220d611f6b565b5b600061221c858286016121e2565b925050602061222d8582860161212d565b9150509250929050565b6000806000606084860312156122505761224f611f6b565b5b600061225e868287016121e2565b935050602061226f868287016121e2565b92505060406122808682870161212d565b9150509250925092565b600080fd5b600080fd5b7f4e487b7100000000000000000000000000000000000000000000000000000000600052604160045260246000fd5b6122cc826120aa565b810181811067ffffffffffffffff821117156122eb576122ea612294565b5b80604052505050565b60006122fe611f61565b905061230a82826122c3565b919050565b600067ffffffffffffffff82111561232a57612329612294565b5b612333826120aa565b9050602081019050919050565b82818337600083830152505050565b600061236261235d8461230f565b6122f4565b90508281526020810184848401111561237e5761237d61228f565b5b612389848285612340565b509392505050565b600082601f8301126123a6576123a561228a565b5b81356123b684826020860161234f565b91505092915050565b600080604083850312156123d6576123d5611f6b565b5b60006123e4858286016121e2565b925050602083013567ffffffffffffffff81111561240557612404611f70565b5b61241185828601612391565b9150509250929050565b60006020828403121561243157612430611f6b565b5b600061243f848285016121e2565b91505092915050565b60006020828403121561245e5761245d611f6b565b5b600082013567ffffffffffffffff81111561247c5761247b611f70565b5b61248884828501612391565b91505092915050565b61249a81611ffa565b81146124a557600080fd5b50565b6000813590506124b781612491565b92915050565b600080604083850312156124d4576124d3611f6b565b5b60006124e2858286016121e2565b92505060206124f3858286016124a8565b9150509250929050565b600067ffffffffffffffff82111561251857612517612294565b5b612521826120aa565b9050602081019050919050565b600061254161253c846124fd565b6122f4565b90508281526020810184848401111561255d5761255c61228f565b5b612568848285612340565b509392505050565b600082601f8301126125855761258461228a565b5b813561259584826020860161252e565b91505092915050565b600080600080608085870312156125b8576125b7611f6b565b5b60006125c6878288016121e2565b94505060206125d7878288016121e2565b93505060406125e88782880161212d565b925050606085013567ffffffffffffffff81111561260957612608611f70565b5b61261587828801612570565b91505092959194509250565b6000806040838503121561263857612637611f6b565b5b6000612646858286016121e2565b9250506020612657858286016121e2565b9150509250929050565b7f4e487b7100000000000000000000000000000000000000000000000000000000600052602260045260246000fd5b600060028204905060018216806126a857607f821691505b6020821081036126bb576126ba612661565b5b50919050565b60006060820190506126d660008301866121a1565b6126e3602083018561203a565b6126f060408301846121a1565b949350505050565b600081905092915050565b600061270e82612064565b61271881856126f8565b9350612728818560208601612080565b80840191505092915050565b60006127408284612703565b915081905092915050565b7f4e465420616c7265616479206d696e7465642100000000000000000000000000600082015250565b600061278160138361206f565b915061278c8261274b565b602082019050919050565b600060208201905081810360008301526127b081612774565b9050919050565b7f4e487b7100000000000000000000000000000000000000000000000000000000600052601160045260246000fd5b60006127f182612030565b91507fffffffffffffffffffffffffffffffffffffffffffffffffffffffffffffffff8203612823576128226127b7565b5b600182019050919050565b7f4e65656420746f20706179207570210000000000000000000000000000000000600082015250565b6000612864600f8361206f565b915061286f8261282e565b602082019050919050565b6000602082019050818103600083015261289381612857565b9050919050565b60008190508160005260206000209050919050565b60006020601f8301049050919050565b600082821b905092915050565b6000600883026128fc7fffffffffffffffffffffffffffffffffffffffffffffffffffffffffffffffff826128bf565b61290686836128bf565b95508019841693508086168417925050509392505050565b6000819050919050565b600061294361293e61293984612030565b61291e565b612030565b9050919050565b6000819050919050565b61295d83612928565b6129716129698261294a565b8484546128cc565b825550505050565b600090565b612986612979565b612991818484612954565b505050565b5b818110156129b5576129aa60008261297e565b600181019050612997565b5050565b601f8211156129fa576129cb8161289a565b6129d4846128af565b810160208510156129e3578190505b6129f76129ef856128af565b830182612996565b50505b505050565b600082821c905092915050565b6000612a1d600019846008026129ff565b1980831691505092915050565b6000612a368383612a0c565b9150826002028217905092915050565b612a4f82612064565b67ffffffffffffffff811115612a6857612a67612294565b5b612a728254612690565b612a7d8282856129b9565b600060209050601f831160018114612ab05760008415612a9e578287015190505b612aa88582612a2a565b865550612b10565b601f198416612abe8661289a565b60005b82811015612ae657848901518255600182019150602085019450602081019050612ac1565b86831015612b035784890151612aff601f891682612a0c565b8355505b6001600288020188555050505b505050505050565b600081519050919050565b600082825260208201905092915050565b6000612b3f82612b18565b612b498185612b23565b9350612b59818560208601612080565b612b62816120aa565b840191505092915050565b6000608082019050612b8260008301876121a1565b612b8f60208301866121a1565b612b9c604083018561203a565b8181036060830152612bae8184612b34565b905095945050505050565b600081519050612bc881611fa1565b92915050565b600060208284031215612be457612be3611f6b565b5b6000612bf284828501612bb9565b91505092915050565b6000612c078285612703565b9150612c138284612703565b91508190509392505050565b6000604082019050612c3460008301856121a1565b612c41602083018461203a565b9392505050565b7f4e487b7100000000000000000000000000000000000000000000000000000000600052601260045260246000fdfea26469706673582212202a8d0dc163f4d992ee6841be9e002f5d9ebc750ab2ea7777a4a955dffb9e373764736f6c63430008180033",
  "linkReferences": {},
  "deployedLinkReferences": {}
}