{
  "_format": "hh-sol-artifact-1",
  "contractName": "CatNFT",
  "sourceName": "contracts/CatNFT.sol",
  "abi": [
    {
      "inputs": [
        {
          "internalType": "address",
          "name": "initialOwner",
          "type": "address"
        },
        {
          "internalType": "address",
          "name": "trustedForwarder",
          "type": "address"
        }
      ],
      "stateMutability": "nonpayable",
      "type": "constructor"
    },
    {
      "inputs": [
        {
          "internalType": "address",
          "name": "sender",
          "type": "address"
        },
        {
          "internalType": "uint256",
          "name": "tokenId",
          "type": "uint256"
        },
        {
          "internalType": "address",
          "name": "owner",
          "type": "address"
        }
      ],
      "name": "ERC721IncorrectOwner",
      "type": "error"
    },
    {
      "inputs": [
        {
          "internalType": "address",
          "name": "operator",
          "type": "address"
        },
        {
          "internalType": "uint256",
          "name": "tokenId",
          "type": "uint256"
        }
      ],
      "name": "ERC721InsufficientApproval",
      "type": "error"
    },
    {
      "inputs": [
        {
          "internalType": "address",
          "name": "approver",
          "type": "address"
        }
      ],
      "name": "ERC721InvalidApprover",
      "type": "error"
    },
    {
      "inputs": [
        {
          "internalType": "address",
          "name": "operator",
          "type": "address"
        }
      ],
      "name": "ERC721InvalidOperator",
      "type": "error"
    },
    {
      "inputs": [
        {
          "internalType": "address",
          "name": "owner",
          "type": "address"
        }
      ],
      "name": "ERC721InvalidOwner",
      "type": "error"
    },
    {
      "inputs": [
        {
          "internalType": "address",
          "name": "receiver",
          "type": "address"
        }
      ],
      "name": "ERC721InvalidReceiver",
      "type": "error"
    },
    {
      "inputs": [
        {
          "internalType": "address",
          "name": "sender",
          "type": "address"
        }
      ],
      "name": "ERC721InvalidSender",
      "type": "error"
    },
    {
      "inputs": [
        {
          "internalType": "uint256",
          "name": "tokenId",
          "type": "uint256"
        }
      ],
      "name": "ERC721NonexistentToken",
      "type": "error"
    },
    {
      "inputs": [
        {
          "internalType": "address",
          "name": "owner",
          "type": "address"
        }
      ],
      "name": "OwnableInvalidOwner",
      "type": "error"
    },
    {
      "inputs": [
        {
          "internalType": "address",
          "name": "account",
          "type": "address"
        }
      ],
      "name": "OwnableUnauthorizedAccount",
      "type": "error"
    },
    {
      "anonymous": false,
      "inputs": [
        {
          "indexed": true,
          "internalType": "address",
          "name": "owner",
          "type": "address"
        },
        {
          "indexed": true,
          "internalType": "address",
          "name": "approved",
          "type": "address"
        },
        {
          "indexed": true,
          "internalType": "uint256",
          "name": "tokenId",
          "type": "uint256"
        }
      ],
      "name": "Approval",
      "type": "event"
    },
    {
      "anonymous": false,
      "inputs": [
        {
          "indexed": true,
          "internalType": "address",
          "name": "owner",
          "type": "address"
        },
        {
          "indexed": true,
          "internalType": "address",
          "name": "operator",
          "type": "address"
        },
        {
          "indexed": false,
          "internalType": "bool",
          "name": "approved",
          "type": "bool"
        }
      ],
      "name": "ApprovalForAll",
      "type": "event"
    },
    {
      "anonymous": false,
      "inputs": [
        {
          "indexed": false,
          "internalType": "uint256",
          "name": "_fromTokenId",
          "type": "uint256"
        },
        {
          "indexed": false,
          "internalType": "uint256",
          "name": "_toTokenId",
          "type": "uint256"
        }
      ],
      "name": "BatchMetadataUpdate",
      "type": "event"
    },
    {
      "anonymous": false,
      "inputs": [
        {
          "indexed": false,
          "internalType": "uint256",
          "name": "_tokenId",
          "type": "uint256"
        }
      ],
      "name": "MetadataUpdate",
      "type": "event"
    },
    {
      "anonymous": false,
      "inputs": [
        {
          "indexed": true,
          "internalType": "address",
          "name": "previousOwner",
          "type": "address"
        },
        {
          "indexed": true,
          "internalType": "address",
          "name": "newOwner",
          "type": "address"
        }
      ],
      "name": "OwnershipTransferred",
      "type": "event"
    },
    {
      "anonymous": false,
      "inputs": [
        {
          "indexed": true,
          "internalType": "address",
          "name": "recipient",
          "type": "address"
        },
        {
          "indexed": false,
          "internalType": "uint256",
          "name": "amount",
          "type": "uint256"
        }
      ],
      "name": "TokensTrasfered",
      "type": "event"
    },
    {
      "anonymous": false,
      "inputs": [
        {
          "indexed": true,
          "internalType": "address",
          "name": "from",
          "type": "address"
        },
        {
          "indexed": true,
          "internalType": "address",
          "name": "to",
          "type": "address"
        },
        {
          "indexed": true,
          "internalType": "uint256",
          "name": "tokenId",
          "type": "uint256"
        }
      ],
      "name": "Transfer",
      "type": "event"
    },
    {
      "inputs": [
        {
          "internalType": "address",
          "name": "to",
          "type": "address"
        },
        {
          "internalType": "uint256",
          "name": "tokenId",
          "type": "uint256"
        }
      ],
      "name": "approve",
      "outputs": [],
      "stateMutability": "nonpayable",
      "type": "function"
    },
    {
      "inputs": [
        {
          "internalType": "address",
          "name": "owner",
          "type": "address"
        }
      ],
      "name": "balanceOf",
      "outputs": [
        {
          "internalType": "uint256",
          "name": "",
          "type": "uint256"
        }
      ],
      "stateMutability": "view",
      "type": "function"
    },
    {
      "inputs": [],
      "name": "count",
      "outputs": [
        {
          "internalType": "uint256",
          "name": "",
          "type": "uint256"
        }
      ],
      "stateMutability": "view",
      "type": "function"
    },
    {
      "inputs": [
        {
          "internalType": "uint256",
          "name": "tokenId",
          "type": "uint256"
        }
      ],
      "name": "getApproved",
      "outputs": [
        {
          "internalType": "address",
          "name": "",
          "type": "address"
        }
      ],
      "stateMutability": "view",
      "type": "function"
    },
    {
      "inputs": [
        {
          "internalType": "address",
          "name": "owner",
          "type": "address"
        },
        {
          "internalType": "address",
          "name": "operator",
          "type": "address"
        }
      ],
      "name": "isApprovedForAll",
      "outputs": [
        {
          "internalType": "bool",
          "name": "",
          "type": "bool"
        }
      ],
      "stateMutability": "view",
      "type": "function"
    },
    {
      "inputs": [
        {
          "internalType": "string",
          "name": "uri",
          "type": "string"
        }
      ],
      "name": "isContentOwned",
      "outputs": [
        {
          "internalType": "bool",
          "name": "",
          "type": "bool"
        }
      ],
      "stateMutability": "view",
      "type": "function"
    },
    {
      "inputs": [
        {
          "internalType": "address",
          "name": "forwarder",
          "type": "address"
        }
      ],
      "name": "isTrustedForwarder",
      "outputs": [
        {
          "internalType": "bool",
          "name": "",
          "type": "bool"
        }
      ],
      "stateMutability": "view",
      "type": "function"
    },
    {
      "inputs": [],
      "name": "name",
      "outputs": [
        {
          "internalType": "string",
          "name": "",
          "type": "string"
        }
      ],
      "stateMutability": "view",
      "type": "function"
    },
    {
      "inputs": [],
      "name": "owner",
      "outputs": [
        {
          "internalType": "address",
          "name": "",
          "type": "address"
        }
      ],
      "stateMutability": "view",
      "type": "function"
    },
    {
      "inputs": [
        {
          "internalType": "uint256",
          "name": "tokenId",
          "type": "uint256"
        }
      ],
      "name": "ownerOf",
      "outputs": [
        {
          "internalType": "address",
          "name": "",
          "type": "address"
        }
      ],
      "stateMutability": "view",
      "type": "function"
    },
    {
      "inputs": [
        {
          "internalType": "address",
          "name": "recipient",
          "type": "address"
        },
        {
          "internalType": "string",
          "name": "metadataURI",
          "type": "string"
        }
      ],
      "name": "payToMint",
      "outputs": [
        {
          "internalType": "uint256",
          "name": "",
          "type": "uint256"
        }
      ],
      "stateMutability": "payable",
      "type": "function"
    },
    {
      "inputs": [
        {
          "internalType": "string",
          "name": "metadataURI",
          "type": "string"
        }
      ],
      "name": "payToMintWithCatCoins",
      "outputs": [
        {
          "internalType": "uint256",
          "name": "",
          "type": "uint256"
        }
      ],
      "stateMutability": "nonpayable",
      "type": "function"
    },
    {
      "inputs": [],
      "name": "renounceOwnership",
      "outputs": [],
      "stateMutability": "nonpayable",
      "type": "function"
    },
    {
      "inputs": [
        {
          "internalType": "address",
          "name": "to",
          "type": "address"
        },
        {
          "internalType": "string",
          "name": "uri",
          "type": "string"
        }
      ],
      "name": "safeMint",
      "outputs": [],
      "stateMutability": "nonpayable",
      "type": "function"
    },
    {
      "inputs": [
        {
          "internalType": "address",
          "name": "from",
          "type": "address"
        },
        {
          "internalType": "address",
          "name": "to",
          "type": "address"
        },
        {
          "internalType": "uint256",
          "name": "tokenId",
          "type": "uint256"
        }
      ],
      "name": "safeTransferFrom",
      "outputs": [],
      "stateMutability": "nonpayable",
      "type": "function"
    },
    {
      "inputs": [
        {
          "internalType": "address",
          "name": "from",
          "type": "address"
        },
        {
          "internalType": "address",
          "name": "to",
          "type": "address"
        },
        {
          "internalType": "uint256",
          "name": "tokenId",
          "type": "uint256"
        },
        {
          "internalType": "bytes",
          "name": "data",
          "type": "bytes"
        }
      ],
      "name": "safeTransferFrom",
      "outputs": [],
      "stateMutability": "nonpayable",
      "type": "function"
    },
    {
      "inputs": [
        {
          "internalType": "address",
          "name": "operator",
          "type": "address"
        },
        {
          "internalType": "bool",
          "name": "approved",
          "type": "bool"
        }
      ],
      "name": "setApprovalForAll",
      "outputs": [],
      "stateMutability": "nonpayable",
      "type": "function"
    },
    {
      "inputs": [
        {
          "internalType": "bytes4",
          "name": "interfaceId",
          "type": "bytes4"
        }
      ],
      "name": "supportsInterface",
      "outputs": [
        {
          "internalType": "bool",
          "name": "",
          "type": "bool"
        }
      ],
      "stateMutability": "view",
      "type": "function"
    },
    {
      "inputs": [],
      "name": "symbol",
      "outputs": [
        {
          "internalType": "string",
          "name": "",
          "type": "string"
        }
      ],
      "stateMutability": "view",
      "type": "function"
    },
    {
      "inputs": [
        {
          "internalType": "uint256",
          "name": "tokenId",
          "type": "uint256"
        }
      ],
      "name": "tokenURI",
      "outputs": [
        {
          "internalType": "string",
          "name": "",
          "type": "string"
        }
      ],
      "stateMutability": "view",
      "type": "function"
    },
    {
      "inputs": [
        {
          "internalType": "address",
          "name": "from",
          "type": "address"
        },
        {
          "internalType": "address",
          "name": "to",
          "type": "address"
        },
        {
          "internalType": "uint256",
          "name": "tokenId",
          "type": "uint256"
        }
      ],
      "name": "transferFrom",
      "outputs": [],
      "stateMutability": "nonpayable",
      "type": "function"
    },
    {
      "inputs": [
        {
          "internalType": "address",
          "name": "newOwner",
          "type": "address"
        }
      ],
      "name": "transferOwnership",
      "outputs": [],
      "stateMutability": "nonpayable",
      "type": "function"
    },
    {
      "inputs": [
        {
          "internalType": "uint256",
          "name": "amount",
          "type": "uint256"
        }
      ],
      "name": "withdrawCat",
      "outputs": [],
      "stateMutability": "nonpayable",
      "type": "function"
    }
  ],
  "bytecode": "0x60a06040523480156200001157600080fd5b50604051620035f3380380620035f38339818101604052810190620000379190620002bf565b80826040518060400160405280600c81526020017f4361747374726f6e6175747300000000000000000000000000000000000000008152506040518060400160405280600481526020017f43555445000000000000000000000000000000000000000000000000000000008152508160009081620000b6919062000580565b508060019081620000c8919062000580565b505050600073ffffffffffffffffffffffffffffffffffffffff168173ffffffffffffffffffffffffffffffffffffffff1603620001405760006040517f1e4fbdf700000000000000000000000000000000000000000000000000000000815260040162000137919062000678565b60405180910390fd5b62000151816200018f60201b60201c565b508073ffffffffffffffffffffffffffffffffffffffff1660808173ffffffffffffffffffffffffffffffffffffffff168152505050505062000695565b6000600760009054906101000a900473ffffffffffffffffffffffffffffffffffffffff16905081600760006101000a81548173ffffffffffffffffffffffffffffffffffffffff021916908373ffffffffffffffffffffffffffffffffffffffff1602179055508173ffffffffffffffffffffffffffffffffffffffff168173ffffffffffffffffffffffffffffffffffffffff167f8be0079c531659141344cd1fd0a4f28419497f9722a3daafe3b4186f6b6457e060405160405180910390a35050565b600080fd5b600073ffffffffffffffffffffffffffffffffffffffff82169050919050565b600062000287826200025a565b9050919050565b62000299816200027a565b8114620002a557600080fd5b50565b600081519050620002b9816200028e565b92915050565b60008060408385031215620002d957620002d862000255565b5b6000620002e985828601620002a8565b9250506020620002fc85828601620002a8565b9150509250929050565b600081519050919050565b7f4e487b7100000000000000000000000000000000000000000000000000000000600052604160045260246000fd5b7f4e487b7100000000000000000000000000000000000000000000000000000000600052602260045260246000fd5b600060028204905060018216806200038857607f821691505b6020821081036200039e576200039d62000340565b5b50919050565b60008190508160005260206000209050919050565b60006020601f8301049050919050565b600082821b905092915050565b600060088302620004087fffffffffffffffffffffffffffffffffffffffffffffffffffffffffffffffff82620003c9565b620004148683620003c9565b95508019841693508086168417925050509392505050565b6000819050919050565b6000819050919050565b6000620004616200045b62000455846200042c565b62000436565b6200042c565b9050919050565b6000819050919050565b6200047d8362000440565b620004956200048c8262000468565b848454620003d6565b825550505050565b600090565b620004ac6200049d565b620004b981848462000472565b505050565b5b81811015620004e157620004d5600082620004a2565b600181019050620004bf565b5050565b601f8211156200053057620004fa81620003a4565b6200050584620003b9565b8101602085101562000515578190505b6200052d6200052485620003b9565b830182620004be565b50505b505050565b600082821c905092915050565b6000620005556000198460080262000535565b1980831691505092915050565b600062000570838362000542565b9150826002028217905092915050565b6200058b8262000306565b67ffffffffffffffff811115620005a757620005a662000311565b5b620005b382546200036f565b620005c0828285620004e5565b600060209050601f831160018114620005f85760008415620005e3578287015190505b620005ef858262000562565b8655506200065f565b601f1984166200060886620003a4565b60005b8281101562000632578489015182556001820191506020850194506020810190506200060b565b868310156200065257848901516200064e601f89168262000542565b8355505b6001600288020188555050505b505050505050565b62000672816200027a565b82525050565b60006020820190506200068f600083018462000667565b92915050565b608051612f42620006b160003960006108b10152612f426000f3fe6080604052600436106101405760003560e01c80636352211e116100b6578063a22cb4651161006f578063a22cb46514610487578063b88d4fde146104b0578063c87b56dd146104d9578063d204c45e14610516578063e985e9c51461053f578063f2fde38b1461057c57610140565b80636352211e1461036357806370a08231146103a0578063715018a6146103dd5780638da5cb5b146103f457806395d89b411461041f5780639f1cabc61461044a57610140565b806323b872dd1161010857806323b872dd1461023e5780633c7320511461026757806342842e0e146102a457806353d28244146102cd578063572b6c05146102f6578063615fd9e21461033357610140565b806301ffc9a71461014557806306661abd1461018257806306fdde03146101ad578063081812fc146101d8578063095ea7b314610215575b600080fd5b34801561015157600080fd5b5061016c60048036038101906101679190612262565b6105a5565b60405161017991906122aa565b60405180910390f35b34801561018e57600080fd5b506101976105b7565b6040516101a491906122de565b60405180910390f35b3480156101b957600080fd5b506101c26105c1565b6040516101cf9190612389565b60405180910390f35b3480156101e457600080fd5b506101ff60048036038101906101fa91906123d7565b610653565b60405161020c9190612445565b60405180910390f35b34801561022157600080fd5b5061023c6004803603810190610237919061248c565b61066f565b005b34801561024a57600080fd5b50610265600480360381019061026091906124cc565b610685565b005b34801561027357600080fd5b5061028e60048036038101906102899190612654565b610787565b60405161029b91906122de565b60405180910390f35b3480156102b057600080fd5b506102cb60048036038101906102c691906124cc565b610877565b005b3480156102d957600080fd5b506102f460048036038101906102ef91906123d7565b610897565b005b34801561030257600080fd5b5061031d6004803603810190610318919061269d565b6108ad565b60405161032a91906122aa565b60405180910390f35b61034d600480360381019061034891906126ca565b610905565b60405161035a91906122de565b60405180910390f35b34801561036f57600080fd5b5061038a600480360381019061038591906123d7565b610a33565b6040516103979190612445565b60405180910390f35b3480156103ac57600080fd5b506103c760048036038101906103c2919061269d565b610a45565b6040516103d491906122de565b60405180910390f35b3480156103e957600080fd5b506103f2610aff565b005b34801561040057600080fd5b50610409610b13565b6040516104169190612445565b60405180910390f35b34801561042b57600080fd5b50610434610b3d565b6040516104419190612389565b60405180910390f35b34801561045657600080fd5b50610471600480360381019061046c9190612654565b610bcf565b60405161047e91906122aa565b60405180910390f35b34801561049357600080fd5b506104ae60048036038101906104a99190612752565b610c0a565b005b3480156104bc57600080fd5b506104d760048036038101906104d29190612833565b610c20565b005b3480156104e557600080fd5b5061050060048036038101906104fb91906123d7565b610c3d565b60405161050d9190612389565b60405180910390f35b34801561052257600080fd5b5061053d600480360381019061053891906126ca565b610c4f565b005b34801561054b57600080fd5b50610566600480360381019061056191906128b6565b610d34565b60405161057391906122aa565b60405180910390f35b34801561058857600080fd5b506105a3600480360381019061059e919061269d565b610dc8565b005b60006105b082610e4e565b9050919050565b6000600854905090565b6060600080546105d090612925565b80601f01602080910402602001604051908101604052809291908181526020018280546105fc90612925565b80156106495780601f1061061e57610100808354040283529160200191610649565b820191906000526020600020905b81548152906001019060200180831161062c57829003601f168201915b5050505050905090565b600061065e82610eaf565b5061066882610f37565b9050919050565b610681828261067c610f74565b610f83565b5050565b600073ffffffffffffffffffffffffffffffffffffffff168273ffffffffffffffffffffffffffffffffffffffff16036106f75760006040517f64a0ae920000000000000000000000000000000000000000000000000000000081526004016106ee9190612445565b60405180910390fd5b600061070b8383610706610f74565b610f95565b90508373ffffffffffffffffffffffffffffffffffffffff168173ffffffffffffffffffffffffffffffffffffffff1614610781578382826040517f64283d7b00000000000000000000000000000000000000000000000000000000815260040161077893929190612956565b60405180910390fd5b50505050565b6000600160098360405161079b91906129c9565b908152602001604051809103902060009054906101000a900460ff1660ff16036107fa576040517f08c379a00000000000000000000000000000000000000000000000000000000081526004016107f190612a2c565b60405180910390fd5b60006008600081548092919061080f90612a7b565b919050559050600160098460405161082791906129c9565b908152602001604051809103902060006101000a81548160ff021916908360ff1602179055506000610857610f74565b905061086381836111af565b61086d82856111cd565b8192505050919050565b61089283838360405180602001604052806000815250610c20565b505050565b61089f611229565b6108aa3033836112b0565b50565b60007f000000000000000000000000000000000000000000000000000000000000000073ffffffffffffffffffffffffffffffffffffffff168273ffffffffffffffffffffffffffffffffffffffff16149050919050565b6000600160098360405161091991906129c9565b908152602001604051809103902060009054906101000a900460ff1660ff1603610978576040517f08c379a000000000000000000000000000000000000000000000000000000000815260040161096f90612a2c565b60405180910390fd5b66b1a2bc2ec500003410156109c2576040517f08c379a00000000000000000000000000000000000000000000000000000000081526004016109b990612b0f565b60405180910390fd5b6000600860008154809291906109d790612a7b565b91905055905060016009846040516109ef91906129c9565b908152602001604051809103902060006101000a81548160ff021916908360ff160217905550610a1f84826111af565b610a2981846111cd565b8091505092915050565b6000610a3e82610eaf565b9050919050565b60008073ffffffffffffffffffffffffffffffffffffffff168273ffffffffffffffffffffffffffffffffffffffff1603610ab85760006040517f89c62b64000000000000000000000000000000000000000000000000000000008152600401610aaf9190612445565b60405180910390fd5b600360008373ffffffffffffffffffffffffffffffffffffffff1673ffffffffffffffffffffffffffffffffffffffff168152602001908152602001600020549050919050565b610b07611229565b610b11600061141d565b565b6000600760009054906101000a900473ffffffffffffffffffffffffffffffffffffffff16905090565b606060018054610b4c90612925565b80601f0160208091040260200160405190810160405280929190818152602001828054610b7890612925565b8015610bc55780601f10610b9a57610100808354040283529160200191610bc5565b820191906000526020600020905b815481529060010190602001808311610ba857829003601f168201915b5050505050905090565b60006001600983604051610be391906129c9565b908152602001604051809103902060009054906101000a900460ff1660ff16149050919050565b610c1c610c15610f74565b83836114e3565b5050565b610c2b848484610685565b610c3784848484611652565b50505050565b6060610c4882611809565b9050919050565b610c57611229565b6001600982604051610c6991906129c9565b908152602001604051809103902060009054906101000a900460ff1660ff1603610cc8576040517f08c379a0000000000000000000000000000000000000000000000000000000008152600401610cbf90612a2c565b60405180910390fd5b600060086000815480929190610cdd90612a7b565b919050559050610ced83826111af565b610cf781836111cd565b6001600983604051610d0991906129c9565b908152602001604051809103902060006101000a81548160ff021916908360ff160217905550505050565b6000600560008473ffffffffffffffffffffffffffffffffffffffff1673ffffffffffffffffffffffffffffffffffffffff16815260200190815260200160002060008373ffffffffffffffffffffffffffffffffffffffff1673ffffffffffffffffffffffffffffffffffffffff16815260200190815260200160002060009054906101000a900460ff16905092915050565b610dd0611229565b600073ffffffffffffffffffffffffffffffffffffffff168173ffffffffffffffffffffffffffffffffffffffff1603610e425760006040517f1e4fbdf7000000000000000000000000000000000000000000000000000000008152600401610e399190612445565b60405180910390fd5b610e4b8161141d565b50565b6000634906490660e01b7bffffffffffffffffffffffffffffffffffffffffffffffffffffffff1916827bffffffffffffffffffffffffffffffffffffffffffffffffffffffff19161480610ea85750610ea78261191c565b5b9050919050565b600080610ebb836119fe565b9050600073ffffffffffffffffffffffffffffffffffffffff168173ffffffffffffffffffffffffffffffffffffffff1603610f2e57826040517f7e273289000000000000000000000000000000000000000000000000000000008152600401610f2591906122de565b60405180910390fd5b80915050919050565b60006004600083815260200190815260200160002060009054906101000a900473ffffffffffffffffffffffffffffffffffffffff169050919050565b6000610f7e611a3b565b905090565b610f908383836001611a66565b505050565b600080610fa1846119fe565b9050600073ffffffffffffffffffffffffffffffffffffffff168373ffffffffffffffffffffffffffffffffffffffff1614610fe357610fe2818486611c2b565b5b600073ffffffffffffffffffffffffffffffffffffffff168173ffffffffffffffffffffffffffffffffffffffff161461107457611025600085600080611a66565b6001600360008373ffffffffffffffffffffffffffffffffffffffff1673ffffffffffffffffffffffffffffffffffffffff168152602001908152602001600020600082825403925050819055505b600073ffffffffffffffffffffffffffffffffffffffff168573ffffffffffffffffffffffffffffffffffffffff16146110f7576001600360008773ffffffffffffffffffffffffffffffffffffffff1673ffffffffffffffffffffffffffffffffffffffff168152602001908152602001600020600082825401925050819055505b846002600086815260200190815260200160002060006101000a81548173ffffffffffffffffffffffffffffffffffffffff021916908373ffffffffffffffffffffffffffffffffffffffff160217905550838573ffffffffffffffffffffffffffffffffffffffff168273ffffffffffffffffffffffffffffffffffffffff167fddf252ad1be2c89b69c2b068fc378daa952ba7f163c4a11628f55a4df523b3ef60405160405180910390a4809150509392505050565b6111c9828260405180602001604052806000815250611cef565b5050565b806006600084815260200190815260200160002090816111ed9190612cdb565b507ff8e1a15aba9398e019f0b49df1a4fde98ee17ae345cb5f6b5e2c27f5033e8ce78260405161121d91906122de565b60405180910390a15050565b611231610f74565b73ffffffffffffffffffffffffffffffffffffffff1661124f610b13565b73ffffffffffffffffffffffffffffffffffffffff16146112ae57611272610f74565b6040517f118cdaa70000000000000000000000000000000000000000000000000000000081526004016112a59190612445565b60405180910390fd5b565b600073ffffffffffffffffffffffffffffffffffffffff168273ffffffffffffffffffffffffffffffffffffffff16036113225760006040517f64a0ae920000000000000000000000000000000000000000000000000000000081526004016113199190612445565b60405180910390fd5b600061133083836000610f95565b9050600073ffffffffffffffffffffffffffffffffffffffff168173ffffffffffffffffffffffffffffffffffffffff16036113a357816040517f7e27328900000000000000000000000000000000000000000000000000000000815260040161139a91906122de565b60405180910390fd5b8373ffffffffffffffffffffffffffffffffffffffff168173ffffffffffffffffffffffffffffffffffffffff1614611417578382826040517f64283d7b00000000000000000000000000000000000000000000000000000000815260040161140e93929190612956565b60405180910390fd5b50505050565b6000600760009054906101000a900473ffffffffffffffffffffffffffffffffffffffff16905081600760006101000a81548173ffffffffffffffffffffffffffffffffffffffff021916908373ffffffffffffffffffffffffffffffffffffffff1602179055508173ffffffffffffffffffffffffffffffffffffffff168173ffffffffffffffffffffffffffffffffffffffff167f8be0079c531659141344cd1fd0a4f28419497f9722a3daafe3b4186f6b6457e060405160405180910390a35050565b600073ffffffffffffffffffffffffffffffffffffffff168273ffffffffffffffffffffffffffffffffffffffff160361155457816040517f5b08ba1800000000000000000000000000000000000000000000000000000000815260040161154b9190612445565b60405180910390fd5b80600560008573ffffffffffffffffffffffffffffffffffffffff1673ffffffffffffffffffffffffffffffffffffffff16815260200190815260200160002060008473ffffffffffffffffffffffffffffffffffffffff1673ffffffffffffffffffffffffffffffffffffffff16815260200190815260200160002060006101000a81548160ff0219169083151502179055508173ffffffffffffffffffffffffffffffffffffffff168373ffffffffffffffffffffffffffffffffffffffff167f17307eab39ab6107e8899845ad3d59bd9653f200f220920489ca2b5937696c318360405161164591906122aa565b60405180910390a3505050565b60008373ffffffffffffffffffffffffffffffffffffffff163b1115611803578273ffffffffffffffffffffffffffffffffffffffff1663150b7a02611696610f74565b8685856040518563ffffffff1660e01b81526004016116b89493929190612e02565b6020604051808303816000875af19250505080156116f457506040513d601f19601f820116820180604052508101906116f19190612e63565b60015b611778573d8060008114611724576040519150601f19603f3d011682016040523d82523d6000602084013e611729565b606091505b50600081510361177057836040517f64a0ae920000000000000000000000000000000000000000000000000000000081526004016117679190612445565b60405180910390fd5b805181602001fd5b63150b7a0260e01b7bffffffffffffffffffffffffffffffffffffffffffffffffffffffff1916817bffffffffffffffffffffffffffffffffffffffffffffffffffffffff19161461180157836040517f64a0ae920000000000000000000000000000000000000000000000000000000081526004016117f89190612445565b60405180910390fd5b505b50505050565b606061181482610eaf565b50600060066000848152602001908152602001600020805461183590612925565b80601f016020809104026020016040519081016040528092919081815260200182805461186190612925565b80156118ae5780601f10611883576101008083540402835291602001916118ae565b820191906000526020600020905b81548152906001019060200180831161189157829003601f168201915b5050505050905060006118bf611d0b565b905060008151036118d4578192505050611917565b6000825111156119095780826040516020016118f1929190612e90565b60405160208183030381529060405292505050611917565b61191284611d48565b925050505b919050565b60007f80ac58cd000000000000000000000000000000000000000000000000000000007bffffffffffffffffffffffffffffffffffffffffffffffffffffffff1916827bffffffffffffffffffffffffffffffffffffffffffffffffffffffff191614806119e757507f5b5e139f000000000000000000000000000000000000000000000000000000007bffffffffffffffffffffffffffffffffffffffffffffffffffffffff1916827bffffffffffffffffffffffffffffffffffffffffffffffffffffffff1916145b806119f757506119f682611db1565b5b9050919050565b60006002600083815260200190815260200160002060009054906101000a900473ffffffffffffffffffffffffffffffffffffffff169050919050565b6000611a46336108ad565b15611a5a57601436033560601c9050611a62565b339050611a63565b5b90565b8080611a9f5750600073ffffffffffffffffffffffffffffffffffffffff168273ffffffffffffffffffffffffffffffffffffffff1614155b15611bd3576000611aaf84610eaf565b9050600073ffffffffffffffffffffffffffffffffffffffff168373ffffffffffffffffffffffffffffffffffffffff1614158015611b1a57508273ffffffffffffffffffffffffffffffffffffffff168173ffffffffffffffffffffffffffffffffffffffff1614155b8015611b2d5750611b2b8184610d34565b155b15611b6f57826040517fa9fbf51f000000000000000000000000000000000000000000000000000000008152600401611b669190612445565b60405180910390fd5b8115611bd157838573ffffffffffffffffffffffffffffffffffffffff168273ffffffffffffffffffffffffffffffffffffffff167f8c5be1e5ebec7d5bd14f71427d1e84f3dd0314c0f7b2291e5b200ac8c7c3b92560405160405180910390a45b505b836004600085815260200190815260200160002060006101000a81548173ffffffffffffffffffffffffffffffffffffffff021916908373ffffffffffffffffffffffffffffffffffffffff16021790555050505050565b611c36838383611e1b565b611cea57600073ffffffffffffffffffffffffffffffffffffffff168373ffffffffffffffffffffffffffffffffffffffff1603611cab57806040517f7e273289000000000000000000000000000000000000000000000000000000008152600401611ca291906122de565b60405180910390fd5b81816040517f177e802f000000000000000000000000000000000000000000000000000000008152600401611ce1929190612eb4565b60405180910390fd5b505050565b611cf98383611edc565b611d066000848484611652565b505050565b60606040518060400160405280600781526020017f697066733a2f2f00000000000000000000000000000000000000000000000000815250905090565b6060611d5382610eaf565b506000611d5e611d0b565b90506000815111611d7e5760405180602001604052806000815250611da9565b80611d8884611fd5565b604051602001611d99929190612e90565b6040516020818303038152906040525b915050919050565b60007f01ffc9a7000000000000000000000000000000000000000000000000000000007bffffffffffffffffffffffffffffffffffffffffffffffffffffffff1916827bffffffffffffffffffffffffffffffffffffffffffffffffffffffff1916149050919050565b60008073ffffffffffffffffffffffffffffffffffffffff168373ffffffffffffffffffffffffffffffffffffffff1614158015611ed357508273ffffffffffffffffffffffffffffffffffffffff168473ffffffffffffffffffffffffffffffffffffffff161480611e945750611e938484610d34565b5b80611ed257508273ffffffffffffffffffffffffffffffffffffffff16611eba83610f37565b73ffffffffffffffffffffffffffffffffffffffff16145b5b90509392505050565b600073ffffffffffffffffffffffffffffffffffffffff168273ffffffffffffffffffffffffffffffffffffffff1603611f4e5760006040517f64a0ae92000000000000000000000000000000000000000000000000000000008152600401611f459190612445565b60405180910390fd5b6000611f5c83836000610f95565b9050600073ffffffffffffffffffffffffffffffffffffffff168173ffffffffffffffffffffffffffffffffffffffff1614611fd05760006040517f73c6ac6e000000000000000000000000000000000000000000000000000000008152600401611fc79190612445565b60405180910390fd5b505050565b606060006001611fe4846120a3565b01905060008167ffffffffffffffff81111561200357612002612529565b5b6040519080825280601f01601f1916602001820160405280156120355781602001600182028036833780820191505090505b509050600082602001820190505b600115612098578080600190039150507f3031323334353637383961626364656600000000000000000000000000000000600a86061a8153600a858161208c5761208b612edd565b5b04945060008503612043575b819350505050919050565b600080600090507a184f03e93ff9f4daa797ed6e38ed64bf6a1f0100000000000000008310612101577a184f03e93ff9f4daa797ed6e38ed64bf6a1f01000000000000000083816120f7576120f6612edd565b5b0492506040810190505b6d04ee2d6d415b85acef8100000000831061213e576d04ee2d6d415b85acef8100000000838161213457612133612edd565b5b0492506020810190505b662386f26fc10000831061216d57662386f26fc10000838161216357612162612edd565b5b0492506010810190505b6305f5e1008310612196576305f5e100838161218c5761218b612edd565b5b0492506008810190505b61271083106121bb5761271083816121b1576121b0612edd565b5b0492506004810190505b606483106121de57606483816121d4576121d3612edd565b5b0492506002810190505b600a83106121ed576001810190505b80915050919050565b6000604051905090565b600080fd5b600080fd5b60007fffffffff0000000000000000000000000000000000000000000000000000000082169050919050565b61223f8161220a565b811461224a57600080fd5b50565b60008135905061225c81612236565b92915050565b60006020828403121561227857612277612200565b5b60006122868482850161224d565b91505092915050565b60008115159050919050565b6122a48161228f565b82525050565b60006020820190506122bf600083018461229b565b92915050565b6000819050919050565b6122d8816122c5565b82525050565b60006020820190506122f360008301846122cf565b92915050565b600081519050919050565b600082825260208201905092915050565b60005b83811015612333578082015181840152602081019050612318565b60008484015250505050565b6000601f19601f8301169050919050565b600061235b826122f9565b6123658185612304565b9350612375818560208601612315565b61237e8161233f565b840191505092915050565b600060208201905081810360008301526123a38184612350565b905092915050565b6123b4816122c5565b81146123bf57600080fd5b50565b6000813590506123d1816123ab565b92915050565b6000602082840312156123ed576123ec612200565b5b60006123fb848285016123c2565b91505092915050565b600073ffffffffffffffffffffffffffffffffffffffff82169050919050565b600061242f82612404565b9050919050565b61243f81612424565b82525050565b600060208201905061245a6000830184612436565b92915050565b61246981612424565b811461247457600080fd5b50565b60008135905061248681612460565b92915050565b600080604083850312156124a3576124a2612200565b5b60006124b185828601612477565b92505060206124c2858286016123c2565b9150509250929050565b6000806000606084860312156124e5576124e4612200565b5b60006124f386828701612477565b935050602061250486828701612477565b9250506040612515868287016123c2565b9150509250925092565b600080fd5b600080fd5b7f4e487b7100000000000000000000000000000000000000000000000000000000600052604160045260246000fd5b6125618261233f565b810181811067ffffffffffffffff821117156125805761257f612529565b5b80604052505050565b60006125936121f6565b905061259f8282612558565b919050565b600067ffffffffffffffff8211156125bf576125be612529565b5b6125c88261233f565b9050602081019050919050565b82818337600083830152505050565b60006125f76125f2846125a4565b612589565b90508281526020810184848401111561261357612612612524565b5b61261e8482856125d5565b509392505050565b600082601f83011261263b5761263a61251f565b5b813561264b8482602086016125e4565b91505092915050565b60006020828403121561266a57612669612200565b5b600082013567ffffffffffffffff81111561268857612687612205565b5b61269484828501612626565b91505092915050565b6000602082840312156126b3576126b2612200565b5b60006126c184828501612477565b91505092915050565b600080604083850312156126e1576126e0612200565b5b60006126ef85828601612477565b925050602083013567ffffffffffffffff8111156127105761270f612205565b5b61271c85828601612626565b9150509250929050565b61272f8161228f565b811461273a57600080fd5b50565b60008135905061274c81612726565b92915050565b6000806040838503121561276957612768612200565b5b600061277785828601612477565b92505060206127888582860161273d565b9150509250929050565b600067ffffffffffffffff8211156127ad576127ac612529565b5b6127b68261233f565b9050602081019050919050565b60006127d66127d184612792565b612589565b9050828152602081018484840111156127f2576127f1612524565b5b6127fd8482856125d5565b509392505050565b600082601f83011261281a5761281961251f565b5b813561282a8482602086016127c3565b91505092915050565b6000806000806080858703121561284d5761284c612200565b5b600061285b87828801612477565b945050602061286c87828801612477565b935050604061287d878288016123c2565b925050606085013567ffffffffffffffff81111561289e5761289d612205565b5b6128aa87828801612805565b91505092959194509250565b600080604083850312156128cd576128cc612200565b5b60006128db85828601612477565b92505060206128ec85828601612477565b9150509250929050565b7f4e487b7100000000000000000000000000000000000000000000000000000000600052602260045260246000fd5b6000600282049050600182168061293d57607f821691505b6020821081036129505761294f6128f6565b5b50919050565b600060608201905061296b6000830186612436565b61297860208301856122cf565b6129856040830184612436565b949350505050565b600081905092915050565b60006129a3826122f9565b6129ad818561298d565b93506129bd818560208601612315565b80840191505092915050565b60006129d58284612998565b915081905092915050565b7f4e465420616c7265616479206d696e7465642100000000000000000000000000600082015250565b6000612a16601383612304565b9150612a21826129e0565b602082019050919050565b60006020820190508181036000830152612a4581612a09565b9050919050565b7f4e487b7100000000000000000000000000000000000000000000000000000000600052601160045260246000fd5b6000612a86826122c5565b91507fffffffffffffffffffffffffffffffffffffffffffffffffffffffffffffffff8203612ab857612ab7612a4c565b5b600182019050919050565b7f4e65656420746f20706179207570210000000000000000000000000000000000600082015250565b6000612af9600f83612304565b9150612b0482612ac3565b602082019050919050565b60006020820190508181036000830152612b2881612aec565b9050919050565b60008190508160005260206000209050919050565b60006020601f8301049050919050565b600082821b905092915050565b600060088302612b917fffffffffffffffffffffffffffffffffffffffffffffffffffffffffffffffff82612b54565b612b9b8683612b54565b95508019841693508086168417925050509392505050565b6000819050919050565b6000612bd8612bd3612bce846122c5565b612bb3565b6122c5565b9050919050565b6000819050919050565b612bf283612bbd565b612c06612bfe82612bdf565b848454612b61565b825550505050565b600090565b612c1b612c0e565b612c26818484612be9565b505050565b5b81811015612c4a57612c3f600082612c13565b600181019050612c2c565b5050565b601f821115612c8f57612c6081612b2f565b612c6984612b44565b81016020851015612c78578190505b612c8c612c8485612b44565b830182612c2b565b50505b505050565b600082821c905092915050565b6000612cb260001984600802612c94565b1980831691505092915050565b6000612ccb8383612ca1565b9150826002028217905092915050565b612ce4826122f9565b67ffffffffffffffff811115612cfd57612cfc612529565b5b612d078254612925565b612d12828285612c4e565b600060209050601f831160018114612d455760008415612d33578287015190505b612d3d8582612cbf565b865550612da5565b601f198416612d5386612b2f565b60005b82811015612d7b57848901518255600182019150602085019450602081019050612d56565b86831015612d985784890151612d94601f891682612ca1565b8355505b6001600288020188555050505b505050505050565b600081519050919050565b600082825260208201905092915050565b6000612dd482612dad565b612dde8185612db8565b9350612dee818560208601612315565b612df78161233f565b840191505092915050565b6000608082019050612e176000830187612436565b612e246020830186612436565b612e3160408301856122cf565b8181036060830152612e438184612dc9565b905095945050505050565b600081519050612e5d81612236565b92915050565b600060208284031215612e7957612e78612200565b5b6000612e8784828501612e4e565b91505092915050565b6000612e9c8285612998565b9150612ea88284612998565b91508190509392505050565b6000604082019050612ec96000830185612436565b612ed660208301846122cf565b9392505050565b7f4e487b7100000000000000000000000000000000000000000000000000000000600052601260045260246000fdfea26469706673582212206e63c0d341c6e804f76e535307ea1b2d80daf7582b786a021aba188bc0b3670e64736f6c63430008180033",
  "linkReferences": {},
  "deployedLinkReferences": {}
}