{
    "_format": "hh-sol-artifact-1",
    "contractName": "CatNFT",
    "sourceName": "contracts/CatNFT.sol",
    "abi": [
        {
            "inputs": [
                {
                    "internalType": "address",
                    "name": "initialOwner",
                    "type": "address"
                }
            ],
            "stateMutability": "nonpayable",
            "type": "constructor"
        },
        {
            "inputs": [
                {
                    "internalType": "address",
                    "name": "sender",
                    "type": "address"
                },
                {
                    "internalType": "uint256",
                    "name": "tokenId",
                    "type": "uint256"
                },
                {
                    "internalType": "address",
                    "name": "owner",
                    "type": "address"
                }
            ],
            "name": "ERC721IncorrectOwner",
            "type": "error"
        },
        {
            "inputs": [
                {
                    "internalType": "address",
                    "name": "operator",
                    "type": "address"
                },
                {
                    "internalType": "uint256",
                    "name": "tokenId",
                    "type": "uint256"
                }
            ],
            "name": "ERC721InsufficientApproval",
            "type": "error"
        },
        {
            "inputs": [
                {
                    "internalType": "address",
                    "name": "approver",
                    "type": "address"
                }
            ],
            "name": "ERC721InvalidApprover",
            "type": "error"
        },
        {
            "inputs": [
                {
                    "internalType": "address",
                    "name": "operator",
                    "type": "address"
                }
            ],
            "name": "ERC721InvalidOperator",
            "type": "error"
        },
        {
            "inputs": [
                {
                    "internalType": "address",
                    "name": "owner",
                    "type": "address"
                }
            ],
            "name": "ERC721InvalidOwner",
            "type": "error"
        },
        {
            "inputs": [
                {
                    "internalType": "address",
                    "name": "receiver",
                    "type": "address"
                }
            ],
            "name": "ERC721InvalidReceiver",
            "type": "error"
        },
        {
            "inputs": [
                {
                    "internalType": "address",
                    "name": "sender",
                    "type": "address"
                }
            ],
            "name": "ERC721InvalidSender",
            "type": "error"
        },
        {
            "inputs": [
                {
                    "internalType": "uint256",
                    "name": "tokenId",
                    "type": "uint256"
                }
            ],
            "name": "ERC721NonexistentToken",
            "type": "error"
        },
        {
            "inputs": [
                {
                    "internalType": "address",
                    "name": "owner",
                    "type": "address"
                }
            ],
            "name": "OwnableInvalidOwner",
            "type": "error"
        },
        {
            "inputs": [
                {
                    "internalType": "address",
                    "name": "account",
                    "type": "address"
                }
            ],
            "name": "OwnableUnauthorizedAccount",
            "type": "error"
        },
        {
            "anonymous": false,
            "inputs": [
                {
                    "indexed": true,
                    "internalType": "address",
                    "name": "owner",
                    "type": "address"
                },
                {
                    "indexed": true,
                    "internalType": "address",
                    "name": "approved",
                    "type": "address"
                },
                {
                    "indexed": true,
                    "internalType": "uint256",
                    "name": "tokenId",
                    "type": "uint256"
                }
            ],
            "name": "Approval",
            "type": "event"
        },
        {
            "anonymous": false,
            "inputs": [
                {
                    "indexed": true,
                    "internalType": "address",
                    "name": "owner",
                    "type": "address"
                },
                {
                    "indexed": true,
                    "internalType": "address",
                    "name": "operator",
                    "type": "address"
                },
                {
                    "indexed": false,
                    "internalType": "bool",
                    "name": "approved",
                    "type": "bool"
                }
            ],
            "name": "ApprovalForAll",
            "type": "event"
        },
        {
            "anonymous": false,
            "inputs": [
                {
                    "indexed": false,
                    "internalType": "uint256",
                    "name": "_fromTokenId",
                    "type": "uint256"
                },
                {
                    "indexed": false,
                    "internalType": "uint256",
                    "name": "_toTokenId",
                    "type": "uint256"
                }
            ],
            "name": "BatchMetadataUpdate",
            "type": "event"
        },
        {
            "anonymous": false,
            "inputs": [
                {
                    "indexed": false,
                    "internalType": "uint256",
                    "name": "_tokenId",
                    "type": "uint256"
                }
            ],
            "name": "MetadataUpdate",
            "type": "event"
        },
        {
            "anonymous": false,
            "inputs": [
                {
                    "indexed": true,
                    "internalType": "address",
                    "name": "previousOwner",
                    "type": "address"
                },
                {
                    "indexed": true,
                    "internalType": "address",
                    "name": "newOwner",
                    "type": "address"
                }
            ],
            "name": "OwnershipTransferred",
            "type": "event"
        },
        {
            "anonymous": false,
            "inputs": [
                {
                    "indexed": true,
                    "internalType": "address",
                    "name": "from",
                    "type": "address"
                },
                {
                    "indexed": true,
                    "internalType": "address",
                    "name": "to",
                    "type": "address"
                },
                {
                    "indexed": true,
                    "internalType": "uint256",
                    "name": "tokenId",
                    "type": "uint256"
                }
            ],
            "name": "Transfer",
            "type": "event"
        },
        {
            "inputs": [
                {
                    "internalType": "address",
                    "name": "to",
                    "type": "address"
                },
                {
                    "internalType": "uint256",
                    "name": "tokenId",
                    "type": "uint256"
                }
            ],
            "name": "approve",
            "outputs": [],
            "stateMutability": "nonpayable",
            "type": "function"
        },
        {
            "inputs": [
                {
                    "internalType": "address",
                    "name": "owner",
                    "type": "address"
                }
            ],
            "name": "balanceOf",
            "outputs": [
                {
                    "internalType": "uint256",
                    "name": "",
                    "type": "uint256"
                }
            ],
            "stateMutability": "view",
            "type": "function"
        },
        {
            "inputs": [],
            "name": "count",
            "outputs": [
                {
                    "internalType": "uint256",
                    "name": "",
                    "type": "uint256"
                }
            ],
            "stateMutability": "view",
            "type": "function"
        },
        {
            "inputs": [
                {
                    "internalType": "uint256",
                    "name": "tokenId",
                    "type": "uint256"
                }
            ],
            "name": "getApproved",
            "outputs": [
                {
                    "internalType": "address",
                    "name": "",
                    "type": "address"
                }
            ],
            "stateMutability": "view",
            "type": "function"
        },
        {
            "inputs": [
                {
                    "internalType": "address",
                    "name": "owner",
                    "type": "address"
                },
                {
                    "internalType": "address",
                    "name": "operator",
                    "type": "address"
                }
            ],
            "name": "isApprovedForAll",
            "outputs": [
                {
                    "internalType": "bool",
                    "name": "",
                    "type": "bool"
                }
            ],
            "stateMutability": "view",
            "type": "function"
        },
        {
            "inputs": [
                {
                    "internalType": "string",
                    "name": "uri",
                    "type": "string"
                }
            ],
            "name": "isContentOwned",
            "outputs": [
                {
                    "internalType": "bool",
                    "name": "",
                    "type": "bool"
                }
            ],
            "stateMutability": "view",
            "type": "function"
        },
        {
            "inputs": [],
            "name": "name",
            "outputs": [
                {
                    "internalType": "string",
                    "name": "",
                    "type": "string"
                }
            ],
            "stateMutability": "view",
            "type": "function"
        },
        {
            "inputs": [],
            "name": "owner",
            "outputs": [
                {
                    "internalType": "address",
                    "name": "",
                    "type": "address"
                }
            ],
            "stateMutability": "view",
            "type": "function"
        },
        {
            "inputs": [
                {
                    "internalType": "uint256",
                    "name": "tokenId",
                    "type": "uint256"
                }
            ],
            "name": "ownerOf",
            "outputs": [
                {
                    "internalType": "address",
                    "name": "",
                    "type": "address"
                }
            ],
            "stateMutability": "view",
            "type": "function"
        },
        {
            "inputs": [
                {
                    "internalType": "address",
                    "name": "recipient",
                    "type": "address"
                },
                {
                    "internalType": "string",
                    "name": "metadataURI",
                    "type": "string"
                }
            ],
            "name": "payToMint",
            "outputs": [
                {
                    "internalType": "uint256",
                    "name": "",
                    "type": "uint256"
                }
            ],
            "stateMutability": "payable",
            "type": "function"
        },
        {
            "inputs": [],
            "name": "renounceOwnership",
            "outputs": [],
            "stateMutability": "nonpayable",
            "type": "function"
        },
        {
            "inputs": [
                {
                    "internalType": "address",
                    "name": "to",
                    "type": "address"
                },
                {
                    "internalType": "string",
                    "name": "uri",
                    "type": "string"
                }
            ],
            "name": "safeMint",
            "outputs": [],
            "stateMutability": "nonpayable",
            "type": "function"
        },
        {
            "inputs": [
                {
                    "internalType": "address",
                    "name": "from",
                    "type": "address"
                },
                {
                    "internalType": "address",
                    "name": "to",
                    "type": "address"
                },
                {
                    "internalType": "uint256",
                    "name": "tokenId",
                    "type": "uint256"
                }
            ],
            "name": "safeTransferFrom",
            "outputs": [],
            "stateMutability": "nonpayable",
            "type": "function"
        },
        {
            "inputs": [
                {
                    "internalType": "address",
                    "name": "from",
                    "type": "address"
                },
                {
                    "internalType": "address",
                    "name": "to",
                    "type": "address"
                },
                {
                    "internalType": "uint256",
                    "name": "tokenId",
                    "type": "uint256"
                },
                {
                    "internalType": "bytes",
                    "name": "data",
                    "type": "bytes"
                }
            ],
            "name": "safeTransferFrom",
            "outputs": [],
            "stateMutability": "nonpayable",
            "type": "function"
        },
        {
            "inputs": [
                {
                    "internalType": "address",
                    "name": "operator",
                    "type": "address"
                },
                {
                    "internalType": "bool",
                    "name": "approved",
                    "type": "bool"
                }
            ],
            "name": "setApprovalForAll",
            "outputs": [],
            "stateMutability": "nonpayable",
            "type": "function"
        },
        {
            "inputs": [
                {
                    "internalType": "bytes4",
                    "name": "interfaceId",
                    "type": "bytes4"
                }
            ],
            "name": "supportsInterface",
            "outputs": [
                {
                    "internalType": "bool",
                    "name": "",
                    "type": "bool"
                }
            ],
            "stateMutability": "view",
            "type": "function"
        },
        {
            "inputs": [],
            "name": "symbol",
            "outputs": [
                {
                    "internalType": "string",
                    "name": "",
                    "type": "string"
                }
            ],
            "stateMutability": "view",
            "type": "function"
        },
        {
            "inputs": [
                {
                    "internalType": "uint256",
                    "name": "tokenId",
                    "type": "uint256"
                }
            ],
            "name": "tokenURI",
            "outputs": [
                {
                    "internalType": "string",
                    "name": "",
                    "type": "string"
                }
            ],
            "stateMutability": "view",
            "type": "function"
        },
        {
            "inputs": [
                {
                    "internalType": "address",
                    "name": "from",
                    "type": "address"
                },
                {
                    "internalType": "address",
                    "name": "to",
                    "type": "address"
                },
                {
                    "internalType": "uint256",
                    "name": "tokenId",
                    "type": "uint256"
                }
            ],
            "name": "transferFrom",
            "outputs": [],
            "stateMutability": "nonpayable",
            "type": "function"
        },
        {
            "inputs": [
                {
                    "internalType": "address",
                    "name": "newOwner",
                    "type": "address"
                }
            ],
            "name": "transferOwnership",
            "outputs": [],
            "stateMutability": "nonpayable",
            "type": "function"
        }
    ],
    "bytecode": "0x60806040523480156200001157600080fd5b50604051620031da380380620031da833981810160405281019062000037919062000288565b806040518060400160405280600c81526020017f4361747374726f6e6175747300000000000000000000000000000000000000008152506040518060400160405280600481526020017f43555445000000000000000000000000000000000000000000000000000000008152508160009081620000b5919062000534565b508060019081620000c7919062000534565b505050600073ffffffffffffffffffffffffffffffffffffffff168173ffffffffffffffffffffffffffffffffffffffff16036200013f5760006040517f1e4fbdf70000000000000000000000000000000000000000000000000000000081526004016200013691906200062c565b60405180910390fd5b62000150816200015860201b60201c565b505062000649565b6000600760009054906101000a900473ffffffffffffffffffffffffffffffffffffffff16905081600760006101000a81548173ffffffffffffffffffffffffffffffffffffffff021916908373ffffffffffffffffffffffffffffffffffffffff1602179055508173ffffffffffffffffffffffffffffffffffffffff168173ffffffffffffffffffffffffffffffffffffffff167f8be0079c531659141344cd1fd0a4f28419497f9722a3daafe3b4186f6b6457e060405160405180910390a35050565b600080fd5b600073ffffffffffffffffffffffffffffffffffffffff82169050919050565b6000620002508262000223565b9050919050565b620002628162000243565b81146200026e57600080fd5b50565b600081519050620002828162000257565b92915050565b600060208284031215620002a157620002a06200021e565b5b6000620002b18482850162000271565b91505092915050565b600081519050919050565b7f4e487b7100000000000000000000000000000000000000000000000000000000600052604160045260246000fd5b7f4e487b7100000000000000000000000000000000000000000000000000000000600052602260045260246000fd5b600060028204905060018216806200033c57607f821691505b602082108103620003525762000351620002f4565b5b50919050565b60008190508160005260206000209050919050565b60006020601f8301049050919050565b600082821b905092915050565b600060088302620003bc7fffffffffffffffffffffffffffffffffffffffffffffffffffffffffffffffff826200037d565b620003c886836200037d565b95508019841693508086168417925050509392505050565b6000819050919050565b6000819050919050565b6000620004156200040f6200040984620003e0565b620003ea565b620003e0565b9050919050565b6000819050919050565b6200043183620003f4565b6200044962000440826200041c565b8484546200038a565b825550505050565b600090565b6200046062000451565b6200046d81848462000426565b505050565b5b8181101562000495576200048960008262000456565b60018101905062000473565b5050565b601f821115620004e457620004ae8162000358565b620004b9846200036d565b81016020851015620004c9578190505b620004e1620004d8856200036d565b83018262000472565b50505b505050565b600082821c905092915050565b60006200050960001984600802620004e9565b1980831691505092915050565b6000620005248383620004f6565b9150826002028217905092915050565b6200053f82620002ba565b67ffffffffffffffff8111156200055b576200055a620002c5565b5b62000567825462000323565b6200057482828562000499565b600060209050601f831160018114620005ac576000841562000597578287015190505b620005a3858262000516565b86555062000613565b601f198416620005bc8662000358565b60005b82811015620005e657848901518255600182019150602085019450602081019050620005bf565b8683101562000606578489015162000602601f891682620004f6565b8355505b6001600288020188555050505b505050505050565b620006268162000243565b82525050565b60006020820190506200064360008301846200061b565b92915050565b612b8180620006596000396000f3fe60806040526004361061011f5760003560e01c8063715018a6116100a0578063b88d4fde11610064578063b88d4fde146103ec578063c87b56dd14610415578063d204c45e14610452578063e985e9c51461047b578063f2fde38b146104b85761011f565b8063715018a6146103195780638da5cb5b1461033057806395d89b411461035b5780639f1cabc614610386578063a22cb465146103c35761011f565b806323b872dd116100e757806323b872dd1461021d57806342842e0e14610246578063615fd9e21461026f5780636352211e1461029f57806370a08231146102dc5761011f565b806301ffc9a71461012457806306661abd1461016157806306fdde031461018c578063081812fc146101b7578063095ea7b3146101f4575b600080fd5b34801561013057600080fd5b5061014b60048036038101906101469190611ea1565b6104e1565b6040516101589190611ee9565b60405180910390f35b34801561016d57600080fd5b506101766104f3565b6040516101839190611f1d565b60405180910390f35b34801561019857600080fd5b506101a16104fd565b6040516101ae9190611fc8565b60405180910390f35b3480156101c357600080fd5b506101de60048036038101906101d99190612016565b61058f565b6040516101eb9190612084565b60405180910390f35b34801561020057600080fd5b5061021b600480360381019061021691906120cb565b6105ab565b005b34801561022957600080fd5b50610244600480360381019061023f919061210b565b6105c1565b005b34801561025257600080fd5b5061026d6004803603810190610268919061210b565b6106c3565b005b61028960048036038101906102849190612293565b6106e3565b6040516102969190611f1d565b60405180910390f35b3480156102ab57600080fd5b506102c660048036038101906102c19190612016565b610811565b6040516102d39190612084565b60405180910390f35b3480156102e857600080fd5b5061030360048036038101906102fe91906122ef565b610823565b6040516103109190611f1d565b60405180910390f35b34801561032557600080fd5b5061032e6108dd565b005b34801561033c57600080fd5b506103456108f1565b6040516103529190612084565b60405180910390f35b34801561036757600080fd5b5061037061091b565b60405161037d9190611fc8565b60405180910390f35b34801561039257600080fd5b506103ad60048036038101906103a8919061231c565b6109ad565b6040516103ba9190611ee9565b60405180910390f35b3480156103cf57600080fd5b506103ea60048036038101906103e59190612391565b6109e8565b005b3480156103f857600080fd5b50610413600480360381019061040e9190612472565b6109fe565b005b34801561042157600080fd5b5061043c60048036038101906104379190612016565b610a1b565b6040516104499190611fc8565b60405180910390f35b34801561045e57600080fd5b5061047960048036038101906104749190612293565b610a2d565b005b34801561048757600080fd5b506104a2600480360381019061049d91906124f5565b610b12565b6040516104af9190611ee9565b60405180910390f35b3480156104c457600080fd5b506104df60048036038101906104da91906122ef565b610ba6565b005b60006104ec82610c2c565b9050919050565b6000600854905090565b60606000805461050c90612564565b80601f016020809104026020016040519081016040528092919081815260200182805461053890612564565b80156105855780601f1061055a57610100808354040283529160200191610585565b820191906000526020600020905b81548152906001019060200180831161056857829003601f168201915b5050505050905090565b600061059a82610c8d565b506105a482610d15565b9050919050565b6105bd82826105b8610d52565b610d5a565b5050565b600073ffffffffffffffffffffffffffffffffffffffff168273ffffffffffffffffffffffffffffffffffffffff16036106335760006040517f64a0ae9200000000000000000000000000000000000000000000000000000000815260040161062a9190612084565b60405180910390fd5b60006106478383610642610d52565b610d6c565b90508373ffffffffffffffffffffffffffffffffffffffff168173ffffffffffffffffffffffffffffffffffffffff16146106bd578382826040517f64283d7b0000000000000000000000000000000000000000000000000000000081526004016106b493929190612595565b60405180910390fd5b50505050565b6106de838383604051806020016040528060008152506109fe565b505050565b600060016009836040516106f79190612608565b908152602001604051809103902060009054906101000a900460ff1660ff1603610756576040517f08c379a000000000000000000000000000000000000000000000000000000000815260040161074d9061266b565b60405180910390fd5b66b1a2bc2ec500003410156107a0576040517f08c379a0000000000000000000000000000000000000000000000000000000008152600401610797906126d7565b60405180910390fd5b6000600860008154809291906107b590612726565b91905055905060016009846040516107cd9190612608565b908152602001604051809103902060006101000a81548160ff021916908360ff1602179055506107fd8482610f86565b6108078184610fa4565b8091505092915050565b600061081c82610c8d565b9050919050565b60008073ffffffffffffffffffffffffffffffffffffffff168273ffffffffffffffffffffffffffffffffffffffff16036108965760006040517f89c62b6400000000000000000000000000000000000000000000000000000000815260040161088d9190612084565b60405180910390fd5b600360008373ffffffffffffffffffffffffffffffffffffffff1673ffffffffffffffffffffffffffffffffffffffff168152602001908152602001600020549050919050565b6108e5611000565b6108ef6000611087565b565b6000600760009054906101000a900473ffffffffffffffffffffffffffffffffffffffff16905090565b60606001805461092a90612564565b80601f016020809104026020016040519081016040528092919081815260200182805461095690612564565b80156109a35780601f10610978576101008083540402835291602001916109a3565b820191906000526020600020905b81548152906001019060200180831161098657829003601f168201915b5050505050905090565b600060016009836040516109c19190612608565b908152602001604051809103902060009054906101000a900460ff1660ff16149050919050565b6109fa6109f3610d52565b838361114d565b5050565b610a098484846105c1565b610a15848484846112bc565b50505050565b6060610a2682611473565b9050919050565b610a35611000565b6001600982604051610a479190612608565b908152602001604051809103902060009054906101000a900460ff1660ff1603610aa6576040517f08c379a0000000000000000000000000000000000000000000000000000000008152600401610a9d9061266b565b60405180910390fd5b600060086000815480929190610abb90612726565b919050559050610acb8382610f86565b610ad58183610fa4565b6001600983604051610ae79190612608565b908152602001604051809103902060006101000a81548160ff021916908360ff160217905550505050565b6000600560008473ffffffffffffffffffffffffffffffffffffffff1673ffffffffffffffffffffffffffffffffffffffff16815260200190815260200160002060008373ffffffffffffffffffffffffffffffffffffffff1673ffffffffffffffffffffffffffffffffffffffff16815260200190815260200160002060009054906101000a900460ff16905092915050565b610bae611000565b600073ffffffffffffffffffffffffffffffffffffffff168173ffffffffffffffffffffffffffffffffffffffff1603610c205760006040517f1e4fbdf7000000000000000000000000000000000000000000000000000000008152600401610c179190612084565b60405180910390fd5b610c2981611087565b50565b6000634906490660e01b7bffffffffffffffffffffffffffffffffffffffffffffffffffffffff1916827bffffffffffffffffffffffffffffffffffffffffffffffffffffffff19161480610c865750610c8582611586565b5b9050919050565b600080610c9983611668565b9050600073ffffffffffffffffffffffffffffffffffffffff168173ffffffffffffffffffffffffffffffffffffffff1603610d0c57826040517f7e273289000000000000000000000000000000000000000000000000000000008152600401610d039190611f1d565b60405180910390fd5b80915050919050565b60006004600083815260200190815260200160002060009054906101000a900473ffffffffffffffffffffffffffffffffffffffff169050919050565b600033905090565b610d6783838360016116a5565b505050565b600080610d7884611668565b9050600073ffffffffffffffffffffffffffffffffffffffff168373ffffffffffffffffffffffffffffffffffffffff1614610dba57610db981848661186a565b5b600073ffffffffffffffffffffffffffffffffffffffff168173ffffffffffffffffffffffffffffffffffffffff1614610e4b57610dfc6000856000806116a5565b6001600360008373ffffffffffffffffffffffffffffffffffffffff1673ffffffffffffffffffffffffffffffffffffffff168152602001908152602001600020600082825403925050819055505b600073ffffffffffffffffffffffffffffffffffffffff168573ffffffffffffffffffffffffffffffffffffffff1614610ece576001600360008773ffffffffffffffffffffffffffffffffffffffff1673ffffffffffffffffffffffffffffffffffffffff168152602001908152602001600020600082825401925050819055505b846002600086815260200190815260200160002060006101000a81548173ffffffffffffffffffffffffffffffffffffffff021916908373ffffffffffffffffffffffffffffffffffffffff160217905550838573ffffffffffffffffffffffffffffffffffffffff168273ffffffffffffffffffffffffffffffffffffffff167fddf252ad1be2c89b69c2b068fc378daa952ba7f163c4a11628f55a4df523b3ef60405160405180910390a4809150509392505050565b610fa082826040518060200160405280600081525061192e565b5050565b80600660008481526020019081526020016000209081610fc4919061291a565b507ff8e1a15aba9398e019f0b49df1a4fde98ee17ae345cb5f6b5e2c27f5033e8ce782604051610ff49190611f1d565b60405180910390a15050565b611008610d52565b73ffffffffffffffffffffffffffffffffffffffff166110266108f1565b73ffffffffffffffffffffffffffffffffffffffff161461108557611049610d52565b6040517f118cdaa700000000000000000000000000000000000000000000000000000000815260040161107c9190612084565b60405180910390fd5b565b6000600760009054906101000a900473ffffffffffffffffffffffffffffffffffffffff16905081600760006101000a81548173ffffffffffffffffffffffffffffffffffffffff021916908373ffffffffffffffffffffffffffffffffffffffff1602179055508173ffffffffffffffffffffffffffffffffffffffff168173ffffffffffffffffffffffffffffffffffffffff167f8be0079c531659141344cd1fd0a4f28419497f9722a3daafe3b4186f6b6457e060405160405180910390a35050565b600073ffffffffffffffffffffffffffffffffffffffff168273ffffffffffffffffffffffffffffffffffffffff16036111be57816040517f5b08ba180000000000000000000000000000000000000000000000000000000081526004016111b59190612084565b60405180910390fd5b80600560008573ffffffffffffffffffffffffffffffffffffffff1673ffffffffffffffffffffffffffffffffffffffff16815260200190815260200160002060008473ffffffffffffffffffffffffffffffffffffffff1673ffffffffffffffffffffffffffffffffffffffff16815260200190815260200160002060006101000a81548160ff0219169083151502179055508173ffffffffffffffffffffffffffffffffffffffff168373ffffffffffffffffffffffffffffffffffffffff167f17307eab39ab6107e8899845ad3d59bd9653f200f220920489ca2b5937696c31836040516112af9190611ee9565b60405180910390a3505050565b60008373ffffffffffffffffffffffffffffffffffffffff163b111561146d578273ffffffffffffffffffffffffffffffffffffffff1663150b7a02611300610d52565b8685856040518563ffffffff1660e01b81526004016113229493929190612a41565b6020604051808303816000875af192505050801561135e57506040513d601f19601f8201168201806040525081019061135b9190612aa2565b60015b6113e2573d806000811461138e576040519150601f19603f3d011682016040523d82523d6000602084013e611393565b606091505b5060008151036113da57836040517f64a0ae920000000000000000000000000000000000000000000000000000000081526004016113d19190612084565b60405180910390fd5b805181602001fd5b63150b7a0260e01b7bffffffffffffffffffffffffffffffffffffffffffffffffffffffff1916817bffffffffffffffffffffffffffffffffffffffffffffffffffffffff19161461146b57836040517f64a0ae920000000000000000000000000000000000000000000000000000000081526004016114629190612084565b60405180910390fd5b505b50505050565b606061147e82610c8d565b50600060066000848152602001908152602001600020805461149f90612564565b80601f01602080910402602001604051908101604052809291908181526020018280546114cb90612564565b80156115185780601f106114ed57610100808354040283529160200191611518565b820191906000526020600020905b8154815290600101906020018083116114fb57829003601f168201915b50505050509050600061152961194a565b9050600081510361153e578192505050611581565b60008251111561157357808260405160200161155b929190612acf565b60405160208183030381529060405292505050611581565b61157c84611987565b925050505b919050565b60007f80ac58cd000000000000000000000000000000000000000000000000000000007bffffffffffffffffffffffffffffffffffffffffffffffffffffffff1916827bffffffffffffffffffffffffffffffffffffffffffffffffffffffff1916148061165157507f5b5e139f000000000000000000000000000000000000000000000000000000007bffffffffffffffffffffffffffffffffffffffffffffffffffffffff1916827bffffffffffffffffffffffffffffffffffffffffffffffffffffffff1916145b806116615750611660826119f0565b5b9050919050565b60006002600083815260200190815260200160002060009054906101000a900473ffffffffffffffffffffffffffffffffffffffff169050919050565b80806116de5750600073ffffffffffffffffffffffffffffffffffffffff168273ffffffffffffffffffffffffffffffffffffffff1614155b156118125760006116ee84610c8d565b9050600073ffffffffffffffffffffffffffffffffffffffff168373ffffffffffffffffffffffffffffffffffffffff161415801561175957508273ffffffffffffffffffffffffffffffffffffffff168173ffffffffffffffffffffffffffffffffffffffff1614155b801561176c575061176a8184610b12565b155b156117ae57826040517fa9fbf51f0000000000000000000000000000000000000000000000000000000081526004016117a59190612084565b60405180910390fd5b811561181057838573ffffffffffffffffffffffffffffffffffffffff168273ffffffffffffffffffffffffffffffffffffffff167f8c5be1e5ebec7d5bd14f71427d1e84f3dd0314c0f7b2291e5b200ac8c7c3b92560405160405180910390a45b505b836004600085815260200190815260200160002060006101000a81548173ffffffffffffffffffffffffffffffffffffffff021916908373ffffffffffffffffffffffffffffffffffffffff16021790555050505050565b611875838383611a5a565b61192957600073ffffffffffffffffffffffffffffffffffffffff168373ffffffffffffffffffffffffffffffffffffffff16036118ea57806040517f7e2732890000000000000000000000000000000000000000000000000000000081526004016118e19190611f1d565b60405180910390fd5b81816040517f177e802f000000000000000000000000000000000000000000000000000000008152600401611920929190612af3565b60405180910390fd5b505050565b6119388383611b1b565b61194560008484846112bc565b505050565b60606040518060400160405280600781526020017f697066733a2f2f00000000000000000000000000000000000000000000000000815250905090565b606061199282610c8d565b50600061199d61194a565b905060008151116119bd57604051806020016040528060008152506119e8565b806119c784611c14565b6040516020016119d8929190612acf565b6040516020818303038152906040525b915050919050565b60007f01ffc9a7000000000000000000000000000000000000000000000000000000007bffffffffffffffffffffffffffffffffffffffffffffffffffffffff1916827bffffffffffffffffffffffffffffffffffffffffffffffffffffffff1916149050919050565b60008073ffffffffffffffffffffffffffffffffffffffff168373ffffffffffffffffffffffffffffffffffffffff1614158015611b1257508273ffffffffffffffffffffffffffffffffffffffff168473ffffffffffffffffffffffffffffffffffffffff161480611ad35750611ad28484610b12565b5b80611b1157508273ffffffffffffffffffffffffffffffffffffffff16611af983610d15565b73ffffffffffffffffffffffffffffffffffffffff16145b5b90509392505050565b600073ffffffffffffffffffffffffffffffffffffffff168273ffffffffffffffffffffffffffffffffffffffff1603611b8d5760006040517f64a0ae92000000000000000000000000000000000000000000000000000000008152600401611b849190612084565b60405180910390fd5b6000611b9b83836000610d6c565b9050600073ffffffffffffffffffffffffffffffffffffffff168173ffffffffffffffffffffffffffffffffffffffff1614611c0f5760006040517f73c6ac6e000000000000000000000000000000000000000000000000000000008152600401611c069190612084565b60405180910390fd5b505050565b606060006001611c2384611ce2565b01905060008167ffffffffffffffff811115611c4257611c41612168565b5b6040519080825280601f01601f191660200182016040528015611c745781602001600182028036833780820191505090505b509050600082602001820190505b600115611cd7578080600190039150507f3031323334353637383961626364656600000000000000000000000000000000600a86061a8153600a8581611ccb57611cca612b1c565b5b04945060008503611c82575b819350505050919050565b600080600090507a184f03e93ff9f4daa797ed6e38ed64bf6a1f0100000000000000008310611d40577a184f03e93ff9f4daa797ed6e38ed64bf6a1f0100000000000000008381611d3657611d35612b1c565b5b0492506040810190505b6d04ee2d6d415b85acef81000000008310611d7d576d04ee2d6d415b85acef81000000008381611d7357611d72612b1c565b5b0492506020810190505b662386f26fc100008310611dac57662386f26fc100008381611da257611da1612b1c565b5b0492506010810190505b6305f5e1008310611dd5576305f5e1008381611dcb57611dca612b1c565b5b0492506008810190505b6127108310611dfa576127108381611df057611def612b1c565b5b0492506004810190505b60648310611e1d5760648381611e1357611e12612b1c565b5b0492506002810190505b600a8310611e2c576001810190505b80915050919050565b6000604051905090565b600080fd5b600080fd5b60007fffffffff0000000000000000000000000000000000000000000000000000000082169050919050565b611e7e81611e49565b8114611e8957600080fd5b50565b600081359050611e9b81611e75565b92915050565b600060208284031215611eb757611eb6611e3f565b5b6000611ec584828501611e8c565b91505092915050565b60008115159050919050565b611ee381611ece565b82525050565b6000602082019050611efe6000830184611eda565b92915050565b6000819050919050565b611f1781611f04565b82525050565b6000602082019050611f326000830184611f0e565b92915050565b600081519050919050565b600082825260208201905092915050565b60005b83811015611f72578082015181840152602081019050611f57565b60008484015250505050565b6000601f19601f8301169050919050565b6000611f9a82611f38565b611fa48185611f43565b9350611fb4818560208601611f54565b611fbd81611f7e565b840191505092915050565b60006020820190508181036000830152611fe28184611f8f565b905092915050565b611ff381611f04565b8114611ffe57600080fd5b50565b60008135905061201081611fea565b92915050565b60006020828403121561202c5761202b611e3f565b5b600061203a84828501612001565b91505092915050565b600073ffffffffffffffffffffffffffffffffffffffff82169050919050565b600061206e82612043565b9050919050565b61207e81612063565b82525050565b60006020820190506120996000830184612075565b92915050565b6120a881612063565b81146120b357600080fd5b50565b6000813590506120c58161209f565b92915050565b600080604083850312156120e2576120e1611e3f565b5b60006120f0858286016120b6565b925050602061210185828601612001565b9150509250929050565b60008060006060848603121561212457612123611e3f565b5b6000612132868287016120b6565b9350506020612143868287016120b6565b925050604061215486828701612001565b9150509250925092565b600080fd5b600080fd5b7f4e487b7100000000000000000000000000000000000000000000000000000000600052604160045260246000fd5b6121a082611f7e565b810181811067ffffffffffffffff821117156121bf576121be612168565b5b80604052505050565b60006121d2611e35565b90506121de8282612197565b919050565b600067ffffffffffffffff8211156121fe576121fd612168565b5b61220782611f7e565b9050602081019050919050565b82818337600083830152505050565b6000612236612231846121e3565b6121c8565b90508281526020810184848401111561225257612251612163565b5b61225d848285612214565b509392505050565b600082601f83011261227a5761227961215e565b5b813561228a848260208601612223565b91505092915050565b600080604083850312156122aa576122a9611e3f565b5b60006122b8858286016120b6565b925050602083013567ffffffffffffffff8111156122d9576122d8611e44565b5b6122e585828601612265565b9150509250929050565b60006020828403121561230557612304611e3f565b5b6000612313848285016120b6565b91505092915050565b60006020828403121561233257612331611e3f565b5b600082013567ffffffffffffffff8111156123505761234f611e44565b5b61235c84828501612265565b91505092915050565b61236e81611ece565b811461237957600080fd5b50565b60008135905061238b81612365565b92915050565b600080604083850312156123a8576123a7611e3f565b5b60006123b6858286016120b6565b92505060206123c78582860161237c565b9150509250929050565b600067ffffffffffffffff8211156123ec576123eb612168565b5b6123f582611f7e565b9050602081019050919050565b6000612415612410846123d1565b6121c8565b90508281526020810184848401111561243157612430612163565b5b61243c848285612214565b509392505050565b600082601f8301126124595761245861215e565b5b8135612469848260208601612402565b91505092915050565b6000806000806080858703121561248c5761248b611e3f565b5b600061249a878288016120b6565b94505060206124ab878288016120b6565b93505060406124bc87828801612001565b925050606085013567ffffffffffffffff8111156124dd576124dc611e44565b5b6124e987828801612444565b91505092959194509250565b6000806040838503121561250c5761250b611e3f565b5b600061251a858286016120b6565b925050602061252b858286016120b6565b9150509250929050565b7f4e487b7100000000000000000000000000000000000000000000000000000000600052602260045260246000fd5b6000600282049050600182168061257c57607f821691505b60208210810361258f5761258e612535565b5b50919050565b60006060820190506125aa6000830186612075565b6125b76020830185611f0e565b6125c46040830184612075565b949350505050565b600081905092915050565b60006125e282611f38565b6125ec81856125cc565b93506125fc818560208601611f54565b80840191505092915050565b600061261482846125d7565b915081905092915050565b7f4e465420616c7265616479206d696e7465642100000000000000000000000000600082015250565b6000612655601383611f43565b91506126608261261f565b602082019050919050565b6000602082019050818103600083015261268481612648565b9050919050565b7f4e65656420746f20706179207570210000000000000000000000000000000000600082015250565b60006126c1600f83611f43565b91506126cc8261268b565b602082019050919050565b600060208201905081810360008301526126f0816126b4565b9050919050565b7f4e487b7100000000000000000000000000000000000000000000000000000000600052601160045260246000fd5b600061273182611f04565b91507fffffffffffffffffffffffffffffffffffffffffffffffffffffffffffffffff8203612763576127626126f7565b5b600182019050919050565b60008190508160005260206000209050919050565b60006020601f8301049050919050565b600082821b905092915050565b6000600883026127d07fffffffffffffffffffffffffffffffffffffffffffffffffffffffffffffffff82612793565b6127da8683612793565b95508019841693508086168417925050509392505050565b6000819050919050565b600061281761281261280d84611f04565b6127f2565b611f04565b9050919050565b6000819050919050565b612831836127fc565b61284561283d8261281e565b8484546127a0565b825550505050565b600090565b61285a61284d565b612865818484612828565b505050565b5b818110156128895761287e600082612852565b60018101905061286b565b5050565b601f8211156128ce5761289f8161276e565b6128a884612783565b810160208510156128b7578190505b6128cb6128c385612783565b83018261286a565b50505b505050565b600082821c905092915050565b60006128f1600019846008026128d3565b1980831691505092915050565b600061290a83836128e0565b9150826002028217905092915050565b61292382611f38565b67ffffffffffffffff81111561293c5761293b612168565b5b6129468254612564565b61295182828561288d565b600060209050601f8311600181146129845760008415612972578287015190505b61297c85826128fe565b8655506129e4565b601f1984166129928661276e565b60005b828110156129ba57848901518255600182019150602085019450602081019050612995565b868310156129d757848901516129d3601f8916826128e0565b8355505b6001600288020188555050505b505050505050565b600081519050919050565b600082825260208201905092915050565b6000612a13826129ec565b612a1d81856129f7565b9350612a2d818560208601611f54565b612a3681611f7e565b840191505092915050565b6000608082019050612a566000830187612075565b612a636020830186612075565b612a706040830185611f0e565b8181036060830152612a828184612a08565b905095945050505050565b600081519050612a9c81611e75565b92915050565b600060208284031215612ab857612ab7611e3f565b5b6000612ac684828501612a8d565b91505092915050565b6000612adb82856125d7565b9150612ae782846125d7565b91508190509392505050565b6000604082019050612b086000830185612075565b612b156020830184611f0e565b9392505050565b7f4e487b7100000000000000000000000000000000000000000000000000000000600052601260045260246000fdfea26469706673582212202607ac85b5127df21e0684a45cb94ddb783e8d26fdd979bda9e1f989faf0c11a64736f6c63430008180033",
    "linkReferences": {},
    "deployedLinkReferences": {}
}