{
  "_format": "hh-sol-artifact-1",
  "contractName": "CatCoin",
  "sourceName": "contracts/CatCoin.sol",
  "abi": [
    {
      "inputs": [
        {
          "internalType": "address",
          "name": "initialOwner",
          "type": "address"
        },
        {
          "internalType": "uint256",
          "name": "_ethToCatRate",
          "type": "uint256"
        },
        {
          "internalType": "address",
          "name": "trustedForwarder",
          "type": "address"
        }
      ],
      "stateMutability": "nonpayable",
      "type": "constructor"
    },
    {
      "inputs": [
        {
          "internalType": "address",
          "name": "spender",
          "type": "address"
        },
        {
          "internalType": "uint256",
          "name": "allowance",
          "type": "uint256"
        },
        {
          "internalType": "uint256",
          "name": "needed",
          "type": "uint256"
        }
      ],
      "name": "ERC20InsufficientAllowance",
      "type": "error"
    },
    {
      "inputs": [
        {
          "internalType": "address",
          "name": "sender",
          "type": "address"
        },
        {
          "internalType": "uint256",
          "name": "balance",
          "type": "uint256"
        },
        {
          "internalType": "uint256",
          "name": "needed",
          "type": "uint256"
        }
      ],
      "name": "ERC20InsufficientBalance",
      "type": "error"
    },
    {
      "inputs": [
        {
          "internalType": "address",
          "name": "approver",
          "type": "address"
        }
      ],
      "name": "ERC20InvalidApprover",
      "type": "error"
    },
    {
      "inputs": [
        {
          "internalType": "address",
          "name": "receiver",
          "type": "address"
        }
      ],
      "name": "ERC20InvalidReceiver",
      "type": "error"
    },
    {
      "inputs": [
        {
          "internalType": "address",
          "name": "sender",
          "type": "address"
        }
      ],
      "name": "ERC20InvalidSender",
      "type": "error"
    },
    {
      "inputs": [
        {
          "internalType": "address",
          "name": "spender",
          "type": "address"
        }
      ],
      "name": "ERC20InvalidSpender",
      "type": "error"
    },
    {
      "inputs": [
        {
          "internalType": "address",
          "name": "owner",
          "type": "address"
        }
      ],
      "name": "OwnableInvalidOwner",
      "type": "error"
    },
    {
      "inputs": [
        {
          "internalType": "address",
          "name": "account",
          "type": "address"
        }
      ],
      "name": "OwnableUnauthorizedAccount",
      "type": "error"
    },
    {
      "inputs": [],
      "name": "ReentrancyGuardReentrantCall",
      "type": "error"
    },
    {
      "anonymous": false,
      "inputs": [
        {
          "indexed": true,
          "internalType": "address",
          "name": "owner",
          "type": "address"
        },
        {
          "indexed": true,
          "internalType": "address",
          "name": "spender",
          "type": "address"
        },
        {
          "indexed": false,
          "internalType": "uint256",
          "name": "value",
          "type": "uint256"
        }
      ],
      "name": "Approval",
      "type": "event"
    },
    {
      "anonymous": false,
      "inputs": [
        {
          "indexed": true,
          "internalType": "address",
          "name": "previousOwner",
          "type": "address"
        },
        {
          "indexed": true,
          "internalType": "address",
          "name": "newOwner",
          "type": "address"
        }
      ],
      "name": "OwnershipTransferred",
      "type": "event"
    },
    {
      "anonymous": false,
      "inputs": [
        {
          "indexed": true,
          "internalType": "address",
          "name": "purchaser",
          "type": "address"
        },
        {
          "indexed": false,
          "internalType": "uint256",
          "name": "amount",
          "type": "uint256"
        },
        {
          "indexed": false,
          "internalType": "uint256",
          "name": "rate",
          "type": "uint256"
        },
        {
          "indexed": false,
          "internalType": "string",
          "name": "currency",
          "type": "string"
        }
      ],
      "name": "TokensPurchased",
      "type": "event"
    },
    {
      "anonymous": false,
      "inputs": [
        {
          "indexed": true,
          "internalType": "address",
          "name": "claimer",
          "type": "address"
        },
        {
          "indexed": false,
          "internalType": "uint256",
          "name": "amount",
          "type": "uint256"
        }
      ],
      "name": "TokensTrasfered",
      "type": "event"
    },
    {
      "anonymous": false,
      "inputs": [
        {
          "indexed": true,
          "internalType": "address",
          "name": "from",
          "type": "address"
        },
        {
          "indexed": true,
          "internalType": "address",
          "name": "to",
          "type": "address"
        },
        {
          "indexed": false,
          "internalType": "uint256",
          "name": "value",
          "type": "uint256"
        }
      ],
      "name": "Transfer",
      "type": "event"
    },
    {
      "inputs": [
        {
          "internalType": "address",
          "name": "owner",
          "type": "address"
        },
        {
          "internalType": "address",
          "name": "spender",
          "type": "address"
        }
      ],
      "name": "allowance",
      "outputs": [
        {
          "internalType": "uint256",
          "name": "",
          "type": "uint256"
        }
      ],
      "stateMutability": "view",
      "type": "function"
    },
    {
      "inputs": [
        {
          "internalType": "address",
          "name": "spender",
          "type": "address"
        },
        {
          "internalType": "uint256",
          "name": "value",
          "type": "uint256"
        }
      ],
      "name": "approve",
      "outputs": [
        {
          "internalType": "bool",
          "name": "",
          "type": "bool"
        }
      ],
      "stateMutability": "nonpayable",
      "type": "function"
    },
    {
      "inputs": [
        {
          "internalType": "address",
          "name": "account",
          "type": "address"
        }
      ],
      "name": "balanceOf",
      "outputs": [
        {
          "internalType": "uint256",
          "name": "",
          "type": "uint256"
        }
      ],
      "stateMutability": "view",
      "type": "function"
    },
    {
      "inputs": [],
      "name": "buyCatCoinWithETH",
      "outputs": [],
      "stateMutability": "payable",
      "type": "function"
    },
    {
      "inputs": [
        {
          "internalType": "uint256",
          "name": "amount",
          "type": "uint256"
        }
      ],
      "name": "claim",
      "outputs": [],
      "stateMutability": "nonpayable",
      "type": "function"
    },
    {
      "inputs": [],
      "name": "decimals",
      "outputs": [
        {
          "internalType": "uint8",
          "name": "",
          "type": "uint8"
        }
      ],
      "stateMutability": "view",
      "type": "function"
    },
    {
      "inputs": [
        {
          "internalType": "uint256",
          "name": "amount",
          "type": "uint256"
        }
      ],
      "name": "depositCatCoins",
      "outputs": [],
      "stateMutability": "nonpayable",
      "type": "function"
    },
    {
      "inputs": [],
      "name": "ethToCatRate",
      "outputs": [
        {
          "internalType": "uint256",
          "name": "",
          "type": "uint256"
        }
      ],
      "stateMutability": "view",
      "type": "function"
    },
    {
      "inputs": [],
      "name": "getEthToCatRate",
      "outputs": [
        {
          "internalType": "uint256",
          "name": "",
          "type": "uint256"
        }
      ],
      "stateMutability": "view",
      "type": "function"
    },
    {
      "inputs": [
        {
          "internalType": "address",
          "name": "forwarder",
          "type": "address"
        }
      ],
      "name": "isTrustedForwarder",
      "outputs": [
        {
          "internalType": "bool",
          "name": "",
          "type": "bool"
        }
      ],
      "stateMutability": "view",
      "type": "function"
    },
    {
      "inputs": [
        {
          "internalType": "address",
          "name": "to",
          "type": "address"
        },
        {
          "internalType": "uint256",
          "name": "amount",
          "type": "uint256"
        }
      ],
      "name": "mint",
      "outputs": [],
      "stateMutability": "nonpayable",
      "type": "function"
    },
    {
      "inputs": [],
      "name": "name",
      "outputs": [
        {
          "internalType": "string",
          "name": "",
          "type": "string"
        }
      ],
      "stateMutability": "view",
      "type": "function"
    },
    {
      "inputs": [],
      "name": "owner",
      "outputs": [
        {
          "internalType": "address",
          "name": "",
          "type": "address"
        }
      ],
      "stateMutability": "view",
      "type": "function"
    },
    {
      "inputs": [],
      "name": "renounceOwnership",
      "outputs": [],
      "stateMutability": "nonpayable",
      "type": "function"
    },
    {
      "inputs": [],
      "name": "symbol",
      "outputs": [
        {
          "internalType": "string",
          "name": "",
          "type": "string"
        }
      ],
      "stateMutability": "view",
      "type": "function"
    },
    {
      "inputs": [],
      "name": "totalSupply",
      "outputs": [
        {
          "internalType": "uint256",
          "name": "",
          "type": "uint256"
        }
      ],
      "stateMutability": "view",
      "type": "function"
    },
    {
      "inputs": [
        {
          "internalType": "address",
          "name": "to",
          "type": "address"
        },
        {
          "internalType": "uint256",
          "name": "value",
          "type": "uint256"
        }
      ],
      "name": "transfer",
      "outputs": [
        {
          "internalType": "bool",
          "name": "",
          "type": "bool"
        }
      ],
      "stateMutability": "nonpayable",
      "type": "function"
    },
    {
      "inputs": [
        {
          "internalType": "address",
          "name": "from",
          "type": "address"
        },
        {
          "internalType": "address",
          "name": "to",
          "type": "address"
        },
        {
          "internalType": "uint256",
          "name": "value",
          "type": "uint256"
        }
      ],
      "name": "transferFrom",
      "outputs": [
        {
          "internalType": "bool",
          "name": "",
          "type": "bool"
        }
      ],
      "stateMutability": "nonpayable",
      "type": "function"
    },
    {
      "inputs": [
        {
          "internalType": "address",
          "name": "newOwner",
          "type": "address"
        }
      ],
      "name": "transferOwnership",
      "outputs": [],
      "stateMutability": "nonpayable",
      "type": "function"
    },
    {
      "inputs": [
        {
          "internalType": "address",
          "name": "recipient",
          "type": "address"
        },
        {
          "internalType": "uint256",
          "name": "amount",
          "type": "uint256"
        }
      ],
      "name": "transferTokens",
      "outputs": [
        {
          "internalType": "bool",
          "name": "",
          "type": "bool"
        }
      ],
      "stateMutability": "nonpayable",
      "type": "function"
    },
    {
      "inputs": [
        {
          "internalType": "uint256",
          "name": "newRate",
          "type": "uint256"
        }
      ],
      "name": "updateEthToCatRate",
      "outputs": [],
      "stateMutability": "nonpayable",
      "type": "function"
    },
    {
      "inputs": [
        {
          "internalType": "uint256",
          "name": "amount",
          "type": "uint256"
        }
      ],
      "name": "withdrawCat",
      "outputs": [],
      "stateMutability": "nonpayable",
      "type": "function"
    },
    {
      "inputs": [],
      "name": "withdrawEth",
      "outputs": [],
      "stateMutability": "nonpayable",
      "type": "function"
    }
  ],
  "bytecode": "0x60a06040523480156200001157600080fd5b50604051620027ec380380620027ec83398181016040528101906200003791906200060e565b80836040518060400160405280600381526020017f43617400000000000000000000000000000000000000000000000000000000008152506040518060400160405280600381526020017f43415400000000000000000000000000000000000000000000000000000000008152508160039081620000b69190620008da565b508060049081620000c89190620008da565b505050600073ffffffffffffffffffffffffffffffffffffffff168173ffffffffffffffffffffffffffffffffffffffff1603620001405760006040517f1e4fbdf7000000000000000000000000000000000000000000000000000000008152600401620001379190620009d2565b60405180910390fd5b6200015181620001dd60201b60201c565b5060016006819055508073ffffffffffffffffffffffffffffffffffffffff1660808173ffffffffffffffffffffffffffffffffffffffff168152505050620001cd30620001a4620002a360201b60201c565b600a620001b2919062000b7f565b612710620001c1919062000bd0565b620002ac60201b60201c565b8160078190555050505062000cc1565b6000600560009054906101000a900473ffffffffffffffffffffffffffffffffffffffff16905081600560006101000a81548173ffffffffffffffffffffffffffffffffffffffff021916908373ffffffffffffffffffffffffffffffffffffffff1602179055508173ffffffffffffffffffffffffffffffffffffffff168173ffffffffffffffffffffffffffffffffffffffff167f8be0079c531659141344cd1fd0a4f28419497f9722a3daafe3b4186f6b6457e060405160405180910390a35050565b60006012905090565b600073ffffffffffffffffffffffffffffffffffffffff168273ffffffffffffffffffffffffffffffffffffffff1603620003215760006040517fec442f05000000000000000000000000000000000000000000000000000000008152600401620003189190620009d2565b60405180910390fd5b62000335600083836200033960201b60201c565b5050565b600073ffffffffffffffffffffffffffffffffffffffff168373ffffffffffffffffffffffffffffffffffffffff16036200038f57806002600082825462000382919062000c1b565b9250508190555062000465565b60008060008573ffffffffffffffffffffffffffffffffffffffff1673ffffffffffffffffffffffffffffffffffffffff168152602001908152602001600020549050818110156200041e578381836040517fe450d38c000000000000000000000000000000000000000000000000000000008152600401620004159392919062000c67565b60405180910390fd5b8181036000808673ffffffffffffffffffffffffffffffffffffffff1673ffffffffffffffffffffffffffffffffffffffff16815260200190815260200160002081905550505b600073ffffffffffffffffffffffffffffffffffffffff168273ffffffffffffffffffffffffffffffffffffffff1603620004b05780600260008282540392505081905550620004fd565b806000808473ffffffffffffffffffffffffffffffffffffffff1673ffffffffffffffffffffffffffffffffffffffff168152602001908152602001600020600082825401925050819055505b8173ffffffffffffffffffffffffffffffffffffffff168373ffffffffffffffffffffffffffffffffffffffff167fddf252ad1be2c89b69c2b068fc378daa952ba7f163c4a11628f55a4df523b3ef836040516200055c919062000ca4565b60405180910390a3505050565b600080fd5b600073ffffffffffffffffffffffffffffffffffffffff82169050919050565b60006200059b826200056e565b9050919050565b620005ad816200058e565b8114620005b957600080fd5b50565b600081519050620005cd81620005a2565b92915050565b6000819050919050565b620005e881620005d3565b8114620005f457600080fd5b50565b6000815190506200060881620005dd565b92915050565b6000806000606084860312156200062a576200062962000569565b5b60006200063a86828701620005bc565b93505060206200064d86828701620005f7565b92505060406200066086828701620005bc565b9150509250925092565b600081519050919050565b7f4e487b7100000000000000000000000000000000000000000000000000000000600052604160045260246000fd5b7f4e487b7100000000000000000000000000000000000000000000000000000000600052602260045260246000fd5b60006002820490506001821680620006ec57607f821691505b602082108103620007025762000701620006a4565b5b50919050565b60008190508160005260206000209050919050565b60006020601f8301049050919050565b600082821b905092915050565b6000600883026200076c7fffffffffffffffffffffffffffffffffffffffffffffffffffffffffffffffff826200072d565b6200077886836200072d565b95508019841693508086168417925050509392505050565b6000819050919050565b6000620007bb620007b5620007af84620005d3565b62000790565b620005d3565b9050919050565b6000819050919050565b620007d7836200079a565b620007ef620007e682620007c2565b8484546200073a565b825550505050565b600090565b62000806620007f7565b62000813818484620007cc565b505050565b5b818110156200083b576200082f600082620007fc565b60018101905062000819565b5050565b601f8211156200088a57620008548162000708565b6200085f846200071d565b810160208510156200086f578190505b620008876200087e856200071d565b83018262000818565b50505b505050565b600082821c905092915050565b6000620008af600019846008026200088f565b1980831691505092915050565b6000620008ca83836200089c565b9150826002028217905092915050565b620008e5826200066a565b67ffffffffffffffff81111562000901576200090062000675565b5b6200090d8254620006d3565b6200091a8282856200083f565b600060209050601f8311600181146200095257600084156200093d578287015190505b620009498582620008bc565b865550620009b9565b601f198416620009628662000708565b60005b828110156200098c5784890151825560018201915060208501945060208101905062000965565b86831015620009ac5784890151620009a8601f8916826200089c565b8355505b6001600288020188555050505b505050505050565b620009cc816200058e565b82525050565b6000602082019050620009e96000830184620009c1565b92915050565b7f4e487b7100000000000000000000000000000000000000000000000000000000600052601160045260246000fd5b60008160011c9050919050565b6000808291508390505b600185111562000a7d5780860481111562000a555762000a54620009ef565b5b600185161562000a655780820291505b808102905062000a758562000a1e565b945062000a35565b94509492505050565b60008262000a98576001905062000b6b565b8162000aa8576000905062000b6b565b816001811462000ac1576002811462000acc5762000b02565b600191505062000b6b565b60ff84111562000ae15762000ae0620009ef565b5b8360020a91508482111562000afb5762000afa620009ef565b5b5062000b6b565b5060208310610133831016604e8410600b841016171562000b3c5782820a90508381111562000b365762000b35620009ef565b5b62000b6b565b62000b4b848484600162000a2b565b9250905081840481111562000b655762000b64620009ef565b5b81810290505b9392505050565b600060ff82169050919050565b600062000b8c82620005d3565b915062000b998362000b72565b925062000bc87fffffffffffffffffffffffffffffffffffffffffffffffffffffffffffffffff848462000a86565b905092915050565b600062000bdd82620005d3565b915062000bea83620005d3565b925082820262000bfa81620005d3565b9150828204841483151762000c145762000c13620009ef565b5b5092915050565b600062000c2882620005d3565b915062000c3583620005d3565b925082820190508082111562000c505762000c4f620009ef565b5b92915050565b62000c6181620005d3565b82525050565b600060608201905062000c7e6000830186620009c1565b62000c8d602083018562000c56565b62000c9c604083018462000c56565b949350505050565b600060208201905062000cbb600083018462000c56565b92915050565b608051611b0f62000cdd60003960006107980152611b0f6000f3fe6080604052600436106101405760003560e01c8063572b6c05116100b6578063a0ef91df1161006f578063a0ef91df1461042b578063a9059cbb14610442578063bec3fa171461047f578063dd62ed3e146104bc578063ebaa0bbc146104f9578063f2fde38b1461052257610140565b8063572b6c051461033a57806370a0823114610377578063715018a6146103b45780638da5cb5b146103cb57806395d89b41146103f65780639a87069e1461042157610140565b80631aa6e2ca116101085780631aa6e2ca1461022c57806323b872dd14610257578063313ce56714610294578063379607f5146102bf57806340c10f19146102e857806353d282441461031157610140565b806306fdde0314610145578063095ea7b3146101705780630b452013146101ad5780630f61643c146101d857806318160ddd14610201575b600080fd5b34801561015157600080fd5b5061015a61054b565b60405161016791906114bc565b60405180910390f35b34801561017c57600080fd5b5061019760048036038101906101929190611577565b6105dd565b6040516101a491906115d2565b60405180910390f35b3480156101b957600080fd5b506101c2610600565b6040516101cf91906115fc565b60405180910390f35b3480156101e457600080fd5b506101ff60048036038101906101fa9190611617565b61060a565b005b34801561020d57600080fd5b5061021661066b565b60405161022391906115fc565b60405180910390f35b34801561023857600080fd5b50610241610675565b60405161024e91906115fc565b60405180910390f35b34801561026357600080fd5b5061027e60048036038101906102799190611644565b61067b565b60405161028b91906115d2565b60405180910390f35b3480156102a057600080fd5b506102a96106aa565b6040516102b691906116b3565b60405180910390f35b3480156102cb57600080fd5b506102e660048036038101906102e19190611617565b6106b3565b005b3480156102f457600080fd5b5061030f600480360381019061030a9190611577565b610768565b005b34801561031d57600080fd5b5061033860048036038101906103339190611617565b61077e565b005b34801561034657600080fd5b50610361600480360381019061035c91906116ce565b610794565b60405161036e91906115d2565b60405180910390f35b34801561038357600080fd5b5061039e600480360381019061039991906116ce565b6107ec565b6040516103ab91906115fc565b60405180910390f35b3480156103c057600080fd5b506103c9610834565b005b3480156103d757600080fd5b506103e0610848565b6040516103ed919061170a565b60405180910390f35b34801561040257600080fd5b5061040b610872565b60405161041891906114bc565b60405180910390f35b610429610904565b005b34801561043757600080fd5b506104406109d1565b005b34801561044e57600080fd5b5061046960048036038101906104649190611577565b610a88565b60405161047691906115d2565b60405180910390f35b34801561048b57600080fd5b506104a660048036038101906104a19190611577565b610aab565b6040516104b391906115d2565b60405180910390f35b3480156104c857600080fd5b506104e360048036038101906104de9190611725565b610b1e565b6040516104f091906115fc565b60405180910390f35b34801561050557600080fd5b50610520600480360381019061051b9190611617565b610ba5565b005b34801561052e57600080fd5b50610549600480360381019061054491906116ce565b610bb7565b005b60606003805461055a90611794565b80601f016020809104026020016040519081016040528092919081815260200182805461058690611794565b80156105d35780601f106105a8576101008083540402835291602001916105d3565b820191906000526020600020905b8154815290600101906020018083116105b657829003601f168201915b5050505050905090565b6000806105e8610c3d565b90506105f5818585610c4c565b600191505092915050565b6000600754905090565b610612610c5e565b8061061c336107ec565b101561065d576040517f08c379a000000000000000000000000000000000000000000000000000000000815260040161065490611811565b60405180910390fd5b610668333083610ce5565b50565b6000600254905090565b60075481565b600080610686610c3d565b9050610693858285610dd9565b61069e858585610ce5565b60019150509392505050565b60006012905090565b806106bd306107ec565b10156106fe576040517f08c379a00000000000000000000000000000000000000000000000000000000081526004016106f5906118a3565b60405180910390fd5b6107103061070a610c3d565b83610ce5565b610718610c3d565b73ffffffffffffffffffffffffffffffffffffffff167fe50d3d1770a23fe0644e870eb28f4ffb0b63526800866f4bac5259c1f1e3215e8260405161075d91906115fc565b60405180910390a250565b610770610c5e565b61077a8282610e6d565b5050565b610786610c5e565b610791303383610ce5565b50565b60007f000000000000000000000000000000000000000000000000000000000000000073ffffffffffffffffffffffffffffffffffffffff168273ffffffffffffffffffffffffffffffffffffffff16149050919050565b60008060008373ffffffffffffffffffffffffffffffffffffffff1673ffffffffffffffffffffffffffffffffffffffff168152602001908152602001600020549050919050565b61083c610c5e565b6108466000610eef565b565b6000600560009054906101000a900473ffffffffffffffffffffffffffffffffffffffff16905090565b60606004805461088190611794565b80601f01602080910402602001604051908101604052809291908181526020018280546108ad90611794565b80156108fa5780601f106108cf576101008083540402835291602001916108fa565b820191906000526020600020905b8154815290600101906020018083116108dd57829003601f168201915b5050505050905090565b61090c610fb5565b60006007543461091c91906118f2565b905080610928306107ec565b1015610969576040517f08c379a0000000000000000000000000000000000000000000000000000000008152600401610960906118a3565b60405180910390fd5b610974303383610ce5565b3373ffffffffffffffffffffffffffffffffffffffff167fe8e3aa9086f33aa1d89447fc3a792fafabd987374e660b040e31787d68b5fe06826007546040516109be929190611980565b60405180910390a2506109cf610ffb565b565b6109d9610c5e565b60003373ffffffffffffffffffffffffffffffffffffffff16476040516109ff906119ed565b60006040518083038185875af1925050503d8060008114610a3c576040519150601f19603f3d011682016040523d82523d6000602084013e610a41565b606091505b5050905080610a85576040517f08c379a0000000000000000000000000000000000000000000000000000000008152600401610a7c90611a4e565b60405180910390fd5b50565b600080610a93610c3d565b9050610aa0818585610ce5565b600191505092915050565b6000610abf610ab8610c3d565b8484610ce5565b610ac7610c3d565b73ffffffffffffffffffffffffffffffffffffffff167fe50d3d1770a23fe0644e870eb28f4ffb0b63526800866f4bac5259c1f1e3215e83604051610b0c91906115fc565b60405180910390a26001905092915050565b6000600160008473ffffffffffffffffffffffffffffffffffffffff1673ffffffffffffffffffffffffffffffffffffffff16815260200190815260200160002060008373ffffffffffffffffffffffffffffffffffffffff1673ffffffffffffffffffffffffffffffffffffffff16815260200190815260200160002054905092915050565b610bad610c5e565b8060078190555050565b610bbf610c5e565b600073ffffffffffffffffffffffffffffffffffffffff168173ffffffffffffffffffffffffffffffffffffffff1603610c315760006040517f1e4fbdf7000000000000000000000000000000000000000000000000000000008152600401610c28919061170a565b60405180910390fd5b610c3a81610eef565b50565b6000610c47611005565b905090565b610c598383836001611030565b505050565b610c66610c3d565b73ffffffffffffffffffffffffffffffffffffffff16610c84610848565b73ffffffffffffffffffffffffffffffffffffffff1614610ce357610ca7610c3d565b6040517f118cdaa7000000000000000000000000000000000000000000000000000000008152600401610cda919061170a565b60405180910390fd5b565b600073ffffffffffffffffffffffffffffffffffffffff168373ffffffffffffffffffffffffffffffffffffffff1603610d575760006040517f96c6fd1e000000000000000000000000000000000000000000000000000000008152600401610d4e919061170a565b60405180910390fd5b600073ffffffffffffffffffffffffffffffffffffffff168273ffffffffffffffffffffffffffffffffffffffff1603610dc95760006040517fec442f05000000000000000000000000000000000000000000000000000000008152600401610dc0919061170a565b60405180910390fd5b610dd4838383611207565b505050565b6000610de58484610b1e565b90507fffffffffffffffffffffffffffffffffffffffffffffffffffffffffffffffff8114610e675781811015610e57578281836040517ffb8f41b2000000000000000000000000000000000000000000000000000000008152600401610e4e93929190611a6e565b60405180910390fd5b610e6684848484036000611030565b5b50505050565b600073ffffffffffffffffffffffffffffffffffffffff168273ffffffffffffffffffffffffffffffffffffffff1603610edf5760006040517fec442f05000000000000000000000000000000000000000000000000000000008152600401610ed6919061170a565b60405180910390fd5b610eeb60008383611207565b5050565b6000600560009054906101000a900473ffffffffffffffffffffffffffffffffffffffff16905081600560006101000a81548173ffffffffffffffffffffffffffffffffffffffff021916908373ffffffffffffffffffffffffffffffffffffffff1602179055508173ffffffffffffffffffffffffffffffffffffffff168173ffffffffffffffffffffffffffffffffffffffff167f8be0079c531659141344cd1fd0a4f28419497f9722a3daafe3b4186f6b6457e060405160405180910390a35050565b600260065403610ff1576040517f3ee5aeb500000000000000000000000000000000000000000000000000000000815260040160405180910390fd5b6002600681905550565b6001600681905550565b600061101033610794565b1561102457601436033560601c905061102c565b33905061102d565b5b90565b600073ffffffffffffffffffffffffffffffffffffffff168473ffffffffffffffffffffffffffffffffffffffff16036110a25760006040517fe602df05000000000000000000000000000000000000000000000000000000008152600401611099919061170a565b60405180910390fd5b600073ffffffffffffffffffffffffffffffffffffffff168373ffffffffffffffffffffffffffffffffffffffff16036111145760006040517f94280d6200000000000000000000000000000000000000000000000000000000815260040161110b919061170a565b60405180910390fd5b81600160008673ffffffffffffffffffffffffffffffffffffffff1673ffffffffffffffffffffffffffffffffffffffff16815260200190815260200160002060008573ffffffffffffffffffffffffffffffffffffffff1673ffffffffffffffffffffffffffffffffffffffff168152602001908152602001600020819055508015611201578273ffffffffffffffffffffffffffffffffffffffff168473ffffffffffffffffffffffffffffffffffffffff167f8c5be1e5ebec7d5bd14f71427d1e84f3dd0314c0f7b2291e5b200ac8c7c3b925846040516111f891906115fc565b60405180910390a35b50505050565b600073ffffffffffffffffffffffffffffffffffffffff168373ffffffffffffffffffffffffffffffffffffffff160361125957806002600082825461124d9190611aa5565b9250508190555061132c565b60008060008573ffffffffffffffffffffffffffffffffffffffff1673ffffffffffffffffffffffffffffffffffffffff168152602001908152602001600020549050818110156112e5578381836040517fe450d38c0000000000000000000000000000000000000000000000000000000081526004016112dc93929190611a6e565b60405180910390fd5b8181036000808673ffffffffffffffffffffffffffffffffffffffff1673ffffffffffffffffffffffffffffffffffffffff16815260200190815260200160002081905550505b600073ffffffffffffffffffffffffffffffffffffffff168273ffffffffffffffffffffffffffffffffffffffff160361137557806002600082825403925050819055506113c2565b806000808473ffffffffffffffffffffffffffffffffffffffff1673ffffffffffffffffffffffffffffffffffffffff168152602001908152602001600020600082825401925050819055505b8173ffffffffffffffffffffffffffffffffffffffff168373ffffffffffffffffffffffffffffffffffffffff167fddf252ad1be2c89b69c2b068fc378daa952ba7f163c4a11628f55a4df523b3ef8360405161141f91906115fc565b60405180910390a3505050565b600081519050919050565b600082825260208201905092915050565b60005b8381101561146657808201518184015260208101905061144b565b60008484015250505050565b6000601f19601f8301169050919050565b600061148e8261142c565b6114988185611437565b93506114a8818560208601611448565b6114b181611472565b840191505092915050565b600060208201905081810360008301526114d68184611483565b905092915050565b600080fd5b600073ffffffffffffffffffffffffffffffffffffffff82169050919050565b600061150e826114e3565b9050919050565b61151e81611503565b811461152957600080fd5b50565b60008135905061153b81611515565b92915050565b6000819050919050565b61155481611541565b811461155f57600080fd5b50565b6000813590506115718161154b565b92915050565b6000806040838503121561158e5761158d6114de565b5b600061159c8582860161152c565b92505060206115ad85828601611562565b9150509250929050565b60008115159050919050565b6115cc816115b7565b82525050565b60006020820190506115e760008301846115c3565b92915050565b6115f681611541565b82525050565b600060208201905061161160008301846115ed565b92915050565b60006020828403121561162d5761162c6114de565b5b600061163b84828501611562565b91505092915050565b60008060006060848603121561165d5761165c6114de565b5b600061166b8682870161152c565b935050602061167c8682870161152c565b925050604061168d86828701611562565b9150509250925092565b600060ff82169050919050565b6116ad81611697565b82525050565b60006020820190506116c860008301846116a4565b92915050565b6000602082840312156116e4576116e36114de565b5b60006116f28482850161152c565b91505092915050565b61170481611503565b82525050565b600060208201905061171f60008301846116fb565b92915050565b6000806040838503121561173c5761173b6114de565b5b600061174a8582860161152c565b925050602061175b8582860161152c565b9150509250929050565b7f4e487b7100000000000000000000000000000000000000000000000000000000600052602260045260246000fd5b600060028204905060018216806117ac57607f821691505b6020821081036117bf576117be611765565b5b50919050565b7f496e73756666696369656e7420436174436f696e7320746f206465706f736974600082015250565b60006117fb602083611437565b9150611806826117c5565b602082019050919050565b6000602082019050818103600083015261182a816117ee565b9050919050565b7f4e6f7420656e6f75676820436174436f696e7320696e2074686520726573657260008201527f7665000000000000000000000000000000000000000000000000000000000000602082015250565b600061188d602283611437565b915061189882611831565b604082019050919050565b600060208201905081810360008301526118bc81611880565b9050919050565b7f4e487b7100000000000000000000000000000000000000000000000000000000600052601160045260246000fd5b60006118fd82611541565b915061190883611541565b925082820261191681611541565b9150828204841483151761192d5761192c6118c3565b5b5092915050565b7f4554480000000000000000000000000000000000000000000000000000000000600082015250565b600061196a600383611437565b915061197582611934565b602082019050919050565b600060608201905061199560008301856115ed565b6119a260208301846115ed565b81810360408301526119b38161195d565b90509392505050565b600081905092915050565b50565b60006119d76000836119bc565b91506119e2826119c7565b600082019050919050565b60006119f8826119ca565b9150819050919050565b7f43616c6c206661696c6564210000000000000000000000000000000000000000600082015250565b6000611a38600c83611437565b9150611a4382611a02565b602082019050919050565b60006020820190508181036000830152611a6781611a2b565b9050919050565b6000606082019050611a8360008301866116fb565b611a9060208301856115ed565b611a9d60408301846115ed565b949350505050565b6000611ab082611541565b9150611abb83611541565b9250828201905080821115611ad357611ad26118c3565b5b9291505056fea26469706673582212208d16a74c71e49eaf2714f6100076e931596b009b60f1bd1e52de87f654fa278864736f6c63430008180033",
  "linkReferences": {},
  "deployedLinkReferences": {}
}