{
  "_format": "hh-sol-artifact-1",
  "contractName": "CatCoin",
  "sourceName": "contracts/CatCoin.sol",
  "abi": [
    {
      "inputs": [
        {
          "internalType": "address",
          "name": "initialOwner",
          "type": "address"
        },
        {
          "internalType": "uint256",
          "name": "_ethToCatRate",
          "type": "uint256"
        }
      ],
      "stateMutability": "nonpayable",
      "type": "constructor"
    },
    {
      "inputs": [
        {
          "internalType": "address",
          "name": "spender",
          "type": "address"
        },
        {
          "internalType": "uint256",
          "name": "allowance",
          "type": "uint256"
        },
        {
          "internalType": "uint256",
          "name": "needed",
          "type": "uint256"
        }
      ],
      "name": "ERC20InsufficientAllowance",
      "type": "error"
    },
    {
      "inputs": [
        {
          "internalType": "address",
          "name": "sender",
          "type": "address"
        },
        {
          "internalType": "uint256",
          "name": "balance",
          "type": "uint256"
        },
        {
          "internalType": "uint256",
          "name": "needed",
          "type": "uint256"
        }
      ],
      "name": "ERC20InsufficientBalance",
      "type": "error"
    },
    {
      "inputs": [
        {
          "internalType": "address",
          "name": "approver",
          "type": "address"
        }
      ],
      "name": "ERC20InvalidApprover",
      "type": "error"
    },
    {
      "inputs": [
        {
          "internalType": "address",
          "name": "receiver",
          "type": "address"
        }
      ],
      "name": "ERC20InvalidReceiver",
      "type": "error"
    },
    {
      "inputs": [
        {
          "internalType": "address",
          "name": "sender",
          "type": "address"
        }
      ],
      "name": "ERC20InvalidSender",
      "type": "error"
    },
    {
      "inputs": [
        {
          "internalType": "address",
          "name": "spender",
          "type": "address"
        }
      ],
      "name": "ERC20InvalidSpender",
      "type": "error"
    },
    {
      "inputs": [
        {
          "internalType": "address",
          "name": "owner",
          "type": "address"
        }
      ],
      "name": "OwnableInvalidOwner",
      "type": "error"
    },
    {
      "inputs": [
        {
          "internalType": "address",
          "name": "account",
          "type": "address"
        }
      ],
      "name": "OwnableUnauthorizedAccount",
      "type": "error"
    },
    {
      "inputs": [],
      "name": "ReentrancyGuardReentrantCall",
      "type": "error"
    },
    {
      "anonymous": false,
      "inputs": [
        {
          "indexed": true,
          "internalType": "address",
          "name": "owner",
          "type": "address"
        },
        {
          "indexed": true,
          "internalType": "address",
          "name": "spender",
          "type": "address"
        },
        {
          "indexed": false,
          "internalType": "uint256",
          "name": "value",
          "type": "uint256"
        }
      ],
      "name": "Approval",
      "type": "event"
    },
    {
      "anonymous": false,
      "inputs": [
        {
          "indexed": true,
          "internalType": "address",
          "name": "previousOwner",
          "type": "address"
        },
        {
          "indexed": true,
          "internalType": "address",
          "name": "newOwner",
          "type": "address"
        }
      ],
      "name": "OwnershipTransferred",
      "type": "event"
    },
    {
      "anonymous": false,
      "inputs": [
        {
          "indexed": true,
          "internalType": "address",
          "name": "claimer",
          "type": "address"
        },
        {
          "indexed": false,
          "internalType": "uint256",
          "name": "amount",
          "type": "uint256"
        }
      ],
      "name": "TokensEarned",
      "type": "event"
    },
    {
      "anonymous": false,
      "inputs": [
        {
          "indexed": true,
          "internalType": "address",
          "name": "purchaser",
          "type": "address"
        },
        {
          "indexed": false,
          "internalType": "uint256",
          "name": "amount",
          "type": "uint256"
        },
        {
          "indexed": false,
          "internalType": "uint256",
          "name": "rate",
          "type": "uint256"
        },
        {
          "indexed": false,
          "internalType": "string",
          "name": "currency",
          "type": "string"
        }
      ],
      "name": "TokensPurchased",
      "type": "event"
    },
    {
      "anonymous": false,
      "inputs": [
        {
          "indexed": true,
          "internalType": "address",
          "name": "from",
          "type": "address"
        },
        {
          "indexed": true,
          "internalType": "address",
          "name": "to",
          "type": "address"
        },
        {
          "indexed": false,
          "internalType": "uint256",
          "name": "value",
          "type": "uint256"
        }
      ],
      "name": "Transfer",
      "type": "event"
    },
    {
      "inputs": [
        {
          "internalType": "address",
          "name": "owner",
          "type": "address"
        },
        {
          "internalType": "address",
          "name": "spender",
          "type": "address"
        }
      ],
      "name": "allowance",
      "outputs": [
        {
          "internalType": "uint256",
          "name": "",
          "type": "uint256"
        }
      ],
      "stateMutability": "view",
      "type": "function"
    },
    {
      "inputs": [
        {
          "internalType": "address",
          "name": "spender",
          "type": "address"
        },
        {
          "internalType": "uint256",
          "name": "value",
          "type": "uint256"
        }
      ],
      "name": "approve",
      "outputs": [
        {
          "internalType": "bool",
          "name": "",
          "type": "bool"
        }
      ],
      "stateMutability": "nonpayable",
      "type": "function"
    },
    {
      "inputs": [
        {
          "internalType": "address",
          "name": "account",
          "type": "address"
        }
      ],
      "name": "balanceOf",
      "outputs": [
        {
          "internalType": "uint256",
          "name": "",
          "type": "uint256"
        }
      ],
      "stateMutability": "view",
      "type": "function"
    },
    {
      "inputs": [],
      "name": "buyCatCoinWithETH",
      "outputs": [],
      "stateMutability": "payable",
      "type": "function"
    },
    {
      "inputs": [
        {
          "internalType": "uint256",
          "name": "amount",
          "type": "uint256"
        }
      ],
      "name": "claim",
      "outputs": [],
      "stateMutability": "nonpayable",
      "type": "function"
    },
    {
      "inputs": [],
      "name": "decimals",
      "outputs": [
        {
          "internalType": "uint8",
          "name": "",
          "type": "uint8"
        }
      ],
      "stateMutability": "view",
      "type": "function"
    },
    {
      "inputs": [
        {
          "internalType": "uint256",
          "name": "amount",
          "type": "uint256"
        }
      ],
      "name": "depositCatCoins",
      "outputs": [],
      "stateMutability": "nonpayable",
      "type": "function"
    },
    {
      "inputs": [],
      "name": "ethToCatRate",
      "outputs": [
        {
          "internalType": "uint256",
          "name": "",
          "type": "uint256"
        }
      ],
      "stateMutability": "view",
      "type": "function"
    },
    {
      "inputs": [],
      "name": "getEthToCatRate",
      "outputs": [
        {
          "internalType": "uint256",
          "name": "",
          "type": "uint256"
        }
      ],
      "stateMutability": "view",
      "type": "function"
    },
    {
      "inputs": [
        {
          "internalType": "address",
          "name": "to",
          "type": "address"
        },
        {
          "internalType": "uint256",
          "name": "amount",
          "type": "uint256"
        }
      ],
      "name": "mint",
      "outputs": [],
      "stateMutability": "nonpayable",
      "type": "function"
    },
    {
      "inputs": [],
      "name": "name",
      "outputs": [
        {
          "internalType": "string",
          "name": "",
          "type": "string"
        }
      ],
      "stateMutability": "view",
      "type": "function"
    },
    {
      "inputs": [],
      "name": "owner",
      "outputs": [
        {
          "internalType": "address",
          "name": "",
          "type": "address"
        }
      ],
      "stateMutability": "view",
      "type": "function"
    },
    {
      "inputs": [],
      "name": "renounceOwnership",
      "outputs": [],
      "stateMutability": "nonpayable",
      "type": "function"
    },
    {
      "inputs": [],
      "name": "symbol",
      "outputs": [
        {
          "internalType": "string",
          "name": "",
          "type": "string"
        }
      ],
      "stateMutability": "view",
      "type": "function"
    },
    {
      "inputs": [],
      "name": "totalSupply",
      "outputs": [
        {
          "internalType": "uint256",
          "name": "",
          "type": "uint256"
        }
      ],
      "stateMutability": "view",
      "type": "function"
    },
    {
      "inputs": [
        {
          "internalType": "address",
          "name": "to",
          "type": "address"
        },
        {
          "internalType": "uint256",
          "name": "value",
          "type": "uint256"
        }
      ],
      "name": "transfer",
      "outputs": [
        {
          "internalType": "bool",
          "name": "",
          "type": "bool"
        }
      ],
      "stateMutability": "nonpayable",
      "type": "function"
    },
    {
      "inputs": [
        {
          "internalType": "address",
          "name": "from",
          "type": "address"
        },
        {
          "internalType": "address",
          "name": "to",
          "type": "address"
        },
        {
          "internalType": "uint256",
          "name": "value",
          "type": "uint256"
        }
      ],
      "name": "transferFrom",
      "outputs": [
        {
          "internalType": "bool",
          "name": "",
          "type": "bool"
        }
      ],
      "stateMutability": "nonpayable",
      "type": "function"
    },
    {
      "inputs": [
        {
          "internalType": "address",
          "name": "newOwner",
          "type": "address"
        }
      ],
      "name": "transferOwnership",
      "outputs": [],
      "stateMutability": "nonpayable",
      "type": "function"
    },
    {
      "inputs": [
        {
          "internalType": "uint256",
          "name": "newRate",
          "type": "uint256"
        }
      ],
      "name": "updateEthToCatRate",
      "outputs": [],
      "stateMutability": "nonpayable",
      "type": "function"
    },
    {
      "inputs": [],
      "name": "withdrawEth",
      "outputs": [],
      "stateMutability": "nonpayable",
      "type": "function"
    }
  ],
  "bytecode": "0x60806040523480156200001157600080fd5b50604051620025af380380620025af8339818101604052810190620000379190620005d7565b816040518060400160405280600381526020017f43617400000000000000000000000000000000000000000000000000000000008152506040518060400160405280600381526020017f43415400000000000000000000000000000000000000000000000000000000008152508160039081620000b591906200088e565b508060049081620000c791906200088e565b505050600073ffffffffffffffffffffffffffffffffffffffff168173ffffffffffffffffffffffffffffffffffffffff16036200013f5760006040517f1e4fbdf700000000000000000000000000000000000000000000000000000000815260040162000136919062000986565b60405180910390fd5b6200015081620001a660201b60201c565b50600160068190555062000197306200016e6200026c60201b60201c565b600a6200017c919062000b33565b6127106200018b919062000b84565b6200027560201b60201c565b80600781905550505062000c75565b6000600560009054906101000a900473ffffffffffffffffffffffffffffffffffffffff16905081600560006101000a81548173ffffffffffffffffffffffffffffffffffffffff021916908373ffffffffffffffffffffffffffffffffffffffff1602179055508173ffffffffffffffffffffffffffffffffffffffff168173ffffffffffffffffffffffffffffffffffffffff167f8be0079c531659141344cd1fd0a4f28419497f9722a3daafe3b4186f6b6457e060405160405180910390a35050565b60006012905090565b600073ffffffffffffffffffffffffffffffffffffffff168273ffffffffffffffffffffffffffffffffffffffff1603620002ea5760006040517fec442f05000000000000000000000000000000000000000000000000000000008152600401620002e1919062000986565b60405180910390fd5b620002fe600083836200030260201b60201c565b5050565b600073ffffffffffffffffffffffffffffffffffffffff168373ffffffffffffffffffffffffffffffffffffffff1603620003585780600260008282546200034b919062000bcf565b925050819055506200042e565b60008060008573ffffffffffffffffffffffffffffffffffffffff1673ffffffffffffffffffffffffffffffffffffffff16815260200190815260200160002054905081811015620003e7578381836040517fe450d38c000000000000000000000000000000000000000000000000000000008152600401620003de9392919062000c1b565b60405180910390fd5b8181036000808673ffffffffffffffffffffffffffffffffffffffff1673ffffffffffffffffffffffffffffffffffffffff16815260200190815260200160002081905550505b600073ffffffffffffffffffffffffffffffffffffffff168273ffffffffffffffffffffffffffffffffffffffff1603620004795780600260008282540392505081905550620004c6565b806000808473ffffffffffffffffffffffffffffffffffffffff1673ffffffffffffffffffffffffffffffffffffffff168152602001908152602001600020600082825401925050819055505b8173ffffffffffffffffffffffffffffffffffffffff168373ffffffffffffffffffffffffffffffffffffffff167fddf252ad1be2c89b69c2b068fc378daa952ba7f163c4a11628f55a4df523b3ef8360405162000525919062000c58565b60405180910390a3505050565b600080fd5b600073ffffffffffffffffffffffffffffffffffffffff82169050919050565b6000620005648262000537565b9050919050565b620005768162000557565b81146200058257600080fd5b50565b60008151905062000596816200056b565b92915050565b6000819050919050565b620005b1816200059c565b8114620005bd57600080fd5b50565b600081519050620005d181620005a6565b92915050565b60008060408385031215620005f157620005f062000532565b5b6000620006018582860162000585565b92505060206200061485828601620005c0565b9150509250929050565b600081519050919050565b7f4e487b7100000000000000000000000000000000000000000000000000000000600052604160045260246000fd5b7f4e487b7100000000000000000000000000000000000000000000000000000000600052602260045260246000fd5b60006002820490506001821680620006a057607f821691505b602082108103620006b657620006b562000658565b5b50919050565b60008190508160005260206000209050919050565b60006020601f8301049050919050565b600082821b905092915050565b600060088302620007207fffffffffffffffffffffffffffffffffffffffffffffffffffffffffffffffff82620006e1565b6200072c8683620006e1565b95508019841693508086168417925050509392505050565b6000819050919050565b60006200076f6200076962000763846200059c565b62000744565b6200059c565b9050919050565b6000819050919050565b6200078b836200074e565b620007a36200079a8262000776565b848454620006ee565b825550505050565b600090565b620007ba620007ab565b620007c781848462000780565b505050565b5b81811015620007ef57620007e3600082620007b0565b600181019050620007cd565b5050565b601f8211156200083e576200080881620006bc565b6200081384620006d1565b8101602085101562000823578190505b6200083b6200083285620006d1565b830182620007cc565b50505b505050565b600082821c905092915050565b6000620008636000198460080262000843565b1980831691505092915050565b60006200087e838362000850565b9150826002028217905092915050565b62000899826200061e565b67ffffffffffffffff811115620008b557620008b462000629565b5b620008c1825462000687565b620008ce828285620007f3565b600060209050601f831160018114620009065760008415620008f1578287015190505b620008fd858262000870565b8655506200096d565b601f1984166200091686620006bc565b60005b82811015620009405784890151825560018201915060208501945060208101905062000919565b868310156200096057848901516200095c601f89168262000850565b8355505b6001600288020188555050505b505050505050565b620009808162000557565b82525050565b60006020820190506200099d600083018462000975565b92915050565b7f4e487b7100000000000000000000000000000000000000000000000000000000600052601160045260246000fd5b60008160011c9050919050565b6000808291508390505b600185111562000a315780860481111562000a095762000a08620009a3565b5b600185161562000a195780820291505b808102905062000a2985620009d2565b9450620009e9565b94509492505050565b60008262000a4c576001905062000b1f565b8162000a5c576000905062000b1f565b816001811462000a75576002811462000a805762000ab6565b600191505062000b1f565b60ff84111562000a955762000a94620009a3565b5b8360020a91508482111562000aaf5762000aae620009a3565b5b5062000b1f565b5060208310610133831016604e8410600b841016171562000af05782820a90508381111562000aea5762000ae9620009a3565b5b62000b1f565b62000aff8484846001620009df565b9250905081840481111562000b195762000b18620009a3565b5b81810290505b9392505050565b600060ff82169050919050565b600062000b40826200059c565b915062000b4d8362000b26565b925062000b7c7fffffffffffffffffffffffffffffffffffffffffffffffffffffffffffffffff848462000a3a565b905092915050565b600062000b91826200059c565b915062000b9e836200059c565b925082820262000bae816200059c565b9150828204841483151762000bc85762000bc7620009a3565b5b5092915050565b600062000bdc826200059c565b915062000be9836200059c565b925082820190508082111562000c045762000c03620009a3565b5b92915050565b62000c15816200059c565b82525050565b600060608201905062000c32600083018662000975565b62000c41602083018562000c0a565b62000c50604083018462000c0a565b949350505050565b600060208201905062000c6f600083018462000c0a565b92915050565b61192a8062000c856000396000f3fe60806040526004361061011f5760003560e01c806370a08231116100a0578063a0ef91df11610064578063a0ef91df146103a4578063a9059cbb146103bb578063dd62ed3e146103f8578063ebaa0bbc14610435578063f2fde38b1461045e5761011f565b806370a08231146102f0578063715018a61461032d5780638da5cb5b1461034457806395d89b411461036f5780639a87069e1461039a5761011f565b80631aa6e2ca116100e75780631aa6e2ca1461020b57806323b872dd14610236578063313ce56714610273578063379607f51461029e57806340c10f19146102c75761011f565b806306fdde0314610124578063095ea7b31461014f5780630b4520131461018c5780630f61643c146101b757806318160ddd146101e0575b600080fd5b34801561013057600080fd5b50610139610487565b60405161014691906112d7565b60405180910390f35b34801561015b57600080fd5b5061017660048036038101906101719190611392565b610519565b60405161018391906113ed565b60405180910390f35b34801561019857600080fd5b506101a161053c565b6040516101ae9190611417565b60405180910390f35b3480156101c357600080fd5b506101de60048036038101906101d99190611432565b610546565b005b3480156101ec57600080fd5b506101f56105a7565b6040516102029190611417565b60405180910390f35b34801561021757600080fd5b506102206105b1565b60405161022d9190611417565b60405180910390f35b34801561024257600080fd5b5061025d6004803603810190610258919061145f565b6105b7565b60405161026a91906113ed565b60405180910390f35b34801561027f57600080fd5b506102886105e6565b60405161029591906114ce565b60405180910390f35b3480156102aa57600080fd5b506102c560048036038101906102c09190611432565b6105ef565b005b3480156102d357600080fd5b506102ee60048036038101906102e99190611392565b610696565b005b3480156102fc57600080fd5b50610317600480360381019061031291906114e9565b6106ac565b6040516103249190611417565b60405180910390f35b34801561033957600080fd5b506103426106f4565b005b34801561035057600080fd5b50610359610708565b6040516103669190611525565b60405180910390f35b34801561037b57600080fd5b50610384610732565b60405161039191906112d7565b60405180910390f35b6103a26107c4565b005b3480156103b057600080fd5b506103b9610891565b005b3480156103c757600080fd5b506103e260048036038101906103dd9190611392565b610948565b6040516103ef91906113ed565b60405180910390f35b34801561040457600080fd5b5061041f600480360381019061041a9190611540565b61096b565b60405161042c9190611417565b60405180910390f35b34801561044157600080fd5b5061045c60048036038101906104579190611432565b6109f2565b005b34801561046a57600080fd5b50610485600480360381019061048091906114e9565b610a04565b005b606060038054610496906115af565b80601f01602080910402602001604051908101604052809291908181526020018280546104c2906115af565b801561050f5780601f106104e45761010080835404028352916020019161050f565b820191906000526020600020905b8154815290600101906020018083116104f257829003601f168201915b5050505050905090565b600080610524610a8a565b9050610531818585610a92565b600191505092915050565b6000600754905090565b61054e610aa4565b80610558336106ac565b1015610599576040517f08c379a00000000000000000000000000000000000000000000000000000000081526004016105909061162c565b60405180910390fd5b6105a4333083610b2b565b50565b6000600254905090565b60075481565b6000806105c2610a8a565b90506105cf858285610c1f565b6105da858585610b2b565b60019150509392505050565b60006012905090565b806105f9306106ac565b101561063a576040517f08c379a0000000000000000000000000000000000000000000000000000000008152600401610631906116be565b60405180910390fd5b610645303383610b2b565b3373ffffffffffffffffffffffffffffffffffffffff167f949b66d6baaf4912605d046be8fef8d8dac6040bb52018e69a7a805279fbeb158260405161068b9190611417565b60405180910390a250565b61069e610aa4565b6106a88282610cb3565b5050565b60008060008373ffffffffffffffffffffffffffffffffffffffff1673ffffffffffffffffffffffffffffffffffffffff168152602001908152602001600020549050919050565b6106fc610aa4565b6107066000610d35565b565b6000600560009054906101000a900473ffffffffffffffffffffffffffffffffffffffff16905090565b606060048054610741906115af565b80601f016020809104026020016040519081016040528092919081815260200182805461076d906115af565b80156107ba5780601f1061078f576101008083540402835291602001916107ba565b820191906000526020600020905b81548152906001019060200180831161079d57829003601f168201915b5050505050905090565b6107cc610dfb565b6000600754346107dc919061170d565b9050806107e8306106ac565b1015610829576040517f08c379a0000000000000000000000000000000000000000000000000000000008152600401610820906116be565b60405180910390fd5b610834303383610b2b565b3373ffffffffffffffffffffffffffffffffffffffff167fe8e3aa9086f33aa1d89447fc3a792fafabd987374e660b040e31787d68b5fe068260075460405161087e92919061179b565b60405180910390a25061088f610e41565b565b610899610aa4565b60003373ffffffffffffffffffffffffffffffffffffffff16476040516108bf90611808565b60006040518083038185875af1925050503d80600081146108fc576040519150601f19603f3d011682016040523d82523d6000602084013e610901565b606091505b5050905080610945576040517f08c379a000000000000000000000000000000000000000000000000000000000815260040161093c90611869565b60405180910390fd5b50565b600080610953610a8a565b9050610960818585610b2b565b600191505092915050565b6000600160008473ffffffffffffffffffffffffffffffffffffffff1673ffffffffffffffffffffffffffffffffffffffff16815260200190815260200160002060008373ffffffffffffffffffffffffffffffffffffffff1673ffffffffffffffffffffffffffffffffffffffff16815260200190815260200160002054905092915050565b6109fa610aa4565b8060078190555050565b610a0c610aa4565b600073ffffffffffffffffffffffffffffffffffffffff168173ffffffffffffffffffffffffffffffffffffffff1603610a7e5760006040517f1e4fbdf7000000000000000000000000000000000000000000000000000000008152600401610a759190611525565b60405180910390fd5b610a8781610d35565b50565b600033905090565b610a9f8383836001610e4b565b505050565b610aac610a8a565b73ffffffffffffffffffffffffffffffffffffffff16610aca610708565b73ffffffffffffffffffffffffffffffffffffffff1614610b2957610aed610a8a565b6040517f118cdaa7000000000000000000000000000000000000000000000000000000008152600401610b209190611525565b60405180910390fd5b565b600073ffffffffffffffffffffffffffffffffffffffff168373ffffffffffffffffffffffffffffffffffffffff1603610b9d5760006040517f96c6fd1e000000000000000000000000000000000000000000000000000000008152600401610b949190611525565b60405180910390fd5b600073ffffffffffffffffffffffffffffffffffffffff168273ffffffffffffffffffffffffffffffffffffffff1603610c0f5760006040517fec442f05000000000000000000000000000000000000000000000000000000008152600401610c069190611525565b60405180910390fd5b610c1a838383611022565b505050565b6000610c2b848461096b565b90507fffffffffffffffffffffffffffffffffffffffffffffffffffffffffffffffff8114610cad5781811015610c9d578281836040517ffb8f41b2000000000000000000000000000000000000000000000000000000008152600401610c9493929190611889565b60405180910390fd5b610cac84848484036000610e4b565b5b50505050565b600073ffffffffffffffffffffffffffffffffffffffff168273ffffffffffffffffffffffffffffffffffffffff1603610d255760006040517fec442f05000000000000000000000000000000000000000000000000000000008152600401610d1c9190611525565b60405180910390fd5b610d3160008383611022565b5050565b6000600560009054906101000a900473ffffffffffffffffffffffffffffffffffffffff16905081600560006101000a81548173ffffffffffffffffffffffffffffffffffffffff021916908373ffffffffffffffffffffffffffffffffffffffff1602179055508173ffffffffffffffffffffffffffffffffffffffff168173ffffffffffffffffffffffffffffffffffffffff167f8be0079c531659141344cd1fd0a4f28419497f9722a3daafe3b4186f6b6457e060405160405180910390a35050565b600260065403610e37576040517f3ee5aeb500000000000000000000000000000000000000000000000000000000815260040160405180910390fd5b6002600681905550565b6001600681905550565b600073ffffffffffffffffffffffffffffffffffffffff168473ffffffffffffffffffffffffffffffffffffffff1603610ebd5760006040517fe602df05000000000000000000000000000000000000000000000000000000008152600401610eb49190611525565b60405180910390fd5b600073ffffffffffffffffffffffffffffffffffffffff168373ffffffffffffffffffffffffffffffffffffffff1603610f2f5760006040517f94280d62000000000000000000000000000000000000000000000000000000008152600401610f269190611525565b60405180910390fd5b81600160008673ffffffffffffffffffffffffffffffffffffffff1673ffffffffffffffffffffffffffffffffffffffff16815260200190815260200160002060008573ffffffffffffffffffffffffffffffffffffffff1673ffffffffffffffffffffffffffffffffffffffff16815260200190815260200160002081905550801561101c578273ffffffffffffffffffffffffffffffffffffffff168473ffffffffffffffffffffffffffffffffffffffff167f8c5be1e5ebec7d5bd14f71427d1e84f3dd0314c0f7b2291e5b200ac8c7c3b925846040516110139190611417565b60405180910390a35b50505050565b600073ffffffffffffffffffffffffffffffffffffffff168373ffffffffffffffffffffffffffffffffffffffff160361107457806002600082825461106891906118c0565b92505081905550611147565b60008060008573ffffffffffffffffffffffffffffffffffffffff1673ffffffffffffffffffffffffffffffffffffffff16815260200190815260200160002054905081811015611100578381836040517fe450d38c0000000000000000000000000000000000000000000000000000000081526004016110f793929190611889565b60405180910390fd5b8181036000808673ffffffffffffffffffffffffffffffffffffffff1673ffffffffffffffffffffffffffffffffffffffff16815260200190815260200160002081905550505b600073ffffffffffffffffffffffffffffffffffffffff168273ffffffffffffffffffffffffffffffffffffffff160361119057806002600082825403925050819055506111dd565b806000808473ffffffffffffffffffffffffffffffffffffffff1673ffffffffffffffffffffffffffffffffffffffff168152602001908152602001600020600082825401925050819055505b8173ffffffffffffffffffffffffffffffffffffffff168373ffffffffffffffffffffffffffffffffffffffff167fddf252ad1be2c89b69c2b068fc378daa952ba7f163c4a11628f55a4df523b3ef8360405161123a9190611417565b60405180910390a3505050565b600081519050919050565b600082825260208201905092915050565b60005b83811015611281578082015181840152602081019050611266565b60008484015250505050565b6000601f19601f8301169050919050565b60006112a982611247565b6112b38185611252565b93506112c3818560208601611263565b6112cc8161128d565b840191505092915050565b600060208201905081810360008301526112f1818461129e565b905092915050565b600080fd5b600073ffffffffffffffffffffffffffffffffffffffff82169050919050565b6000611329826112fe565b9050919050565b6113398161131e565b811461134457600080fd5b50565b60008135905061135681611330565b92915050565b6000819050919050565b61136f8161135c565b811461137a57600080fd5b50565b60008135905061138c81611366565b92915050565b600080604083850312156113a9576113a86112f9565b5b60006113b785828601611347565b92505060206113c88582860161137d565b9150509250929050565b60008115159050919050565b6113e7816113d2565b82525050565b600060208201905061140260008301846113de565b92915050565b6114118161135c565b82525050565b600060208201905061142c6000830184611408565b92915050565b600060208284031215611448576114476112f9565b5b60006114568482850161137d565b91505092915050565b600080600060608486031215611478576114776112f9565b5b600061148686828701611347565b935050602061149786828701611347565b92505060406114a88682870161137d565b9150509250925092565b600060ff82169050919050565b6114c8816114b2565b82525050565b60006020820190506114e360008301846114bf565b92915050565b6000602082840312156114ff576114fe6112f9565b5b600061150d84828501611347565b91505092915050565b61151f8161131e565b82525050565b600060208201905061153a6000830184611516565b92915050565b60008060408385031215611557576115566112f9565b5b600061156585828601611347565b925050602061157685828601611347565b9150509250929050565b7f4e487b7100000000000000000000000000000000000000000000000000000000600052602260045260246000fd5b600060028204905060018216806115c757607f821691505b6020821081036115da576115d9611580565b5b50919050565b7f496e73756666696369656e7420436174436f696e7320746f206465706f736974600082015250565b6000611616602083611252565b9150611621826115e0565b602082019050919050565b6000602082019050818103600083015261164581611609565b9050919050565b7f4e6f7420656e6f75676820436174436f696e7320696e2074686520726573657260008201527f7665000000000000000000000000000000000000000000000000000000000000602082015250565b60006116a8602283611252565b91506116b38261164c565b604082019050919050565b600060208201905081810360008301526116d78161169b565b9050919050565b7f4e487b7100000000000000000000000000000000000000000000000000000000600052601160045260246000fd5b60006117188261135c565b91506117238361135c565b92508282026117318161135c565b91508282048414831517611748576117476116de565b5b5092915050565b7f4554480000000000000000000000000000000000000000000000000000000000600082015250565b6000611785600383611252565b91506117908261174f565b602082019050919050565b60006060820190506117b06000830185611408565b6117bd6020830184611408565b81810360408301526117ce81611778565b90509392505050565b600081905092915050565b50565b60006117f26000836117d7565b91506117fd826117e2565b600082019050919050565b6000611813826117e5565b9150819050919050565b7f43616c6c206661696c6564210000000000000000000000000000000000000000600082015250565b6000611853600c83611252565b915061185e8261181d565b602082019050919050565b6000602082019050818103600083015261188281611846565b9050919050565b600060608201905061189e6000830186611516565b6118ab6020830185611408565b6118b86040830184611408565b949350505050565b60006118cb8261135c565b91506118d68361135c565b92508282019050808211156118ee576118ed6116de565b5b9291505056fea264697066735822122093eebfc54c0b9c62428631aabc82191176a141707c9d75c2d08992f721eb899964736f6c63430008180033",
  "linkReferences": {},
  "deployedLinkReferences": {}
}