{
    "_format": "hh-sol-artifact-1",
    "contractName": "CatCoin",
    "sourceName": "contracts/CatCoin.sol",
    "abi": [
        {
            "inputs": [
                {
                    "internalType": "address",
                    "name": "initialOwner",
                    "type": "address"
                },
                {
                    "internalType": "uint256",
                    "name": "_ethToCatRate",
                    "type": "uint256"
                }
            ],
            "stateMutability": "nonpayable",
            "type": "constructor"
        },
        {
            "inputs": [
                {
                    "internalType": "address",
                    "name": "spender",
                    "type": "address"
                },
                {
                    "internalType": "uint256",
                    "name": "allowance",
                    "type": "uint256"
                },
                {
                    "internalType": "uint256",
                    "name": "needed",
                    "type": "uint256"
                }
            ],
            "name": "ERC20InsufficientAllowance",
            "type": "error"
        },
        {
            "inputs": [
                {
                    "internalType": "address",
                    "name": "sender",
                    "type": "address"
                },
                {
                    "internalType": "uint256",
                    "name": "balance",
                    "type": "uint256"
                },
                {
                    "internalType": "uint256",
                    "name": "needed",
                    "type": "uint256"
                }
            ],
            "name": "ERC20InsufficientBalance",
            "type": "error"
        },
        {
            "inputs": [
                {
                    "internalType": "address",
                    "name": "approver",
                    "type": "address"
                }
            ],
            "name": "ERC20InvalidApprover",
            "type": "error"
        },
        {
            "inputs": [
                {
                    "internalType": "address",
                    "name": "receiver",
                    "type": "address"
                }
            ],
            "name": "ERC20InvalidReceiver",
            "type": "error"
        },
        {
            "inputs": [
                {
                    "internalType": "address",
                    "name": "sender",
                    "type": "address"
                }
            ],
            "name": "ERC20InvalidSender",
            "type": "error"
        },
        {
            "inputs": [
                {
                    "internalType": "address",
                    "name": "spender",
                    "type": "address"
                }
            ],
            "name": "ERC20InvalidSpender",
            "type": "error"
        },
        {
            "inputs": [
                {
                    "internalType": "address",
                    "name": "owner",
                    "type": "address"
                }
            ],
            "name": "OwnableInvalidOwner",
            "type": "error"
        },
        {
            "inputs": [
                {
                    "internalType": "address",
                    "name": "account",
                    "type": "address"
                }
            ],
            "name": "OwnableUnauthorizedAccount",
            "type": "error"
        },
        {
            "inputs": [],
            "name": "ReentrancyGuardReentrantCall",
            "type": "error"
        },
        {
            "anonymous": false,
            "inputs": [
                {
                    "indexed": true,
                    "internalType": "address",
                    "name": "owner",
                    "type": "address"
                },
                {
                    "indexed": true,
                    "internalType": "address",
                    "name": "spender",
                    "type": "address"
                },
                {
                    "indexed": false,
                    "internalType": "uint256",
                    "name": "value",
                    "type": "uint256"
                }
            ],
            "name": "Approval",
            "type": "event"
        },
        {
            "anonymous": false,
            "inputs": [
                {
                    "indexed": true,
                    "internalType": "address",
                    "name": "previousOwner",
                    "type": "address"
                },
                {
                    "indexed": true,
                    "internalType": "address",
                    "name": "newOwner",
                    "type": "address"
                }
            ],
            "name": "OwnershipTransferred",
            "type": "event"
        },
        {
            "anonymous": false,
            "inputs": [
                {
                    "indexed": true,
                    "internalType": "address",
                    "name": "purchaser",
                    "type": "address"
                },
                {
                    "indexed": false,
                    "internalType": "uint256",
                    "name": "amount",
                    "type": "uint256"
                },
                {
                    "indexed": false,
                    "internalType": "uint256",
                    "name": "rate",
                    "type": "uint256"
                },
                {
                    "indexed": false,
                    "internalType": "string",
                    "name": "currency",
                    "type": "string"
                }
            ],
            "name": "TokensPurchased",
            "type": "event"
        },
        {
            "anonymous": false,
            "inputs": [
                {
                    "indexed": true,
                    "internalType": "address",
                    "name": "from",
                    "type": "address"
                },
                {
                    "indexed": true,
                    "internalType": "address",
                    "name": "to",
                    "type": "address"
                },
                {
                    "indexed": false,
                    "internalType": "uint256",
                    "name": "value",
                    "type": "uint256"
                }
            ],
            "name": "Transfer",
            "type": "event"
        },
        {
            "inputs": [
                {
                    "internalType": "address",
                    "name": "owner",
                    "type": "address"
                },
                {
                    "internalType": "address",
                    "name": "spender",
                    "type": "address"
                }
            ],
            "name": "allowance",
            "outputs": [
                {
                    "internalType": "uint256",
                    "name": "",
                    "type": "uint256"
                }
            ],
            "stateMutability": "view",
            "type": "function"
        },
        {
            "inputs": [
                {
                    "internalType": "address",
                    "name": "spender",
                    "type": "address"
                },
                {
                    "internalType": "uint256",
                    "name": "value",
                    "type": "uint256"
                }
            ],
            "name": "approve",
            "outputs": [
                {
                    "internalType": "bool",
                    "name": "",
                    "type": "bool"
                }
            ],
            "stateMutability": "nonpayable",
            "type": "function"
        },
        {
            "inputs": [
                {
                    "internalType": "address",
                    "name": "account",
                    "type": "address"
                }
            ],
            "name": "balanceOf",
            "outputs": [
                {
                    "internalType": "uint256",
                    "name": "",
                    "type": "uint256"
                }
            ],
            "stateMutability": "view",
            "type": "function"
        },
        {
            "inputs": [],
            "name": "buyCatCoinWithETH",
            "outputs": [],
            "stateMutability": "payable",
            "type": "function"
        },
        {
            "inputs": [],
            "name": "decimals",
            "outputs": [
                {
                    "internalType": "uint8",
                    "name": "",
                    "type": "uint8"
                }
            ],
            "stateMutability": "view",
            "type": "function"
        },
        {
            "inputs": [
                {
                    "internalType": "uint256",
                    "name": "amount",
                    "type": "uint256"
                }
            ],
            "name": "depositCatCoins",
            "outputs": [],
            "stateMutability": "nonpayable",
            "type": "function"
        },
        {
            "inputs": [],
            "name": "ethToCatRate",
            "outputs": [
                {
                    "internalType": "uint256",
                    "name": "",
                    "type": "uint256"
                }
            ],
            "stateMutability": "view",
            "type": "function"
        },
        {
            "inputs": [
                {
                    "internalType": "address",
                    "name": "to",
                    "type": "address"
                },
                {
                    "internalType": "uint256",
                    "name": "amount",
                    "type": "uint256"
                }
            ],
            "name": "mint",
            "outputs": [],
            "stateMutability": "nonpayable",
            "type": "function"
        },
        {
            "inputs": [],
            "name": "name",
            "outputs": [
                {
                    "internalType": "string",
                    "name": "",
                    "type": "string"
                }
            ],
            "stateMutability": "view",
            "type": "function"
        },
        {
            "inputs": [],
            "name": "owner",
            "outputs": [
                {
                    "internalType": "address",
                    "name": "",
                    "type": "address"
                }
            ],
            "stateMutability": "view",
            "type": "function"
        },
        {
            "inputs": [],
            "name": "renounceOwnership",
            "outputs": [],
            "stateMutability": "nonpayable",
            "type": "function"
        },
        {
            "inputs": [],
            "name": "symbol",
            "outputs": [
                {
                    "internalType": "string",
                    "name": "",
                    "type": "string"
                }
            ],
            "stateMutability": "view",
            "type": "function"
        },
        {
            "inputs": [],
            "name": "totalSupply",
            "outputs": [
                {
                    "internalType": "uint256",
                    "name": "",
                    "type": "uint256"
                }
            ],
            "stateMutability": "view",
            "type": "function"
        },
        {
            "inputs": [
                {
                    "internalType": "address",
                    "name": "to",
                    "type": "address"
                },
                {
                    "internalType": "uint256",
                    "name": "value",
                    "type": "uint256"
                }
            ],
            "name": "transfer",
            "outputs": [
                {
                    "internalType": "bool",
                    "name": "",
                    "type": "bool"
                }
            ],
            "stateMutability": "nonpayable",
            "type": "function"
        },
        {
            "inputs": [
                {
                    "internalType": "address",
                    "name": "from",
                    "type": "address"
                },
                {
                    "internalType": "address",
                    "name": "to",
                    "type": "address"
                },
                {
                    "internalType": "uint256",
                    "name": "value",
                    "type": "uint256"
                }
            ],
            "name": "transferFrom",
            "outputs": [
                {
                    "internalType": "bool",
                    "name": "",
                    "type": "bool"
                }
            ],
            "stateMutability": "nonpayable",
            "type": "function"
        },
        {
            "inputs": [
                {
                    "internalType": "address",
                    "name": "newOwner",
                    "type": "address"
                }
            ],
            "name": "transferOwnership",
            "outputs": [],
            "stateMutability": "nonpayable",
            "type": "function"
        },
        {
            "inputs": [
                {
                    "internalType": "uint256",
                    "name": "newRate",
                    "type": "uint256"
                }
            ],
            "name": "updateEthToCatRate",
            "outputs": [],
            "stateMutability": "nonpayable",
            "type": "function"
        },
        {
            "inputs": [
                {
                    "internalType": "uint256",
                    "name": "amount",
                    "type": "uint256"
                }
            ],
            "name": "withdrawEth",
            "outputs": [],
            "stateMutability": "nonpayable",
            "type": "function"
        }
    ],
    "bytecode": "0x60806040523480156200001157600080fd5b50604051620022df380380620022df8339818101604052810190620000379190620005d7565b816040518060400160405280600381526020017f43617400000000000000000000000000000000000000000000000000000000008152506040518060400160405280600381526020017f43415400000000000000000000000000000000000000000000000000000000008152508160039081620000b591906200088e565b508060049081620000c791906200088e565b505050600073ffffffffffffffffffffffffffffffffffffffff168173ffffffffffffffffffffffffffffffffffffffff16036200013f5760006040517f1e4fbdf700000000000000000000000000000000000000000000000000000000815260040162000136919062000986565b60405180910390fd5b6200015081620001a660201b60201c565b50600160068190555062000197306200016e6200026c60201b60201c565b600a6200017c919062000b33565b6127106200018b919062000b84565b6200027560201b60201c565b80600781905550505062000c75565b6000600560009054906101000a900473ffffffffffffffffffffffffffffffffffffffff16905081600560006101000a81548173ffffffffffffffffffffffffffffffffffffffff021916908373ffffffffffffffffffffffffffffffffffffffff1602179055508173ffffffffffffffffffffffffffffffffffffffff168173ffffffffffffffffffffffffffffffffffffffff167f8be0079c531659141344cd1fd0a4f28419497f9722a3daafe3b4186f6b6457e060405160405180910390a35050565b60006012905090565b600073ffffffffffffffffffffffffffffffffffffffff168273ffffffffffffffffffffffffffffffffffffffff1603620002ea5760006040517fec442f05000000000000000000000000000000000000000000000000000000008152600401620002e1919062000986565b60405180910390fd5b620002fe600083836200030260201b60201c565b5050565b600073ffffffffffffffffffffffffffffffffffffffff168373ffffffffffffffffffffffffffffffffffffffff1603620003585780600260008282546200034b919062000bcf565b925050819055506200042e565b60008060008573ffffffffffffffffffffffffffffffffffffffff1673ffffffffffffffffffffffffffffffffffffffff16815260200190815260200160002054905081811015620003e7578381836040517fe450d38c000000000000000000000000000000000000000000000000000000008152600401620003de9392919062000c1b565b60405180910390fd5b8181036000808673ffffffffffffffffffffffffffffffffffffffff1673ffffffffffffffffffffffffffffffffffffffff16815260200190815260200160002081905550505b600073ffffffffffffffffffffffffffffffffffffffff168273ffffffffffffffffffffffffffffffffffffffff1603620004795780600260008282540392505081905550620004c6565b806000808473ffffffffffffffffffffffffffffffffffffffff1673ffffffffffffffffffffffffffffffffffffffff168152602001908152602001600020600082825401925050819055505b8173ffffffffffffffffffffffffffffffffffffffff168373ffffffffffffffffffffffffffffffffffffffff167fddf252ad1be2c89b69c2b068fc378daa952ba7f163c4a11628f55a4df523b3ef8360405162000525919062000c58565b60405180910390a3505050565b600080fd5b600073ffffffffffffffffffffffffffffffffffffffff82169050919050565b6000620005648262000537565b9050919050565b620005768162000557565b81146200058257600080fd5b50565b60008151905062000596816200056b565b92915050565b6000819050919050565b620005b1816200059c565b8114620005bd57600080fd5b50565b600081519050620005d181620005a6565b92915050565b60008060408385031215620005f157620005f062000532565b5b6000620006018582860162000585565b92505060206200061485828601620005c0565b9150509250929050565b600081519050919050565b7f4e487b7100000000000000000000000000000000000000000000000000000000600052604160045260246000fd5b7f4e487b7100000000000000000000000000000000000000000000000000000000600052602260045260246000fd5b60006002820490506001821680620006a057607f821691505b602082108103620006b657620006b562000658565b5b50919050565b60008190508160005260206000209050919050565b60006020601f8301049050919050565b600082821b905092915050565b600060088302620007207fffffffffffffffffffffffffffffffffffffffffffffffffffffffffffffffff82620006e1565b6200072c8683620006e1565b95508019841693508086168417925050509392505050565b6000819050919050565b60006200076f6200076962000763846200059c565b62000744565b6200059c565b9050919050565b6000819050919050565b6200078b836200074e565b620007a36200079a8262000776565b848454620006ee565b825550505050565b600090565b620007ba620007ab565b620007c781848462000780565b505050565b5b81811015620007ef57620007e3600082620007b0565b600181019050620007cd565b5050565b601f8211156200083e576200080881620006bc565b6200081384620006d1565b8101602085101562000823578190505b6200083b6200083285620006d1565b830182620007cc565b50505b505050565b600082821c905092915050565b6000620008636000198460080262000843565b1980831691505092915050565b60006200087e838362000850565b9150826002028217905092915050565b62000899826200061e565b67ffffffffffffffff811115620008b557620008b462000629565b5b620008c1825462000687565b620008ce828285620007f3565b600060209050601f831160018114620009065760008415620008f1578287015190505b620008fd858262000870565b8655506200096d565b601f1984166200091686620006bc565b60005b82811015620009405784890151825560018201915060208501945060208101905062000919565b868310156200096057848901516200095c601f89168262000850565b8355505b6001600288020188555050505b505050505050565b620009808162000557565b82525050565b60006020820190506200099d600083018462000975565b92915050565b7f4e487b7100000000000000000000000000000000000000000000000000000000600052601160045260246000fd5b60008160011c9050919050565b6000808291508390505b600185111562000a315780860481111562000a095762000a08620009a3565b5b600185161562000a195780820291505b808102905062000a2985620009d2565b9450620009e9565b94509492505050565b60008262000a4c576001905062000b1f565b8162000a5c576000905062000b1f565b816001811462000a75576002811462000a805762000ab6565b600191505062000b1f565b60ff84111562000a955762000a94620009a3565b5b8360020a91508482111562000aaf5762000aae620009a3565b5b5062000b1f565b5060208310610133831016604e8410600b841016171562000af05782820a90508381111562000aea5762000ae9620009a3565b5b62000b1f565b62000aff8484846001620009df565b9250905081840481111562000b195762000b18620009a3565b5b81810290505b9392505050565b600060ff82169050919050565b600062000b40826200059c565b915062000b4d8362000b26565b925062000b7c7fffffffffffffffffffffffffffffffffffffffffffffffffffffffffffffffff848462000a3a565b905092915050565b600062000b91826200059c565b915062000b9e836200059c565b925082820262000bae816200059c565b9150828204841483151762000bc85762000bc7620009a3565b5b5092915050565b600062000bdc826200059c565b915062000be9836200059c565b925082820190508082111562000c045762000c03620009a3565b5b92915050565b62000c15816200059c565b82525050565b600060608201905062000c32600083018662000975565b62000c41602083018562000c0a565b62000c50604083018462000c0a565b949350505050565b600060208201905062000c6f600083018462000c0a565b92915050565b61165a8062000c856000396000f3fe6080604052600436106101095760003560e01c8063715018a611610095578063a9059cbb11610064578063a9059cbb1461033a578063c311d04914610377578063dd62ed3e146103a0578063ebaa0bbc146103dd578063f2fde38b1461040657610109565b8063715018a6146102c35780638da5cb5b146102da57806395d89b41146103055780639a87069e1461033057610109565b80631aa6e2ca116100dc5780631aa6e2ca146101ca57806323b872dd146101f5578063313ce5671461023257806340c10f191461025d57806370a082311461028657610109565b806306fdde031461010e578063095ea7b3146101395780630f61643c1461017657806318160ddd1461019f575b600080fd5b34801561011a57600080fd5b5061012361042f565b6040516101309190611125565b60405180910390f35b34801561014557600080fd5b50610160600480360381019061015b91906111e0565b6104c1565b60405161016d919061123b565b60405180910390f35b34801561018257600080fd5b5061019d60048036038101906101989190611256565b6104e4565b005b3480156101ab57600080fd5b506101b46104fa565b6040516101c19190611292565b60405180910390f35b3480156101d657600080fd5b506101df610504565b6040516101ec9190611292565b60405180910390f35b34801561020157600080fd5b5061021c600480360381019061021791906112ad565b61050a565b604051610229919061123b565b60405180910390f35b34801561023e57600080fd5b50610247610539565b604051610254919061131c565b60405180910390f35b34801561026957600080fd5b50610284600480360381019061027f91906111e0565b610542565b005b34801561029257600080fd5b506102ad60048036038101906102a89190611337565b610558565b6040516102ba9190611292565b60405180910390f35b3480156102cf57600080fd5b506102d86105a0565b005b3480156102e657600080fd5b506102ef6105b4565b6040516102fc9190611373565b60405180910390f35b34801561031157600080fd5b5061031a6105de565b6040516103279190611125565b60405180910390f35b610338610670565b005b34801561034657600080fd5b50610361600480360381019061035c91906111e0565b61073d565b60405161036e919061123b565b60405180910390f35b34801561038357600080fd5b5061039e60048036038101906103999190611256565b610760565b005b3480156103ac57600080fd5b506103c760048036038101906103c2919061138e565b6107b9565b6040516103d49190611292565b60405180910390f35b3480156103e957600080fd5b5061040460048036038101906103ff9190611256565b610840565b005b34801561041257600080fd5b5061042d60048036038101906104289190611337565b610852565b005b60606003805461043e906113fd565b80601f016020809104026020016040519081016040528092919081815260200182805461046a906113fd565b80156104b75780601f1061048c576101008083540402835291602001916104b7565b820191906000526020600020905b81548152906001019060200180831161049a57829003601f168201915b5050505050905090565b6000806104cc6108d8565b90506104d98185856108e0565b600191505092915050565b6104ec6108f2565b6104f7333083610979565b50565b6000600254905090565b60075481565b6000806105156108d8565b9050610522858285610a6d565b61052d858585610979565b60019150509392505050565b60006012905090565b61054a6108f2565b6105548282610b01565b5050565b60008060008373ffffffffffffffffffffffffffffffffffffffff1673ffffffffffffffffffffffffffffffffffffffff168152602001908152602001600020549050919050565b6105a86108f2565b6105b26000610b83565b565b6000600560009054906101000a900473ffffffffffffffffffffffffffffffffffffffff16905090565b6060600480546105ed906113fd565b80601f0160208091040260200160405190810160405280929190818152602001828054610619906113fd565b80156106665780601f1061063b57610100808354040283529160200191610666565b820191906000526020600020905b81548152906001019060200180831161064957829003601f168201915b5050505050905090565b610678610c49565b600060075434610688919061145d565b90508061069430610558565b10156106d5576040517f08c379a00000000000000000000000000000000000000000000000000000000081526004016106cc90611511565b60405180910390fd5b6106e0303383610979565b3373ffffffffffffffffffffffffffffffffffffffff167fe8e3aa9086f33aa1d89447fc3a792fafabd987374e660b040e31787d68b5fe068260075460405161072a92919061157d565b60405180910390a25061073b610c8f565b565b6000806107486108d8565b9050610755818585610979565b600191505092915050565b6107686108f2565b6107706105b4565b73ffffffffffffffffffffffffffffffffffffffff166108fc829081150290604051600060405180830381858888f193505050501580156107b5573d6000803e3d6000fd5b5050565b6000600160008473ffffffffffffffffffffffffffffffffffffffff1673ffffffffffffffffffffffffffffffffffffffff16815260200190815260200160002060008373ffffffffffffffffffffffffffffffffffffffff1673ffffffffffffffffffffffffffffffffffffffff16815260200190815260200160002054905092915050565b6108486108f2565b8060078190555050565b61085a6108f2565b600073ffffffffffffffffffffffffffffffffffffffff168173ffffffffffffffffffffffffffffffffffffffff16036108cc5760006040517f1e4fbdf70000000000000000000000000000000000000000000000000000000081526004016108c39190611373565b60405180910390fd5b6108d581610b83565b50565b600033905090565b6108ed8383836001610c99565b505050565b6108fa6108d8565b73ffffffffffffffffffffffffffffffffffffffff166109186105b4565b73ffffffffffffffffffffffffffffffffffffffff16146109775761093b6108d8565b6040517f118cdaa700000000000000000000000000000000000000000000000000000000815260040161096e9190611373565b60405180910390fd5b565b600073ffffffffffffffffffffffffffffffffffffffff168373ffffffffffffffffffffffffffffffffffffffff16036109eb5760006040517f96c6fd1e0000000000000000000000000000000000000000000000000000000081526004016109e29190611373565b60405180910390fd5b600073ffffffffffffffffffffffffffffffffffffffff168273ffffffffffffffffffffffffffffffffffffffff1603610a5d5760006040517fec442f05000000000000000000000000000000000000000000000000000000008152600401610a549190611373565b60405180910390fd5b610a68838383610e70565b505050565b6000610a7984846107b9565b90507fffffffffffffffffffffffffffffffffffffffffffffffffffffffffffffffff8114610afb5781811015610aeb578281836040517ffb8f41b2000000000000000000000000000000000000000000000000000000008152600401610ae2939291906115b9565b60405180910390fd5b610afa84848484036000610c99565b5b50505050565b600073ffffffffffffffffffffffffffffffffffffffff168273ffffffffffffffffffffffffffffffffffffffff1603610b735760006040517fec442f05000000000000000000000000000000000000000000000000000000008152600401610b6a9190611373565b60405180910390fd5b610b7f60008383610e70565b5050565b6000600560009054906101000a900473ffffffffffffffffffffffffffffffffffffffff16905081600560006101000a81548173ffffffffffffffffffffffffffffffffffffffff021916908373ffffffffffffffffffffffffffffffffffffffff1602179055508173ffffffffffffffffffffffffffffffffffffffff168173ffffffffffffffffffffffffffffffffffffffff167f8be0079c531659141344cd1fd0a4f28419497f9722a3daafe3b4186f6b6457e060405160405180910390a35050565b600260065403610c85576040517f3ee5aeb500000000000000000000000000000000000000000000000000000000815260040160405180910390fd5b6002600681905550565b6001600681905550565b600073ffffffffffffffffffffffffffffffffffffffff168473ffffffffffffffffffffffffffffffffffffffff1603610d0b5760006040517fe602df05000000000000000000000000000000000000000000000000000000008152600401610d029190611373565b60405180910390fd5b600073ffffffffffffffffffffffffffffffffffffffff168373ffffffffffffffffffffffffffffffffffffffff1603610d7d5760006040517f94280d62000000000000000000000000000000000000000000000000000000008152600401610d749190611373565b60405180910390fd5b81600160008673ffffffffffffffffffffffffffffffffffffffff1673ffffffffffffffffffffffffffffffffffffffff16815260200190815260200160002060008573ffffffffffffffffffffffffffffffffffffffff1673ffffffffffffffffffffffffffffffffffffffff168152602001908152602001600020819055508015610e6a578273ffffffffffffffffffffffffffffffffffffffff168473ffffffffffffffffffffffffffffffffffffffff167f8c5be1e5ebec7d5bd14f71427d1e84f3dd0314c0f7b2291e5b200ac8c7c3b92584604051610e619190611292565b60405180910390a35b50505050565b600073ffffffffffffffffffffffffffffffffffffffff168373ffffffffffffffffffffffffffffffffffffffff1603610ec2578060026000828254610eb691906115f0565b92505081905550610f95565b60008060008573ffffffffffffffffffffffffffffffffffffffff1673ffffffffffffffffffffffffffffffffffffffff16815260200190815260200160002054905081811015610f4e578381836040517fe450d38c000000000000000000000000000000000000000000000000000000008152600401610f45939291906115b9565b60405180910390fd5b8181036000808673ffffffffffffffffffffffffffffffffffffffff1673ffffffffffffffffffffffffffffffffffffffff16815260200190815260200160002081905550505b600073ffffffffffffffffffffffffffffffffffffffff168273ffffffffffffffffffffffffffffffffffffffff1603610fde578060026000828254039250508190555061102b565b806000808473ffffffffffffffffffffffffffffffffffffffff1673ffffffffffffffffffffffffffffffffffffffff168152602001908152602001600020600082825401925050819055505b8173ffffffffffffffffffffffffffffffffffffffff168373ffffffffffffffffffffffffffffffffffffffff167fddf252ad1be2c89b69c2b068fc378daa952ba7f163c4a11628f55a4df523b3ef836040516110889190611292565b60405180910390a3505050565b600081519050919050565b600082825260208201905092915050565b60005b838110156110cf5780820151818401526020810190506110b4565b60008484015250505050565b6000601f19601f8301169050919050565b60006110f782611095565b61110181856110a0565b93506111118185602086016110b1565b61111a816110db565b840191505092915050565b6000602082019050818103600083015261113f81846110ec565b905092915050565b600080fd5b600073ffffffffffffffffffffffffffffffffffffffff82169050919050565b60006111778261114c565b9050919050565b6111878161116c565b811461119257600080fd5b50565b6000813590506111a48161117e565b92915050565b6000819050919050565b6111bd816111aa565b81146111c857600080fd5b50565b6000813590506111da816111b4565b92915050565b600080604083850312156111f7576111f6611147565b5b600061120585828601611195565b9250506020611216858286016111cb565b9150509250929050565b60008115159050919050565b61123581611220565b82525050565b6000602082019050611250600083018461122c565b92915050565b60006020828403121561126c5761126b611147565b5b600061127a848285016111cb565b91505092915050565b61128c816111aa565b82525050565b60006020820190506112a76000830184611283565b92915050565b6000806000606084860312156112c6576112c5611147565b5b60006112d486828701611195565b93505060206112e586828701611195565b92505060406112f6868287016111cb565b9150509250925092565b600060ff82169050919050565b61131681611300565b82525050565b6000602082019050611331600083018461130d565b92915050565b60006020828403121561134d5761134c611147565b5b600061135b84828501611195565b91505092915050565b61136d8161116c565b82525050565b60006020820190506113886000830184611364565b92915050565b600080604083850312156113a5576113a4611147565b5b60006113b385828601611195565b92505060206113c485828601611195565b9150509250929050565b7f4e487b7100000000000000000000000000000000000000000000000000000000600052602260045260246000fd5b6000600282049050600182168061141557607f821691505b602082108103611428576114276113ce565b5b50919050565b7f4e487b7100000000000000000000000000000000000000000000000000000000600052601160045260246000fd5b6000611468826111aa565b9150611473836111aa565b9250828202611481816111aa565b915082820484148315176114985761149761142e565b5b5092915050565b7f4e6f7420656e6f75676820436174436f696e7320696e2074686520726573657260008201527f7665000000000000000000000000000000000000000000000000000000000000602082015250565b60006114fb6022836110a0565b91506115068261149f565b604082019050919050565b6000602082019050818103600083015261152a816114ee565b9050919050565b7f4554480000000000000000000000000000000000000000000000000000000000600082015250565b60006115676003836110a0565b915061157282611531565b602082019050919050565b60006060820190506115926000830185611283565b61159f6020830184611283565b81810360408301526115b08161155a565b90509392505050565b60006060820190506115ce6000830186611364565b6115db6020830185611283565b6115e86040830184611283565b949350505050565b60006115fb826111aa565b9150611606836111aa565b925082820190508082111561161e5761161d61142e565b5b9291505056fea2646970667358221220bfae782abe1b254901520996376932fb10608fb639e0d56bc9988bfd07ce14ee64736f6c63430008180033",
    "linkReferences": {},
    "deployedLinkReferences": {}
}